{
  "contractName": "MainPool",
  "abi": [
    {
      "inputs": [
        {
          "internalType": "contract IERC20",
          "name": "_coinAddress",
          "type": "address"
        }
      ],
      "stateMutability": "nonpayable",
      "type": "constructor"
    },
    {
      "anonymous": false,
      "inputs": [
        {
          "indexed": true,
          "internalType": "address",
          "name": "user",
          "type": "address"
        },
        {
          "indexed": false,
          "internalType": "uint256",
          "name": "points",
          "type": "uint256"
        },
        {
          "indexed": false,
          "internalType": "bytes",
          "name": "data",
          "type": "bytes"
        }
      ],
      "name": "Consumed",
      "type": "event"
    },
    {
      "anonymous": false,
      "inputs": [
        {
          "indexed": true,
          "internalType": "address",
          "name": "previousOwner",
          "type": "address"
        },
        {
          "indexed": true,
          "internalType": "address",
          "name": "newOwner",
          "type": "address"
        }
      ],
      "name": "OwnershipTransferred",
      "type": "event"
    },
    {
      "anonymous": false,
      "inputs": [
        {
          "indexed": true,
          "internalType": "address",
          "name": "user",
          "type": "address"
        },
        {
          "indexed": false,
          "internalType": "uint256",
          "name": "points",
          "type": "uint256"
        },
        {
          "indexed": false,
          "internalType": "bytes",
          "name": "data",
          "type": "bytes"
        }
      ],
      "name": "Rewarded",
      "type": "event"
    },
    {
      "anonymous": false,
      "inputs": [
        {
          "indexed": true,
          "internalType": "bytes32",
          "name": "role",
          "type": "bytes32"
        },
        {
          "indexed": true,
          "internalType": "bytes32",
          "name": "previousAdminRole",
          "type": "bytes32"
        },
        {
          "indexed": true,
          "internalType": "bytes32",
          "name": "newAdminRole",
          "type": "bytes32"
        }
      ],
      "name": "RoleAdminChanged",
      "type": "event"
    },
    {
      "anonymous": false,
      "inputs": [
        {
          "indexed": true,
          "internalType": "bytes32",
          "name": "role",
          "type": "bytes32"
        },
        {
          "indexed": true,
          "internalType": "address",
          "name": "account",
          "type": "address"
        },
        {
          "indexed": true,
          "internalType": "address",
          "name": "sender",
          "type": "address"
        }
      ],
      "name": "RoleGranted",
      "type": "event"
    },
    {
      "anonymous": false,
      "inputs": [
        {
          "indexed": true,
          "internalType": "bytes32",
          "name": "role",
          "type": "bytes32"
        },
        {
          "indexed": true,
          "internalType": "address",
          "name": "account",
          "type": "address"
        },
        {
          "indexed": true,
          "internalType": "address",
          "name": "sender",
          "type": "address"
        }
      ],
      "name": "RoleRevoked",
      "type": "event"
    },
    {
      "anonymous": false,
      "inputs": [
        {
          "indexed": true,
          "internalType": "address",
          "name": "user",
          "type": "address"
        },
        {
          "indexed": false,
          "internalType": "uint256",
          "name": "amount",
          "type": "uint256"
        }
      ],
      "name": "Staked",
      "type": "event"
    },
    {
      "anonymous": false,
      "inputs": [
        {
          "indexed": true,
          "internalType": "address",
          "name": "user",
          "type": "address"
        },
        {
          "indexed": false,
          "internalType": "uint256",
          "name": "amount",
          "type": "uint256"
        }
      ],
      "name": "Unstaked",
      "type": "event"
    },
    {
      "inputs": [],
      "name": "DEFAULT_ADMIN_ROLE",
      "outputs": [
        {
          "internalType": "bytes32",
          "name": "",
          "type": "bytes32"
        }
      ],
      "stateMutability": "view",
      "type": "function",
      "constant": true
    },
    {
      "inputs": [],
      "name": "SERVICE_ROLE",
      "outputs": [
        {
          "internalType": "bytes32",
          "name": "",
          "type": "bytes32"
        }
      ],
      "stateMutability": "view",
      "type": "function",
      "constant": true
    },
    {
      "inputs": [
        {
          "internalType": "address",
          "name": "account",
          "type": "address"
        }
      ],
      "name": "balanceOf",
      "outputs": [
        {
          "internalType": "uint256",
          "name": "",
          "type": "uint256"
        }
      ],
      "stateMutability": "view",
      "type": "function",
      "constant": true
    },
    {
      "inputs": [],
      "name": "billingPeriod",
      "outputs": [
        {
          "internalType": "uint256",
          "name": "",
          "type": "uint256"
        }
      ],
      "stateMutability": "view",
      "type": "function",
      "constant": true
    },
    {
      "inputs": [],
      "name": "coin",
      "outputs": [
        {
          "internalType": "contract IERC20",
          "name": "",
          "type": "address"
        }
      ],
      "stateMutability": "view",
      "type": "function",
      "constant": true
    },
    {
      "inputs": [
        {
          "internalType": "bytes32",
          "name": "role",
          "type": "bytes32"
        }
      ],
      "name": "getRoleAdmin",
      "outputs": [
        {
          "internalType": "bytes32",
          "name": "",
          "type": "bytes32"
        }
      ],
      "stateMutability": "view",
      "type": "function",
      "constant": true
    },
    {
      "inputs": [
        {
          "internalType": "bytes32",
          "name": "role",
          "type": "bytes32"
        },
        {
          "internalType": "address",
          "name": "account",
          "type": "address"
        }
      ],
      "name": "grantRole",
      "outputs": [],
      "stateMutability": "nonpayable",
      "type": "function"
    },
    {
      "inputs": [
        {
          "internalType": "bytes32",
          "name": "role",
          "type": "bytes32"
        },
        {
          "internalType": "address",
          "name": "account",
          "type": "address"
        }
      ],
      "name": "hasRole",
      "outputs": [
        {
          "internalType": "bool",
          "name": "",
          "type": "bool"
        }
      ],
      "stateMutability": "view",
      "type": "function",
      "constant": true
    },
    {
      "inputs": [
        {
          "internalType": "address",
          "name": "",
          "type": "address"
        }
      ],
      "name": "lastUpdateTime",
      "outputs": [
        {
          "internalType": "uint256",
          "name": "",
          "type": "uint256"
        }
      ],
      "stateMutability": "view",
      "type": "function",
      "constant": true
    },
    {
      "inputs": [],
      "name": "owner",
      "outputs": [
        {
          "internalType": "address",
          "name": "",
          "type": "address"
        }
      ],
      "stateMutability": "view",
      "type": "function",
      "constant": true
    },
    {
      "inputs": [
        {
          "internalType": "address",
          "name": "",
          "type": "address"
        }
      ],
      "name": "points",
      "outputs": [
        {
          "internalType": "uint256",
          "name": "",
          "type": "uint256"
        }
      ],
      "stateMutability": "view",
      "type": "function",
      "constant": true
    },
    {
      "inputs": [],
      "name": "rateDenominator",
      "outputs": [
        {
          "internalType": "uint256",
          "name": "",
          "type": "uint256"
        }
      ],
      "stateMutability": "view",
      "type": "function",
      "constant": true
    },
    {
      "inputs": [],
      "name": "rateNumerator",
      "outputs": [
        {
          "internalType": "uint256",
          "name": "",
          "type": "uint256"
        }
      ],
      "stateMutability": "view",
      "type": "function",
      "constant": true
    },
    {
      "inputs": [],
      "name": "renounceOwnership",
      "outputs": [],
      "stateMutability": "nonpayable",
      "type": "function"
    },
    {
      "inputs": [
        {
          "internalType": "bytes32",
          "name": "role",
          "type": "bytes32"
        },
        {
          "internalType": "address",
          "name": "account",
          "type": "address"
        }
      ],
      "name": "renounceRole",
      "outputs": [],
      "stateMutability": "nonpayable",
      "type": "function"
    },
    {
      "inputs": [
        {
          "internalType": "bytes32",
          "name": "role",
          "type": "bytes32"
        },
        {
          "internalType": "address",
          "name": "account",
          "type": "address"
        }
      ],
      "name": "revokeRole",
      "outputs": [],
      "stateMutability": "nonpayable",
      "type": "function"
    },
    {
      "inputs": [],
      "name": "stakeLimit",
      "outputs": [
        {
          "internalType": "uint256",
          "name": "",
          "type": "uint256"
        }
      ],
      "stateMutability": "view",
      "type": "function",
      "constant": true
    },
    {
      "inputs": [
        {
          "internalType": "bytes4",
          "name": "interfaceId",
          "type": "bytes4"
        }
      ],
      "name": "supportsInterface",
      "outputs": [
        {
          "internalType": "bool",
          "name": "",
          "type": "bool"
        }
      ],
      "stateMutability": "view",
      "type": "function",
      "constant": true
    },
    {
      "inputs": [],
      "name": "totalSupply",
      "outputs": [
        {
          "internalType": "uint256",
          "name": "",
          "type": "uint256"
        }
      ],
      "stateMutability": "view",
      "type": "function",
      "constant": true
    },
    {
      "inputs": [
        {
          "internalType": "address",
          "name": "newOwner",
          "type": "address"
        }
      ],
      "name": "transferOwnership",
      "outputs": [],
      "stateMutability": "nonpayable",
      "type": "function"
    },
    {
      "inputs": [
        {
          "internalType": "address",
          "name": "account",
          "type": "address"
        }
      ],
      "name": "earned",
      "outputs": [
        {
          "internalType": "uint256",
          "name": "",
          "type": "uint256"
        }
      ],
      "stateMutability": "view",
      "type": "function",
      "constant": true
    },
    {
      "inputs": [
        {
          "internalType": "uint256",
          "name": "amount",
          "type": "uint256"
        }
      ],
      "name": "stake",
      "outputs": [],
      "stateMutability": "nonpayable",
      "type": "function"
    },
    {
      "inputs": [
        {
          "internalType": "uint256",
          "name": "amount",
          "type": "uint256"
        }
      ],
      "name": "unstake",
      "outputs": [],
      "stateMutability": "nonpayable",
      "type": "function"
    },
    {
      "inputs": [],
      "name": "exit",
      "outputs": [],
      "stateMutability": "nonpayable",
      "type": "function"
    },
    {
      "inputs": [
        {
          "internalType": "uint256",
          "name": "nextStakeLimit",
          "type": "uint256"
        },
        {
          "internalType": "uint256",
          "name": "nextNumerator",
          "type": "uint256"
        },
        {
          "internalType": "uint256",
          "name": "nextDenominator",
          "type": "uint256"
        },
        {
          "internalType": "uint256",
          "name": "nextBillingPeriod",
          "type": "uint256"
        }
      ],
      "name": "alterFormula",
      "outputs": [],
      "stateMutability": "nonpayable",
      "type": "function"
    },
    {
      "inputs": [
        {
          "internalType": "address",
          "name": "account",
          "type": "address"
        },
        {
          "internalType": "uint256",
          "name": "amount",
          "type": "uint256"
        },
        {
          "internalType": "bytes",
          "name": "_data",
          "type": "bytes"
        }
      ],
      "name": "reward",
      "outputs": [],
      "stateMutability": "nonpayable",
      "type": "function"
    },
    {
      "inputs": [
        {
          "internalType": "address",
          "name": "account",
          "type": "address"
        },
        {
          "internalType": "uint256",
          "name": "amount",
          "type": "uint256"
        },
        {
          "internalType": "bytes",
          "name": "_data",
          "type": "bytes"
        }
      ],
      "name": "consume",
      "outputs": [],
      "stateMutability": "nonpayable",
      "type": "function"
    },
    {
      "inputs": [
        {
          "internalType": "address",
          "name": "contractAddress",
          "type": "address"
        }
      ],
      "name": "registerService",
      "outputs": [],
      "stateMutability": "nonpayable",
      "type": "function"
    }
  ],
  "bytecode": "0x60806040523480156200001157600080fd5b5060405162002cc838038062002cc88339818101604052810190620000379190620003a2565b80806000806101000a81548173ffffffffffffffffffffffffffffffffffffffff021916908373ffffffffffffffffffffffffffffffffffffffff16021790555050620000996200008d620000e360201b60201c565b620000eb60201b60201c565b620000ae6000801b33620001b160201b60201c565b6b033b2e3c9fd0803ce800000060078190555060056008819055506103e860098190555062015180600a8190555050620003d4565b600033905090565b6000600360009054906101000a900473ffffffffffffffffffffffffffffffffffffffff16905081600360006101000a81548173ffffffffffffffffffffffffffffffffffffffff021916908373ffffffffffffffffffffffffffffffffffffffff1602179055508173ffffffffffffffffffffffffffffffffffffffff168173ffffffffffffffffffffffffffffffffffffffff167f8be0079c531659141344cd1fd0a4f28419497f9722a3daafe3b4186f6b6457e060405160405180910390a35050565b620001c38282620001c760201b60201c565b5050565b620001d98282620002b960201b60201c565b620002b55760016004600084815260200190815260200160002060000160008373ffffffffffffffffffffffffffffffffffffffff1673ffffffffffffffffffffffffffffffffffffffff16815260200190815260200160002060006101000a81548160ff0219169083151502179055506200025a620000e360201b60201c565b73ffffffffffffffffffffffffffffffffffffffff168173ffffffffffffffffffffffffffffffffffffffff16837f2f8788117e7eff1d82e926ec794901d17c78024a50270940304540a733656f0d60405160405180910390a45b5050565b60006004600084815260200190815260200160002060000160008373ffffffffffffffffffffffffffffffffffffffff1673ffffffffffffffffffffffffffffffffffffffff16815260200190815260200160002060009054906101000a900460ff16905092915050565b600080fd5b600073ffffffffffffffffffffffffffffffffffffffff82169050919050565b6000620003568262000329565b9050919050565b60006200036a8262000349565b9050919050565b6200037c816200035d565b81146200038857600080fd5b50565b6000815190506200039c8162000371565b92915050565b600060208284031215620003bb57620003ba62000324565b5b6000620003cb848285016200038b565b91505092915050565b6128e480620003e46000396000f3fe608060405234801561001057600080fd5b50600436106101c35760003560e01c806370a08231116100f9578063a694fc3a11610097578063e9fad8ee11610071578063e9fad8ee146104f4578063f2fde38b146104fe578063fb0f18b21461051a578063fdd9ec7d14610536576101c3565b8063a694fc3a146104a0578063ca7f829a146104bc578063d547741f146104d8576101c3565b80638da5cb5b116100d35780638da5cb5b1461041657806391d1485414610434578063a20e7d4714610464578063a217fddf14610482576101c3565b806370a08231146103be578063715018a6146103ee578063865192f7146103f8576101c3565b80632e17de781161016657806336568abe1161014057806336568abe1461034a57806345ef79af146103665780634f382010146103845780636d786740146103a0576101c3565b80632e17de78146102e25780632f2ff15d146102fe578063358b81661461031a576101c3565b806311df9995116101a257806311df99951461024657806318160ddd14610264578063248a9ca3146102825780632ce9aead146102b2576101c3565b80628cc262146101c857806301ffc9a7146101f85780630b36b8db14610228575b600080fd5b6101e260048036038101906101dd9190611c4c565b610552565b6040516101ef9190611c92565b60405180910390f35b610212600480360381019061020d9190611d05565b610693565b60405161021f9190611d4d565b60405180910390f35b61023061070d565b60405161023d9190611c92565b60405180910390f35b61024e610713565b60405161025b9190611dc7565b60405180910390f35b61026c610737565b6040516102799190611c92565b60405180910390f35b61029c60048036038101906102979190611e18565b610741565b6040516102a99190611e54565b60405180910390f35b6102cc60048036038101906102c79190611c4c565b610761565b6040516102d99190611c92565b60405180910390f35b6102fc60048036038101906102f79190611e9b565b610779565b005b61031860048036038101906103139190611ec8565b6108dd565b005b610334600480360381019061032f9190611c4c565b610906565b6040516103419190611c92565b60405180910390f35b610364600480360381019061035f9190611ec8565b61091e565b005b61036e6109a1565b60405161037b9190611c92565b60405180910390f35b61039e60048036038101906103999190611f6d565b6109a7565b005b6103a8610b8e565b6040516103b59190611c92565b60405180910390f35b6103d860048036038101906103d39190611c4c565b610b94565b6040516103e59190611c92565b60405180910390f35b6103f6610bdd565b005b610400610c65565b60405161040d9190611c92565b60405180910390f35b61041e610c6b565b60405161042b9190611ff0565b60405180910390f35b61044e60048036038101906104499190611ec8565b610c95565b60405161045b9190611d4d565b60405180910390f35b61046c610d00565b6040516104799190611e54565b60405180910390f35b61048a610d24565b6040516104979190611e54565b60405180910390f35b6104ba60048036038101906104b59190611e9b565b610d2b565b005b6104d660048036038101906104d1919061200b565b610eab565b005b6104f260048036038101906104ed9190611ec8565b610f49565b005b6104fc610f72565b005b61051860048036038101906105139190611c4c565b610f85565b005b610534600480360381019061052f9190611f6d565b61107d565b005b610550600480360381019061054b9190611c4c565b6112e5565b005b600080429050600061060e610580670de0b6b3a764000061057287610b94565b61131290919063ffffffff16565b610600600a546105f2670de0b6b3a76400006105e4600560008c73ffffffffffffffffffffffffffffffffffffffff1673ffffffffffffffffffffffffffffffffffffffff168152602001908152602001600020548961132890919063ffffffff16565b61133e90919063ffffffff16565b61131290919063ffffffff16565b61133e90919063ffffffff16565b905061068a61063c60095461062e6008548561133e90919063ffffffff16565b61131290919063ffffffff16565b600660008773ffffffffffffffffffffffffffffffffffffffff1673ffffffffffffffffffffffffffffffffffffffff1681526020019081526020016000205461135490919063ffffffff16565b92505050919050565b60007f7965db0b000000000000000000000000000000000000000000000000000000007bffffffffffffffffffffffffffffffffffffffffffffffffffffffff1916827bffffffffffffffffffffffffffffffffffffffffffffffffffffffff1916148061070657506107058261136a565b5b9050919050565b60085481565b60008054906101000a900473ffffffffffffffffffffffffffffffffffffffff1681565b6000600154905090565b600060046000838152602001908152602001600020600101549050919050565b60056020528060005260406000206000915090505481565b33600073ffffffffffffffffffffffffffffffffffffffff168173ffffffffffffffffffffffffffffffffffffffff161461083f576107b781610552565b600660008373ffffffffffffffffffffffffffffffffffffffff1673ffffffffffffffffffffffffffffffffffffffff1681526020019081526020016000208190555042600560008373ffffffffffffffffffffffffffffffffffffffff1673ffffffffffffffffffffffffffffffffffffffff168152602001908152602001600020819055505b60008211610882576040517f08c379a0000000000000000000000000000000000000000000000000000000008152600401610879906120cf565b60405180910390fd5b61088b826113d4565b3373ffffffffffffffffffffffffffffffffffffffff167f0f5bb82176feb1b5e747e28471aa92156a04d9f3ab9f45f28e2d704232b93f75836040516108d19190611c92565b60405180910390a25050565b6108e682610741565b6108f7816108f2611526565b61152e565b61090183836115cb565b505050565b60066020528060005260406000206000915090505481565b610926611526565b73ffffffffffffffffffffffffffffffffffffffff168173ffffffffffffffffffffffffffffffffffffffff1614610993576040517f08c379a000000000000000000000000000000000000000000000000000000000815260040161098a90612161565b60405180910390fd5b61099d82826116ac565b5050565b60075481565b83600073ffffffffffffffffffffffffffffffffffffffff168173ffffffffffffffffffffffffffffffffffffffff1614610a6d576109e581610552565b600660008373ffffffffffffffffffffffffffffffffffffffff1673ffffffffffffffffffffffffffffffffffffffff1681526020019081526020016000208190555042600560008373ffffffffffffffffffffffffffffffffffffffff1673ffffffffffffffffffffffffffffffffffffffff168152602001908152602001600020819055505b7fd8a7a79547af723ee3e12b59a480111268d8969c634e1a34a144d2c8b91d635b610a9f81610a9a611526565b61152e565b610af185600660008973ffffffffffffffffffffffffffffffffffffffff1673ffffffffffffffffffffffffffffffffffffffff1681526020019081526020016000205461135490919063ffffffff16565b600660008873ffffffffffffffffffffffffffffffffffffffff1673ffffffffffffffffffffffffffffffffffffffff168152602001908152602001600020819055508573ffffffffffffffffffffffffffffffffffffffff167f4cd64ef1e2edc7afc814f5d0d994d27b8a256cf10de68fcb9d86f122c7963991868686604051610b7e939291906121df565b60405180910390a2505050505050565b600a5481565b6000600260008373ffffffffffffffffffffffffffffffffffffffff1673ffffffffffffffffffffffffffffffffffffffff168152602001908152602001600020549050919050565b610be5611526565b73ffffffffffffffffffffffffffffffffffffffff16610c03610c6b565b73ffffffffffffffffffffffffffffffffffffffff1614610c59576040517f08c379a0000000000000000000000000000000000000000000000000000000008152600401610c509061225d565b60405180910390fd5b610c63600061178e565b565b60095481565b6000600360009054906101000a900473ffffffffffffffffffffffffffffffffffffffff16905090565b60006004600084815260200190815260200160002060000160008373ffffffffffffffffffffffffffffffffffffffff1673ffffffffffffffffffffffffffffffffffffffff16815260200190815260200160002060009054906101000a900460ff16905092915050565b7fd8a7a79547af723ee3e12b59a480111268d8969c634e1a34a144d2c8b91d635b81565b6000801b81565b33600073ffffffffffffffffffffffffffffffffffffffff168173ffffffffffffffffffffffffffffffffffffffff1614610df157610d6981610552565b600660008373ffffffffffffffffffffffffffffffffffffffff1673ffffffffffffffffffffffffffffffffffffffff1681526020019081526020016000208190555042600560008373ffffffffffffffffffffffffffffffffffffffff1673ffffffffffffffffffffffffffffffffffffffff168152602001908152602001600020819055505b600754610e0f610e0033610b94565b8461135490919063ffffffff16565b1115610e50576040517f08c379a0000000000000000000000000000000000000000000000000000000008152600401610e47906122c9565b60405180910390fd5b610e5982611854565b3373ffffffffffffffffffffffffffffffffffffffff167f9e71bc8eea02a63969f509818f2dafb9254532904319f9dbda79b67bd34a5f3d83604051610e9f9190611c92565b60405180910390a25050565b610eb3611526565b73ffffffffffffffffffffffffffffffffffffffff16610ed1610c6b565b73ffffffffffffffffffffffffffffffffffffffff1614610f27576040517f08c379a0000000000000000000000000000000000000000000000000000000008152600401610f1e9061225d565b60405180910390fd5b83600781905550826008819055508160098190555080600a8190555050505050565b610f5282610741565b610f6381610f5e611526565b61152e565b610f6d83836116ac565b505050565b610f83610f7e33610b94565b610779565b565b610f8d611526565b73ffffffffffffffffffffffffffffffffffffffff16610fab610c6b565b73ffffffffffffffffffffffffffffffffffffffff1614611001576040517f08c379a0000000000000000000000000000000000000000000000000000000008152600401610ff89061225d565b60405180910390fd5b600073ffffffffffffffffffffffffffffffffffffffff168173ffffffffffffffffffffffffffffffffffffffff161415611071576040517f08c379a00000000000000000000000000000000000000000000000000000000081526004016110689061235b565b60405180910390fd5b61107a8161178e565b50565b83600073ffffffffffffffffffffffffffffffffffffffff168173ffffffffffffffffffffffffffffffffffffffff1614611143576110bb81610552565b600660008373ffffffffffffffffffffffffffffffffffffffff1673ffffffffffffffffffffffffffffffffffffffff1681526020019081526020016000208190555042600560008373ffffffffffffffffffffffffffffffffffffffff1673ffffffffffffffffffffffffffffffffffffffff168152602001908152602001600020819055505b7fd8a7a79547af723ee3e12b59a480111268d8969c634e1a34a144d2c8b91d635b61117581611170611526565b61152e565b84600660008873ffffffffffffffffffffffffffffffffffffffff1673ffffffffffffffffffffffffffffffffffffffff16815260200190815260200160002054116111f6576040517f08c379a00000000000000000000000000000000000000000000000000000000081526004016111ed906123c7565b60405180910390fd5b61124885600660008973ffffffffffffffffffffffffffffffffffffffff1673ffffffffffffffffffffffffffffffffffffffff1681526020019081526020016000205461132890919063ffffffff16565b600660008873ffffffffffffffffffffffffffffffffffffffff1673ffffffffffffffffffffffffffffffffffffffff168152602001908152602001600020819055508573ffffffffffffffffffffffffffffffffffffffff167fabc37f4852d9f4b051f256d432554f5d49ce547927df92890aea40d80a09b9aa8686866040516112d5939291906121df565b60405180910390a2505050505050565b61130f7fd8a7a79547af723ee3e12b59a480111268d8969c634e1a34a144d2c8b91d635b826108dd565b50565b600081836113209190612445565b905092915050565b600081836113369190612476565b905092915050565b6000818361134c91906124aa565b905092915050565b600081836113629190612504565b905092915050565b60007f01ffc9a7000000000000000000000000000000000000000000000000000000007bffffffffffffffffffffffffffffffffffffffffffffffffffffffff1916827bffffffffffffffffffffffffffffffffffffffffffffffffffffffff1916149050919050565b6113e98160015461132890919063ffffffff16565b60018190555061144181600260003373ffffffffffffffffffffffffffffffffffffffff1673ffffffffffffffffffffffffffffffffffffffff1681526020019081526020016000205461132890919063ffffffff16565b600260003373ffffffffffffffffffffffffffffffffffffffff1673ffffffffffffffffffffffffffffffffffffffff1681526020019081526020016000208190555060008054906101000a900473ffffffffffffffffffffffffffffffffffffffff1673ffffffffffffffffffffffffffffffffffffffff1663a9059cbb33836040518363ffffffff1660e01b81526004016114df92919061255a565b6020604051808303816000875af11580156114fe573d6000803e3d6000fd5b505050506040513d601f19601f8201168201806040525081019061152291906125af565b5050565b600033905090565b6115388282610c95565b6115c75761155d8173ffffffffffffffffffffffffffffffffffffffff1660146119a8565b61156b8360001c60206119a8565b60405160200161157c9291906126ee565b6040516020818303038152906040526040517f08c379a00000000000000000000000000000000000000000000000000000000081526004016115be9190612761565b60405180910390fd5b5050565b6115d58282610c95565b6116a85760016004600084815260200190815260200160002060000160008373ffffffffffffffffffffffffffffffffffffffff1673ffffffffffffffffffffffffffffffffffffffff16815260200190815260200160002060006101000a81548160ff02191690831515021790555061164d611526565b73ffffffffffffffffffffffffffffffffffffffff168173ffffffffffffffffffffffffffffffffffffffff16837f2f8788117e7eff1d82e926ec794901d17c78024a50270940304540a733656f0d60405160405180910390a45b5050565b6116b68282610c95565b1561178a5760006004600084815260200190815260200160002060000160008373ffffffffffffffffffffffffffffffffffffffff1673ffffffffffffffffffffffffffffffffffffffff16815260200190815260200160002060006101000a81548160ff02191690831515021790555061172f611526565b73ffffffffffffffffffffffffffffffffffffffff168173ffffffffffffffffffffffffffffffffffffffff16837ff6391f5c32d9c69d2a47ea670b442974b53935d1edc7fd64eb21e047a839171b60405160405180910390a45b5050565b6000600360009054906101000a900473ffffffffffffffffffffffffffffffffffffffff16905081600360006101000a81548173ffffffffffffffffffffffffffffffffffffffff021916908373ffffffffffffffffffffffffffffffffffffffff1602179055508173ffffffffffffffffffffffffffffffffffffffff168173ffffffffffffffffffffffffffffffffffffffff167f8be0079c531659141344cd1fd0a4f28419497f9722a3daafe3b4186f6b6457e060405160405180910390a35050565b6118698160015461135490919063ffffffff16565b6001819055506118c181600260003373ffffffffffffffffffffffffffffffffffffffff1673ffffffffffffffffffffffffffffffffffffffff1681526020019081526020016000205461135490919063ffffffff16565b600260003373ffffffffffffffffffffffffffffffffffffffff1673ffffffffffffffffffffffffffffffffffffffff1681526020019081526020016000208190555060008054906101000a900473ffffffffffffffffffffffffffffffffffffffff1673ffffffffffffffffffffffffffffffffffffffff166323b872dd3330846040518463ffffffff1660e01b815260040161196193929190612783565b6020604051808303816000875af1158015611980573d6000803e3d6000fd5b505050506040513d601f19601f820116820180604052508101906119a491906125af565b5050565b6060600060028360026119bb91906124aa565b6119c59190612504565b67ffffffffffffffff8111156119de576119dd6127ba565b5b6040519080825280601f01601f191660200182016040528015611a105781602001600182028036833780820191505090505b5090507f300000000000000000000000000000000000000000000000000000000000000081600081518110611a4857611a476127e9565b5b60200101907effffffffffffffffffffffffffffffffffffffffffffffffffffffffffffff1916908160001a9053507f780000000000000000000000000000000000000000000000000000000000000081600181518110611aac57611aab6127e9565b5b60200101907effffffffffffffffffffffffffffffffffffffffffffffffffffffffffffff1916908160001a90535060006001846002611aec91906124aa565b611af69190612504565b90505b6001811115611b96577f3031323334353637383961626364656600000000000000000000000000000000600f861660108110611b3857611b376127e9565b5b1a60f81b828281518110611b4f57611b4e6127e9565b5b60200101907effffffffffffffffffffffffffffffffffffffffffffffffffffffffffffff1916908160001a905350600485901c945080611b8f90612818565b9050611af9565b5060008414611bda576040517f08c379a0000000000000000000000000000000000000000000000000000000008152600401611bd19061288e565b60405180910390fd5b8091505092915050565b600080fd5b600080fd5b600073ffffffffffffffffffffffffffffffffffffffff82169050919050565b6000611c1982611bee565b9050919050565b611c2981611c0e565b8114611c3457600080fd5b50565b600081359050611c4681611c20565b92915050565b600060208284031215611c6257611c61611be4565b5b6000611c7084828501611c37565b91505092915050565b6000819050919050565b611c8c81611c79565b82525050565b6000602082019050611ca76000830184611c83565b92915050565b60007fffffffff0000000000000000000000000000000000000000000000000000000082169050919050565b611ce281611cad565b8114611ced57600080fd5b50565b600081359050611cff81611cd9565b92915050565b600060208284031215611d1b57611d1a611be4565b5b6000611d2984828501611cf0565b91505092915050565b60008115159050919050565b611d4781611d32565b82525050565b6000602082019050611d626000830184611d3e565b92915050565b6000819050919050565b6000611d8d611d88611d8384611bee565b611d68565b611bee565b9050919050565b6000611d9f82611d72565b9050919050565b6000611db182611d94565b9050919050565b611dc181611da6565b82525050565b6000602082019050611ddc6000830184611db8565b92915050565b6000819050919050565b611df581611de2565b8114611e0057600080fd5b50565b600081359050611e1281611dec565b92915050565b600060208284031215611e2e57611e2d611be4565b5b6000611e3c84828501611e03565b91505092915050565b611e4e81611de2565b82525050565b6000602082019050611e696000830184611e45565b92915050565b611e7881611c79565b8114611e8357600080fd5b50565b600081359050611e9581611e6f565b92915050565b600060208284031215611eb157611eb0611be4565b5b6000611ebf84828501611e86565b91505092915050565b60008060408385031215611edf57611ede611be4565b5b6000611eed85828601611e03565b9250506020611efe85828601611c37565b9150509250929050565b600080fd5b600080fd5b600080fd5b60008083601f840112611f2d57611f2c611f08565b5b8235905067ffffffffffffffff811115611f4a57611f49611f0d565b5b602083019150836001820283011115611f6657611f65611f12565b5b9250929050565b60008060008060608587031215611f8757611f86611be4565b5b6000611f9587828801611c37565b9450506020611fa687828801611e86565b935050604085013567ffffffffffffffff811115611fc757611fc6611be9565b5b611fd387828801611f17565b925092505092959194509250565b611fea81611c0e565b82525050565b60006020820190506120056000830184611fe1565b92915050565b6000806000806080858703121561202557612024611be4565b5b600061203387828801611e86565b945050602061204487828801611e86565b935050604061205587828801611e86565b925050606061206687828801611e86565b91505092959194509250565b600082825260208201905092915050565b7f43616e6e6f742077697468647261772030000000000000000000000000000000600082015250565b60006120b9601183612072565b91506120c482612083565b602082019050919050565b600060208201905081810360008301526120e8816120ac565b9050919050565b7f416363657373436f6e74726f6c3a2063616e206f6e6c792072656e6f756e636560008201527f20726f6c657320666f722073656c660000000000000000000000000000000000602082015250565b600061214b602f83612072565b9150612156826120ef565b604082019050919050565b6000602082019050818103600083015261217a8161213e565b9050919050565b600082825260208201905092915050565b82818337600083830152505050565b6000601f19601f8301169050919050565b60006121be8385612181565b93506121cb838584612192565b6121d4836121a1565b840190509392505050565b60006040820190506121f46000830186611c83565b81810360208301526122078184866121b2565b9050949350505050565b7f4f776e61626c653a2063616c6c6572206973206e6f7420746865206f776e6572600082015250565b6000612247602083612072565b915061225282612211565b602082019050919050565b600060208201905081810360008301526122768161223a565b9050919050565b7f5374616b65206d6f7265207468616e206c696d69747300000000000000000000600082015250565b60006122b3601683612072565b91506122be8261227d565b602082019050919050565b600060208201905081810360008301526122e2816122a6565b9050919050565b7f4f776e61626c653a206e6577206f776e657220697320746865207a65726f206160008201527f6464726573730000000000000000000000000000000000000000000000000000602082015250565b6000612345602683612072565b9150612350826122e9565b604082019050919050565b6000602082019050818103600083015261237481612338565b9050919050565b7f4e6f7420656e6f75676820706f696e7473000000000000000000000000000000600082015250565b60006123b1601183612072565b91506123bc8261237b565b602082019050919050565b600060208201905081810360008301526123e0816123a4565b9050919050565b7f4e487b7100000000000000000000000000000000000000000000000000000000600052601260045260246000fd5b7f4e487b7100000000000000000000000000000000000000000000000000000000600052601160045260246000fd5b600061245082611c79565b915061245b83611c79565b92508261246b5761246a6123e7565b5b828204905092915050565b600061248182611c79565b915061248c83611c79565b92508282101561249f5761249e612416565b5b828203905092915050565b60006124b582611c79565b91506124c083611c79565b9250817fffffffffffffffffffffffffffffffffffffffffffffffffffffffffffffffff04831182151516156124f9576124f8612416565b5b828202905092915050565b600061250f82611c79565b915061251a83611c79565b9250827fffffffffffffffffffffffffffffffffffffffffffffffffffffffffffffffff0382111561254f5761254e612416565b5b828201905092915050565b600060408201905061256f6000830185611fe1565b61257c6020830184611c83565b9392505050565b61258c81611d32565b811461259757600080fd5b50565b6000815190506125a981612583565b92915050565b6000602082840312156125c5576125c4611be4565b5b60006125d38482850161259a565b91505092915050565b600081905092915050565b7f416363657373436f6e74726f6c3a206163636f756e7420000000000000000000600082015250565b600061261d6017836125dc565b9150612628826125e7565b601782019050919050565b600081519050919050565b60005b8381101561265c578082015181840152602081019050612641565b8381111561266b576000848401525b50505050565b600061267c82612633565b61268681856125dc565b935061269681856020860161263e565b80840191505092915050565b7f206973206d697373696e6720726f6c6520000000000000000000000000000000600082015250565b60006126d86011836125dc565b91506126e3826126a2565b601182019050919050565b60006126f982612610565b91506127058285612671565b9150612710826126cb565b915061271c8284612671565b91508190509392505050565b600061273382612633565b61273d8185612072565b935061274d81856020860161263e565b612756816121a1565b840191505092915050565b6000602082019050818103600083015261277b8184612728565b905092915050565b60006060820190506127986000830186611fe1565b6127a56020830185611fe1565b6127b26040830184611c83565b949350505050565b7f4e487b7100000000000000000000000000000000000000000000000000000000600052604160045260246000fd5b7f4e487b7100000000000000000000000000000000000000000000000000000000600052603260045260246000fd5b600061282382611c79565b9150600082141561283757612836612416565b5b600182039050919050565b7f537472696e67733a20686578206c656e67746820696e73756666696369656e74600082015250565b6000612878602083612072565b915061288382612842565b602082019050919050565b600060208201905081810360008301526128a78161286b565b905091905056fea2646970667358221220dc2a3691605d44a7f1f8230aab06c87e78b6025f3a1a636756cb80368122d3ed64736f6c634300080a0033",
  "immutableReferences": {},
  "source": "// SPDX-License-Identifier: MIT\npragma solidity >=0.4.22 <0.9.0;\n\nimport \"@openzeppelin/contracts/utils/math/SafeMath.sol\";\nimport \"@openzeppelin/contracts/token/ERC20/IERC20.sol\";\nimport \"@openzeppelin/contracts/access/Ownable.sol\";\nimport \"@openzeppelin/contracts/access/AccessControl.sol\";\n\ncontract TokenWrapper {\n  using SafeMath for uint256;\n  IERC20 public coin;\n\n  constructor(IERC20 _coinAddress) {\n    coin = IERC20(_coinAddress);\n  }\n\n  uint256 private _totalSupply;\n  mapping(address => uint256) private _balances;\n\n  function totalSupply() public view returns (uint256) {\n    return _totalSupply;\n  }\n\n  function balanceOf(address account) public view returns (uint256) {\n    return _balances[account];\n  }\n\n  function stake(uint256 amount) public virtual {\n    _totalSupply = _totalSupply.add(amount);\n    _balances[msg.sender] = _balances[msg.sender].add(amount);\n    coin.transferFrom(msg.sender, address(this), amount);\n  }\n\n  function unstake(uint256 amount) public virtual {\n    _totalSupply = _totalSupply.sub(amount);\n    _balances[msg.sender] = _balances[msg.sender].sub(amount);\n    coin.transfer(msg.sender, amount);\n  }\n}\n\ncontract MainPool is TokenWrapper, Ownable, AccessControl {\n  using SafeMath for uint256;\n  bytes32 public constant SERVICE_ROLE = keccak256(\"SERVICE_ROLE\");\n\n  // 1 PREC = 0.005 Points/day\n\n  mapping(address => uint256) public lastUpdateTime;\n  mapping(address => uint256) public points;\n\n  uint256 public stakeLimit;\n  uint256 public rateNumerator;\n  uint256 public rateDenominator;\n  uint256 public billingPeriod;\n\n  event Staked(address indexed user, uint256 amount);\n  event Unstaked(address indexed user, uint256 amount);\n  event Rewarded(address indexed user, uint256 points, bytes data);\n  event Consumed(address indexed user, uint256 points, bytes data);\n\n  modifier updateReward(address account) {\n    if (account != address(0)) {\n      points[account] = earned(account);\n      lastUpdateTime[account] = block.timestamp;\n    }\n    _;\n  }\n\n  constructor(IERC20 _coinAddress) TokenWrapper(_coinAddress) {\n    // Grant the contract deployer the default admin role\n    _setupRole(DEFAULT_ADMIN_ROLE, msg.sender);\n\n    // Setup initial formula\n    stakeLimit = 10 * 1e8 * 1e18; // unlimited\n    rateNumerator = 5;            // 0.005 = 5 / 1000\n    rateDenominator = 1000;\n    billingPeriod = 86400;\n  }\n\n  function earned(address account) public view returns (uint256) {\n    // @todo:  profitPerShare \n    uint256 blockTime = block.timestamp;\n    uint256 base = blockTime\n      .sub(lastUpdateTime[account])       //  5 day\n      .mul(1e18)                          //  5e18\n      .div(billingPeriod)                 //  5e18/86400\n      .mul(\n        balanceOf(account).div(1e18));   //  1e18 = ex. 1 PREC\n    \n    return\n      points[account].add(\n        base\n          .mul(rateNumerator)\n          .div(rateDenominator)\n      );\n  }\n\n  function stake(uint256 amount) public override updateReward(msg.sender) {\n    require(amount.add(balanceOf(msg.sender)) <= stakeLimit, \"Stake more than limits\");\n\n    super.stake(amount);\n    emit Staked(msg.sender, amount);\n  }\n\n  function unstake(uint256 amount) public override updateReward(msg.sender) {\n    require(amount > 0, \"Cannot withdraw 0\");\n\n    super.unstake(amount);\n    emit Unstaked(msg.sender, amount);\n  }\n\n  function exit() external {\n    unstake(balanceOf(msg.sender));\n  }\n\n  function alterFormula(\n    uint256 nextStakeLimit,\n    uint256 nextNumerator,\n    uint256 nextDenominator,\n    uint256 nextBillingPeriod // 86400\n  ) public onlyOwner {\n    stakeLimit = nextStakeLimit;\n    rateNumerator = nextNumerator;\n    rateDenominator = nextDenominator;\n    billingPeriod = nextBillingPeriod;\n  }\n\n  function reward(address account, uint256 amount, bytes calldata _data) \n    public updateReward(account) onlyRole(SERVICE_ROLE) {\n      points[account] = points[account].add(amount);\n\n      emit Rewarded(account, amount, _data);\n  }\n\n  function consume(address account, uint256 amount, bytes calldata _data) \n    public updateReward(account) onlyRole(SERVICE_ROLE) {\n      require(points[account] > amount, \"Not enough points\");\n      points[account] = points[account].sub(amount);\n\n      emit Consumed(account, amount, _data);\n  }\n\n  function registerService(address contractAddress) public {\n    grantRole(SERVICE_ROLE, contractAddress);\n  }\n}",
  "sourcePath": "/Users/drgarbage/Documents/02.Projects/crypto-service-starter/contracts/contracts/MainPool.sol",
  "compiler": {
    "name": "solc",
    "version": "0.8.10+commit.fc410830.Emscripten.clang"
  },
  "schemaVersion": "3.3.4",
  "updatedAt": "2021-12-13T15:33:25.903Z",
  "networkType": "ethereum",
  "devdoc": {
    "kind": "dev",
    "methods": {
      "getRoleAdmin(bytes32)": {
        "details": "Returns the admin role that controls `role`. See {grantRole} and {revokeRole}. To change a role's admin, use {_setRoleAdmin}."
      },
      "grantRole(bytes32,address)": {
        "details": "Grants `role` to `account`. If `account` had not been already granted `role`, emits a {RoleGranted} event. Requirements: - the caller must have ``role``'s admin role."
      },
      "hasRole(bytes32,address)": {
        "details": "Returns `true` if `account` has been granted `role`."
      },
      "owner()": {
        "details": "Returns the address of the current owner."
      },
      "renounceOwnership()": {
        "details": "Leaves the contract without owner. It will not be possible to call `onlyOwner` functions anymore. Can only be called by the current owner. NOTE: Renouncing ownership will leave the contract without an owner, thereby removing any functionality that is only available to the owner."
      },
      "renounceRole(bytes32,address)": {
        "details": "Revokes `role` from the calling account. Roles are often managed via {grantRole} and {revokeRole}: this function's purpose is to provide a mechanism for accounts to lose their privileges if they are compromised (such as when a trusted device is misplaced). If the calling account had been revoked `role`, emits a {RoleRevoked} event. Requirements: - the caller must be `account`."
      },
      "revokeRole(bytes32,address)": {
        "details": "Revokes `role` from `account`. If `account` had been granted `role`, emits a {RoleRevoked} event. Requirements: - the caller must have ``role``'s admin role."
      },
      "supportsInterface(bytes4)": {
        "details": "See {IERC165-supportsInterface}."
      },
      "transferOwnership(address)": {
        "details": "Transfers ownership of the contract to a new account (`newOwner`). Can only be called by the current owner."
      }
    },
    "version": 1
  },
  "userdoc": {
    "kind": "user",
    "methods": {},
    "version": 1
  }
}