{
  "contractName": "NftAmazons",
  "abi": [
    {
      "inputs": [],
      "stateMutability": "nonpayable",
      "type": "constructor"
    },
    {
      "anonymous": false,
      "inputs": [
        {
          "indexed": true,
          "internalType": "address",
          "name": "owner",
          "type": "address"
        },
        {
          "indexed": true,
          "internalType": "address",
          "name": "approved",
          "type": "address"
        },
        {
          "indexed": true,
          "internalType": "uint256",
          "name": "tokenId",
          "type": "uint256"
        }
      ],
      "name": "Approval",
      "type": "event"
    },
    {
      "anonymous": false,
      "inputs": [
        {
          "indexed": true,
          "internalType": "address",
          "name": "owner",
          "type": "address"
        },
        {
          "indexed": true,
          "internalType": "address",
          "name": "operator",
          "type": "address"
        },
        {
          "indexed": false,
          "internalType": "bool",
          "name": "approved",
          "type": "bool"
        }
      ],
      "name": "ApprovalForAll",
      "type": "event"
    },
    {
      "anonymous": false,
      "inputs": [
        {
          "indexed": true,
          "internalType": "address",
          "name": "previousOwner",
          "type": "address"
        },
        {
          "indexed": true,
          "internalType": "address",
          "name": "newOwner",
          "type": "address"
        }
      ],
      "name": "OwnershipTransferred",
      "type": "event"
    },
    {
      "anonymous": false,
      "inputs": [
        {
          "indexed": false,
          "internalType": "address",
          "name": "account",
          "type": "address"
        }
      ],
      "name": "Paused",
      "type": "event"
    },
    {
      "anonymous": false,
      "inputs": [
        {
          "indexed": true,
          "internalType": "bytes32",
          "name": "role",
          "type": "bytes32"
        },
        {
          "indexed": true,
          "internalType": "bytes32",
          "name": "previousAdminRole",
          "type": "bytes32"
        },
        {
          "indexed": true,
          "internalType": "bytes32",
          "name": "newAdminRole",
          "type": "bytes32"
        }
      ],
      "name": "RoleAdminChanged",
      "type": "event"
    },
    {
      "anonymous": false,
      "inputs": [
        {
          "indexed": true,
          "internalType": "bytes32",
          "name": "role",
          "type": "bytes32"
        },
        {
          "indexed": true,
          "internalType": "address",
          "name": "account",
          "type": "address"
        },
        {
          "indexed": true,
          "internalType": "address",
          "name": "sender",
          "type": "address"
        }
      ],
      "name": "RoleGranted",
      "type": "event"
    },
    {
      "anonymous": false,
      "inputs": [
        {
          "indexed": true,
          "internalType": "bytes32",
          "name": "role",
          "type": "bytes32"
        },
        {
          "indexed": true,
          "internalType": "address",
          "name": "account",
          "type": "address"
        },
        {
          "indexed": true,
          "internalType": "address",
          "name": "sender",
          "type": "address"
        }
      ],
      "name": "RoleRevoked",
      "type": "event"
    },
    {
      "anonymous": false,
      "inputs": [
        {
          "indexed": true,
          "internalType": "address",
          "name": "from",
          "type": "address"
        },
        {
          "indexed": true,
          "internalType": "address",
          "name": "to",
          "type": "address"
        },
        {
          "indexed": true,
          "internalType": "uint256",
          "name": "tokenId",
          "type": "uint256"
        }
      ],
      "name": "Transfer",
      "type": "event"
    },
    {
      "anonymous": false,
      "inputs": [
        {
          "indexed": false,
          "internalType": "address",
          "name": "account",
          "type": "address"
        }
      ],
      "name": "Unpaused",
      "type": "event"
    },
    {
      "inputs": [],
      "name": "DEFAULT_ADMIN_ROLE",
      "outputs": [
        {
          "internalType": "bytes32",
          "name": "",
          "type": "bytes32"
        }
      ],
      "stateMutability": "view",
      "type": "function",
      "constant": true
    },
    {
      "inputs": [],
      "name": "MINTER_ROLE",
      "outputs": [
        {
          "internalType": "bytes32",
          "name": "",
          "type": "bytes32"
        }
      ],
      "stateMutability": "view",
      "type": "function",
      "constant": true
    },
    {
      "inputs": [
        {
          "internalType": "address",
          "name": "to",
          "type": "address"
        },
        {
          "internalType": "uint256",
          "name": "tokenId",
          "type": "uint256"
        }
      ],
      "name": "approve",
      "outputs": [],
      "stateMutability": "nonpayable",
      "type": "function"
    },
    {
      "inputs": [
        {
          "internalType": "address",
          "name": "owner",
          "type": "address"
        }
      ],
      "name": "balanceOf",
      "outputs": [
        {
          "internalType": "uint256",
          "name": "",
          "type": "uint256"
        }
      ],
      "stateMutability": "view",
      "type": "function",
      "constant": true
    },
    {
      "inputs": [
        {
          "internalType": "address[]",
          "name": "owners",
          "type": "address[]"
        }
      ],
      "name": "batchMint",
      "outputs": [
        {
          "internalType": "uint256",
          "name": "",
          "type": "uint256"
        }
      ],
      "stateMutability": "nonpayable",
      "type": "function"
    },
    {
      "inputs": [
        {
          "internalType": "uint256",
          "name": "tokenId",
          "type": "uint256"
        }
      ],
      "name": "burn",
      "outputs": [],
      "stateMutability": "nonpayable",
      "type": "function"
    },
    {
      "inputs": [
        {
          "internalType": "uint256",
          "name": "tokenId",
          "type": "uint256"
        }
      ],
      "name": "exists",
      "outputs": [
        {
          "internalType": "bool",
          "name": "",
          "type": "bool"
        }
      ],
      "stateMutability": "view",
      "type": "function",
      "constant": true
    },
    {
      "inputs": [
        {
          "internalType": "uint256",
          "name": "tokenId",
          "type": "uint256"
        }
      ],
      "name": "getApproved",
      "outputs": [
        {
          "internalType": "address",
          "name": "",
          "type": "address"
        }
      ],
      "stateMutability": "view",
      "type": "function",
      "constant": true
    },
    {
      "inputs": [
        {
          "internalType": "bytes32",
          "name": "role",
          "type": "bytes32"
        }
      ],
      "name": "getRoleAdmin",
      "outputs": [
        {
          "internalType": "bytes32",
          "name": "",
          "type": "bytes32"
        }
      ],
      "stateMutability": "view",
      "type": "function",
      "constant": true
    },
    {
      "inputs": [
        {
          "internalType": "bytes32",
          "name": "role",
          "type": "bytes32"
        },
        {
          "internalType": "address",
          "name": "account",
          "type": "address"
        }
      ],
      "name": "grantRole",
      "outputs": [],
      "stateMutability": "nonpayable",
      "type": "function"
    },
    {
      "inputs": [
        {
          "internalType": "bytes32",
          "name": "role",
          "type": "bytes32"
        },
        {
          "internalType": "address",
          "name": "account",
          "type": "address"
        }
      ],
      "name": "hasRole",
      "outputs": [
        {
          "internalType": "bool",
          "name": "",
          "type": "bool"
        }
      ],
      "stateMutability": "view",
      "type": "function",
      "constant": true
    },
    {
      "inputs": [
        {
          "internalType": "address",
          "name": "owner",
          "type": "address"
        },
        {
          "internalType": "address",
          "name": "operator",
          "type": "address"
        }
      ],
      "name": "isApprovedForAll",
      "outputs": [
        {
          "internalType": "bool",
          "name": "",
          "type": "bool"
        }
      ],
      "stateMutability": "view",
      "type": "function",
      "constant": true
    },
    {
      "inputs": [
        {
          "internalType": "address",
          "name": "owner",
          "type": "address"
        }
      ],
      "name": "mint",
      "outputs": [
        {
          "internalType": "uint256",
          "name": "",
          "type": "uint256"
        }
      ],
      "stateMutability": "nonpayable",
      "type": "function"
    },
    {
      "inputs": [],
      "name": "name",
      "outputs": [
        {
          "internalType": "string",
          "name": "",
          "type": "string"
        }
      ],
      "stateMutability": "view",
      "type": "function",
      "constant": true
    },
    {
      "inputs": [],
      "name": "owner",
      "outputs": [
        {
          "internalType": "address",
          "name": "",
          "type": "address"
        }
      ],
      "stateMutability": "view",
      "type": "function",
      "constant": true
    },
    {
      "inputs": [
        {
          "internalType": "uint256",
          "name": "tokenId",
          "type": "uint256"
        }
      ],
      "name": "ownerOf",
      "outputs": [
        {
          "internalType": "address",
          "name": "",
          "type": "address"
        }
      ],
      "stateMutability": "view",
      "type": "function",
      "constant": true
    },
    {
      "inputs": [],
      "name": "paused",
      "outputs": [
        {
          "internalType": "bool",
          "name": "",
          "type": "bool"
        }
      ],
      "stateMutability": "view",
      "type": "function",
      "constant": true
    },
    {
      "inputs": [],
      "name": "renounceOwnership",
      "outputs": [],
      "stateMutability": "nonpayable",
      "type": "function"
    },
    {
      "inputs": [
        {
          "internalType": "bytes32",
          "name": "role",
          "type": "bytes32"
        },
        {
          "internalType": "address",
          "name": "account",
          "type": "address"
        }
      ],
      "name": "renounceRole",
      "outputs": [],
      "stateMutability": "nonpayable",
      "type": "function"
    },
    {
      "inputs": [
        {
          "internalType": "bytes32",
          "name": "role",
          "type": "bytes32"
        },
        {
          "internalType": "address",
          "name": "account",
          "type": "address"
        }
      ],
      "name": "revokeRole",
      "outputs": [],
      "stateMutability": "nonpayable",
      "type": "function"
    },
    {
      "inputs": [
        {
          "internalType": "address",
          "name": "from",
          "type": "address"
        },
        {
          "internalType": "address",
          "name": "to",
          "type": "address"
        },
        {
          "internalType": "uint256",
          "name": "tokenId",
          "type": "uint256"
        }
      ],
      "name": "safeTransferFrom",
      "outputs": [],
      "stateMutability": "nonpayable",
      "type": "function"
    },
    {
      "inputs": [
        {
          "internalType": "address",
          "name": "from",
          "type": "address"
        },
        {
          "internalType": "address",
          "name": "to",
          "type": "address"
        },
        {
          "internalType": "uint256",
          "name": "tokenId",
          "type": "uint256"
        },
        {
          "internalType": "bytes",
          "name": "_data",
          "type": "bytes"
        }
      ],
      "name": "safeTransferFrom",
      "outputs": [],
      "stateMutability": "nonpayable",
      "type": "function"
    },
    {
      "inputs": [
        {
          "internalType": "address",
          "name": "operator",
          "type": "address"
        },
        {
          "internalType": "bool",
          "name": "approved",
          "type": "bool"
        }
      ],
      "name": "setApprovalForAll",
      "outputs": [],
      "stateMutability": "nonpayable",
      "type": "function"
    },
    {
      "inputs": [
        {
          "internalType": "string",
          "name": "baseURI",
          "type": "string"
        }
      ],
      "name": "setBaseURI",
      "outputs": [],
      "stateMutability": "nonpayable",
      "type": "function"
    },
    {
      "inputs": [
        {
          "internalType": "bytes4",
          "name": "interfaceId",
          "type": "bytes4"
        }
      ],
      "name": "supportsInterface",
      "outputs": [
        {
          "internalType": "bool",
          "name": "",
          "type": "bool"
        }
      ],
      "stateMutability": "view",
      "type": "function",
      "constant": true
    },
    {
      "inputs": [],
      "name": "symbol",
      "outputs": [
        {
          "internalType": "string",
          "name": "",
          "type": "string"
        }
      ],
      "stateMutability": "view",
      "type": "function",
      "constant": true
    },
    {
      "inputs": [
        {
          "internalType": "uint256",
          "name": "index",
          "type": "uint256"
        }
      ],
      "name": "tokenByIndex",
      "outputs": [
        {
          "internalType": "uint256",
          "name": "",
          "type": "uint256"
        }
      ],
      "stateMutability": "view",
      "type": "function",
      "constant": true
    },
    {
      "inputs": [
        {
          "internalType": "address",
          "name": "owner",
          "type": "address"
        },
        {
          "internalType": "uint256",
          "name": "index",
          "type": "uint256"
        }
      ],
      "name": "tokenOfOwnerByIndex",
      "outputs": [
        {
          "internalType": "uint256",
          "name": "",
          "type": "uint256"
        }
      ],
      "stateMutability": "view",
      "type": "function",
      "constant": true
    },
    {
      "inputs": [
        {
          "internalType": "uint256",
          "name": "tokenId",
          "type": "uint256"
        }
      ],
      "name": "tokenURI",
      "outputs": [
        {
          "internalType": "string",
          "name": "",
          "type": "string"
        }
      ],
      "stateMutability": "view",
      "type": "function",
      "constant": true
    },
    {
      "inputs": [],
      "name": "totalSupply",
      "outputs": [
        {
          "internalType": "uint256",
          "name": "",
          "type": "uint256"
        }
      ],
      "stateMutability": "view",
      "type": "function",
      "constant": true
    },
    {
      "inputs": [
        {
          "internalType": "address",
          "name": "from",
          "type": "address"
        },
        {
          "internalType": "address",
          "name": "to",
          "type": "address"
        },
        {
          "internalType": "uint256",
          "name": "tokenId",
          "type": "uint256"
        }
      ],
      "name": "transferFrom",
      "outputs": [],
      "stateMutability": "nonpayable",
      "type": "function"
    },
    {
      "inputs": [
        {
          "internalType": "address",
          "name": "newOwner",
          "type": "address"
        }
      ],
      "name": "transferOwnership",
      "outputs": [],
      "stateMutability": "nonpayable",
      "type": "function"
    }
  ],
  "bytecode": "0x60806040523480156200001157600080fd5b506040518060400160405280600781526020017f416d617a6f6e73000000000000000000000000000000000000000000000000008152506040518060400160405280600381526020017f414d5a00000000000000000000000000000000000000000000000000000000008152506040518060200160405280600081525082828160009080519060200190620000a8929190620003b1565b508060019080519060200190620000c1929190620003b1565b5050506000600660006101000a81548160ff021916908315150217905550620000ff620000f36200017060201b60201c565b6200017860201b60201c565b80600d908051906020019062000117929190620003b1565b506000600e81905550620001356000801b336200023e60201b60201c565b620001677f9f2df0fed2c77648de5860a4cc508cd0818c85b8b8a1ab4ceeef8d981c8956a6336200023e60201b60201c565b505050620004c6565b600033905090565b6000600b60009054906101000a900473ffffffffffffffffffffffffffffffffffffffff16905081600b60006101000a81548173ffffffffffffffffffffffffffffffffffffffff021916908373ffffffffffffffffffffffffffffffffffffffff1602179055508173ffffffffffffffffffffffffffffffffffffffff168173ffffffffffffffffffffffffffffffffffffffff167f8be0079c531659141344cd1fd0a4f28419497f9722a3daafe3b4186f6b6457e060405160405180910390a35050565b6200025082826200025460201b60201c565b5050565b6200026682826200034660201b60201c565b62000342576001600c600084815260200190815260200160002060000160008373ffffffffffffffffffffffffffffffffffffffff1673ffffffffffffffffffffffffffffffffffffffff16815260200190815260200160002060006101000a81548160ff021916908315150217905550620002e76200017060201b60201c565b73ffffffffffffffffffffffffffffffffffffffff168173ffffffffffffffffffffffffffffffffffffffff16837f2f8788117e7eff1d82e926ec794901d17c78024a50270940304540a733656f0d60405160405180910390a45b5050565b6000600c600084815260200190815260200160002060000160008373ffffffffffffffffffffffffffffffffffffffff1673ffffffffffffffffffffffffffffffffffffffff16815260200190815260200160002060009054906101000a900460ff16905092915050565b828054620003bf9062000490565b90600052602060002090601f016020900481019282620003e357600085556200042f565b82601f10620003fe57805160ff19168380011785556200042f565b828001600101855582156200042f579182015b828111156200042e57825182559160200191906001019062000411565b5b5090506200043e919062000442565b5090565b5b808211156200045d57600081600090555060010162000443565b5090565b7f4e487b7100000000000000000000000000000000000000000000000000000000600052602260045260246000fd5b60006002820490506001821680620004a957607f821691505b60208210811415620004c057620004bf62000461565b5b50919050565b6147ac80620004d66000396000f3fe608060405234801561001057600080fd5b50600436106101f05760003560e01c80636352211e1161010f578063a22cb465116100a2578063d547741f11610071578063d547741f146105dd578063d67b06c1146105f9578063e985e9c514610629578063f2fde38b14610659576101f0565b8063a22cb46514610557578063b88d4fde14610573578063c87b56dd1461058f578063d5391393146105bf576101f0565b80638da5cb5b116100de5780638da5cb5b146104cd57806391d14854146104eb57806395d89b411461051b578063a217fddf14610539576101f0565b80636352211e146104335780636a6278421461046357806370a0823114610493578063715018a6146104c3576101f0565b80632f745c59116101875780634f558e79116101565780634f558e79146103995780634f6ccce7146103c957806355f804b3146103f95780635c975abb14610415576101f0565b80632f745c591461031557806336568abe1461034557806342842e0e1461036157806342966c681461037d576101f0565b806318160ddd116101c357806318160ddd1461028f57806323b872dd146102ad578063248a9ca3146102c95780632f2ff15d146102f9576101f0565b806301ffc9a7146101f557806306fdde0314610225578063081812fc14610243578063095ea7b314610273575b600080fd5b61020f600480360381019061020a9190612e9e565b610675565b60405161021c9190612ee6565b60405180910390f35b61022d6107bf565b60405161023a9190612f9a565b60405180910390f35b61025d60048036038101906102589190612ff2565b610851565b60405161026a9190613060565b60405180910390f35b61028d600480360381019061028891906130a7565b6108d6565b005b6102976109ee565b6040516102a491906130f6565b60405180910390f35b6102c760048036038101906102c29190613111565b6109fb565b005b6102e360048036038101906102de919061319a565b610a5b565b6040516102f091906131d6565b60405180910390f35b610313600480360381019061030e91906131f1565b610a7b565b005b61032f600480360381019061032a91906130a7565b610aa4565b60405161033c91906130f6565b60405180910390f35b61035f600480360381019061035a91906131f1565b610b49565b005b61037b60048036038101906103769190613111565b610bcc565b005b61039760048036038101906103929190612ff2565b610bec565b005b6103b360048036038101906103ae9190612ff2565b610c48565b6040516103c09190612ee6565b60405180910390f35b6103e360048036038101906103de9190612ff2565b610c5a565b6040516103f091906130f6565b60405180910390f35b610413600480360381019061040e9190613366565b610ccb565b005b61041d610d61565b60405161042a9190612ee6565b60405180910390f35b61044d60048036038101906104489190612ff2565b610d78565b60405161045a9190613060565b60405180910390f35b61047d600480360381019061047891906133af565b610e2a565b60405161048a91906130f6565b60405180910390f35b6104ad60048036038101906104a891906133af565b610e8c565b6040516104ba91906130f6565b60405180910390f35b6104cb610f44565b005b6104d5610fcc565b6040516104e29190613060565b60405180910390f35b610505600480360381019061050091906131f1565b610ff6565b6040516105129190612ee6565b60405180910390f35b610523611061565b6040516105309190612f9a565b60405180910390f35b6105416110f3565b60405161054e91906131d6565b60405180910390f35b610571600480360381019061056c9190613408565b6110fa565b005b61058d600480360381019061058891906134e9565b611110565b005b6105a960048036038101906105a49190612ff2565b611172565b6040516105b69190612f9a565b60405180910390f35b6105c7611219565b6040516105d491906131d6565b60405180910390f35b6105f760048036038101906105f291906131f1565b61123d565b005b610613600480360381019061060e9190613634565b611266565b60405161062091906130f6565b60405180910390f35b610643600480360381019061063e919061367d565b61133d565b6040516106509190612ee6565b60405180910390f35b610673600480360381019061066e91906133af565b6113d1565b005b60007f80ac58cd000000000000000000000000000000000000000000000000000000007bffffffffffffffffffffffffffffffffffffffffffffffffffffffff1916827bffffffffffffffffffffffffffffffffffffffffffffffffffffffff1916148061074057507f5b5e139f000000000000000000000000000000000000000000000000000000007bffffffffffffffffffffffffffffffffffffffffffffffffffffffff1916827bffffffffffffffffffffffffffffffffffffffffffffffffffffffff1916145b806107a857507f7965db0b000000000000000000000000000000000000000000000000000000007bffffffffffffffffffffffffffffffffffffffffffffffffffffffff1916827bffffffffffffffffffffffffffffffffffffffffffffffffffffffff1916145b806107b857506107b7826114c9565b5b9050919050565b6060600080546107ce906136ec565b80601f01602080910402602001604051908101604052809291908181526020018280546107fa906136ec565b80156108475780601f1061081c57610100808354040283529160200191610847565b820191906000526020600020905b81548152906001019060200180831161082a57829003601f168201915b5050505050905090565b600061085c82611543565b61089b576040517f08c379a000000000000000000000000000000000000000000000000000000000815260040161089290613790565b60405180910390fd5b6004600083815260200190815260200160002060009054906101000a900473ffffffffffffffffffffffffffffffffffffffff169050919050565b60006108e182610d78565b90508073ffffffffffffffffffffffffffffffffffffffff168373ffffffffffffffffffffffffffffffffffffffff161415610952576040517f08c379a000000000000000000000000000000000000000000000000000000000815260040161094990613822565b60405180910390fd5b8073ffffffffffffffffffffffffffffffffffffffff166109716115af565b73ffffffffffffffffffffffffffffffffffffffff1614806109a0575061099f8161099a6115af565b61133d565b5b6109df576040517f08c379a00000000000000000000000000000000000000000000000000000000081526004016109d6906138b4565b60405180910390fd5b6109e983836115b7565b505050565b6000600980549050905090565b610a0c610a066115af565b82611670565b610a4b576040517f08c379a0000000000000000000000000000000000000000000000000000000008152600401610a4290613946565b60405180910390fd5b610a5683838361174e565b505050565b6000600c6000838152602001908152602001600020600101549050919050565b610a8482610a5b565b610a9581610a906115af565b6119aa565b610a9f8383611a47565b505050565b6000610aaf83610e8c565b8210610af0576040517f08c379a0000000000000000000000000000000000000000000000000000000008152600401610ae7906139d8565b60405180910390fd5b600760008473ffffffffffffffffffffffffffffffffffffffff1673ffffffffffffffffffffffffffffffffffffffff168152602001908152602001600020600083815260200190815260200160002054905092915050565b610b516115af565b73ffffffffffffffffffffffffffffffffffffffff168173ffffffffffffffffffffffffffffffffffffffff1614610bbe576040517f08c379a0000000000000000000000000000000000000000000000000000000008152600401610bb590613a6a565b60405180910390fd5b610bc88282611b28565b5050565b610be783838360405180602001604052806000815250611110565b505050565b610bfd610bf76115af565b82611670565b610c3c576040517f08c379a0000000000000000000000000000000000000000000000000000000008152600401610c3390613afc565b60405180910390fd5b610c4581611c0a565b50565b6000610c5382611543565b9050919050565b6000610c646109ee565b8210610ca5576040517f08c379a0000000000000000000000000000000000000000000000000000000008152600401610c9c90613b8e565b60405180910390fd5b60098281548110610cb957610cb8613bae565b5b90600052602060002001549050919050565b610cd36115af565b73ffffffffffffffffffffffffffffffffffffffff16610cf1610fcc565b73ffffffffffffffffffffffffffffffffffffffff1614610d47576040517f08c379a0000000000000000000000000000000000000000000000000000000008152600401610d3e90613c29565b60405180910390fd5b80600d9080519060200190610d5d929190612d8f565b5050565b6000600660009054906101000a900460ff16905090565b6000806002600084815260200190815260200160002060009054906101000a900473ffffffffffffffffffffffffffffffffffffffff169050600073ffffffffffffffffffffffffffffffffffffffff168173ffffffffffffffffffffffffffffffffffffffff161415610e21576040517f08c379a0000000000000000000000000000000000000000000000000000000008152600401610e1890613cbb565b60405180910390fd5b80915050919050565b60007f9f2df0fed2c77648de5860a4cc508cd0818c85b8b8a1ab4ceeef8d981c8956a6610e5e81610e596115af565b6119aa565b60006001600e54610e6f9190613d0a565b9050610e7b8482611d1b565b80600e819055508092505050919050565b60008073ffffffffffffffffffffffffffffffffffffffff168273ffffffffffffffffffffffffffffffffffffffff161415610efd576040517f08c379a0000000000000000000000000000000000000000000000000000000008152600401610ef490613dd2565b60405180910390fd5b600360008373ffffffffffffffffffffffffffffffffffffffff1673ffffffffffffffffffffffffffffffffffffffff168152602001908152602001600020549050919050565b610f4c6115af565b73ffffffffffffffffffffffffffffffffffffffff16610f6a610fcc565b73ffffffffffffffffffffffffffffffffffffffff1614610fc0576040517f08c379a0000000000000000000000000000000000000000000000000000000008152600401610fb790613c29565b60405180910390fd5b610fca6000611ee9565b565b6000600b60009054906101000a900473ffffffffffffffffffffffffffffffffffffffff16905090565b6000600c600084815260200190815260200160002060000160008373ffffffffffffffffffffffffffffffffffffffff1673ffffffffffffffffffffffffffffffffffffffff16815260200190815260200160002060009054906101000a900460ff16905092915050565b606060018054611070906136ec565b80601f016020809104026020016040519081016040528092919081815260200182805461109c906136ec565b80156110e95780601f106110be576101008083540402835291602001916110e9565b820191906000526020600020905b8154815290600101906020018083116110cc57829003601f168201915b5050505050905090565b6000801b81565b61110c6111056115af565b8383611faf565b5050565b61112161111b6115af565b83611670565b611160576040517f08c379a000000000000000000000000000000000000000000000000000000000815260040161115790613946565b60405180910390fd5b61116c8484848461211c565b50505050565b606061117d82611543565b6111bc576040517f08c379a00000000000000000000000000000000000000000000000000000000081526004016111b390613e64565b60405180910390fd5b60006111c6612178565b905060008151116111e65760405180602001604052806000815250611211565b806111f08461220a565b604051602001611201929190613ec0565b6040516020818303038152906040525b915050919050565b7f9f2df0fed2c77648de5860a4cc508cd0818c85b8b8a1ab4ceeef8d981c8956a681565b61124682610a5b565b611257816112526115af565b6119aa565b6112618383611b28565b505050565b60007f9f2df0fed2c77648de5860a4cc508cd0818c85b8b8a1ab4ceeef8d981c8956a661129a816112956115af565b6119aa565b60006001600e546112ab9190613d0a565b905060005b84518110156113075760008582815181106112ce576112cd613bae565b5b60200260200101519050600082846112e69190613d0a565b90506112f28282611d1b565b505080806112ff90613ee4565b9150506112b0565b5060018451826113179190613d0a565b6113219190613f2d565b600e819055508351816113349190613d0a565b92505050919050565b6000600560008473ffffffffffffffffffffffffffffffffffffffff1673ffffffffffffffffffffffffffffffffffffffff16815260200190815260200160002060008373ffffffffffffffffffffffffffffffffffffffff1673ffffffffffffffffffffffffffffffffffffffff16815260200190815260200160002060009054906101000a900460ff16905092915050565b6113d96115af565b73ffffffffffffffffffffffffffffffffffffffff166113f7610fcc565b73ffffffffffffffffffffffffffffffffffffffff161461144d576040517f08c379a000000000000000000000000000000000000000000000000000000000815260040161144490613c29565b60405180910390fd5b600073ffffffffffffffffffffffffffffffffffffffff168173ffffffffffffffffffffffffffffffffffffffff1614156114bd576040517f08c379a00000000000000000000000000000000000000000000000000000000081526004016114b490613fd3565b60405180910390fd5b6114c681611ee9565b50565b60007f7965db0b000000000000000000000000000000000000000000000000000000007bffffffffffffffffffffffffffffffffffffffffffffffffffffffff1916827bffffffffffffffffffffffffffffffffffffffffffffffffffffffff1916148061153c575061153b8261236b565b5b9050919050565b60008073ffffffffffffffffffffffffffffffffffffffff166002600084815260200190815260200160002060009054906101000a900473ffffffffffffffffffffffffffffffffffffffff1673ffffffffffffffffffffffffffffffffffffffff1614159050919050565b600033905090565b816004600083815260200190815260200160002060006101000a81548173ffffffffffffffffffffffffffffffffffffffff021916908373ffffffffffffffffffffffffffffffffffffffff160217905550808273ffffffffffffffffffffffffffffffffffffffff1661162a83610d78565b73ffffffffffffffffffffffffffffffffffffffff167f8c5be1e5ebec7d5bd14f71427d1e84f3dd0314c0f7b2291e5b200ac8c7c3b92560405160405180910390a45050565b600061167b82611543565b6116ba576040517f08c379a00000000000000000000000000000000000000000000000000000000081526004016116b190614065565b60405180910390fd5b60006116c583610d78565b90508073ffffffffffffffffffffffffffffffffffffffff168473ffffffffffffffffffffffffffffffffffffffff16148061173457508373ffffffffffffffffffffffffffffffffffffffff1661171c84610851565b73ffffffffffffffffffffffffffffffffffffffff16145b806117455750611744818561133d565b5b91505092915050565b8273ffffffffffffffffffffffffffffffffffffffff1661176e82610d78565b73ffffffffffffffffffffffffffffffffffffffff16146117c4576040517f08c379a00000000000000000000000000000000000000000000000000000000081526004016117bb906140f7565b60405180910390fd5b600073ffffffffffffffffffffffffffffffffffffffff168273ffffffffffffffffffffffffffffffffffffffff161415611834576040517f08c379a000000000000000000000000000000000000000000000000000000000815260040161182b90614189565b60405180910390fd5b61183f8383836123e5565b61184a6000826115b7565b6001600360008573ffffffffffffffffffffffffffffffffffffffff1673ffffffffffffffffffffffffffffffffffffffff168152602001908152602001600020600082825461189a9190613f2d565b925050819055506001600360008473ffffffffffffffffffffffffffffffffffffffff1673ffffffffffffffffffffffffffffffffffffffff16815260200190815260200160002060008282546118f19190613d0a565b92505081905550816002600083815260200190815260200160002060006101000a81548173ffffffffffffffffffffffffffffffffffffffff021916908373ffffffffffffffffffffffffffffffffffffffff160217905550808273ffffffffffffffffffffffffffffffffffffffff168473ffffffffffffffffffffffffffffffffffffffff167fddf252ad1be2c89b69c2b068fc378daa952ba7f163c4a11628f55a4df523b3ef60405160405180910390a4505050565b6119b48282610ff6565b611a43576119d98173ffffffffffffffffffffffffffffffffffffffff1660146123f5565b6119e78360001c60206123f5565b6040516020016119f8929190614241565b6040516020818303038152906040526040517f08c379a0000000000000000000000000000000000000000000000000000000008152600401611a3a9190612f9a565b60405180910390fd5b5050565b611a518282610ff6565b611b24576001600c600084815260200190815260200160002060000160008373ffffffffffffffffffffffffffffffffffffffff1673ffffffffffffffffffffffffffffffffffffffff16815260200190815260200160002060006101000a81548160ff021916908315150217905550611ac96115af565b73ffffffffffffffffffffffffffffffffffffffff168173ffffffffffffffffffffffffffffffffffffffff16837f2f8788117e7eff1d82e926ec794901d17c78024a50270940304540a733656f0d60405160405180910390a45b5050565b611b328282610ff6565b15611c06576000600c600084815260200190815260200160002060000160008373ffffffffffffffffffffffffffffffffffffffff1673ffffffffffffffffffffffffffffffffffffffff16815260200190815260200160002060006101000a81548160ff021916908315150217905550611bab6115af565b73ffffffffffffffffffffffffffffffffffffffff168173ffffffffffffffffffffffffffffffffffffffff16837ff6391f5c32d9c69d2a47ea670b442974b53935d1edc7fd64eb21e047a839171b60405160405180910390a45b5050565b6000611c1582610d78565b9050611c23816000846123e5565b611c2e6000836115b7565b6001600360008373ffffffffffffffffffffffffffffffffffffffff1673ffffffffffffffffffffffffffffffffffffffff1681526020019081526020016000206000828254611c7e9190613f2d565b925050819055506002600083815260200190815260200160002060006101000a81549073ffffffffffffffffffffffffffffffffffffffff021916905581600073ffffffffffffffffffffffffffffffffffffffff168273ffffffffffffffffffffffffffffffffffffffff167fddf252ad1be2c89b69c2b068fc378daa952ba7f163c4a11628f55a4df523b3ef60405160405180910390a45050565b600073ffffffffffffffffffffffffffffffffffffffff168273ffffffffffffffffffffffffffffffffffffffff161415611d8b576040517f08c379a0000000000000000000000000000000000000000000000000000000008152600401611d82906142c7565b60405180910390fd5b611d9481611543565b15611dd4576040517f08c379a0000000000000000000000000000000000000000000000000000000008152600401611dcb90614333565b60405180910390fd5b611de0600083836123e5565b6001600360008473ffffffffffffffffffffffffffffffffffffffff1673ffffffffffffffffffffffffffffffffffffffff1681526020019081526020016000206000828254611e309190613d0a565b92505081905550816002600083815260200190815260200160002060006101000a81548173ffffffffffffffffffffffffffffffffffffffff021916908373ffffffffffffffffffffffffffffffffffffffff160217905550808273ffffffffffffffffffffffffffffffffffffffff16600073ffffffffffffffffffffffffffffffffffffffff167fddf252ad1be2c89b69c2b068fc378daa952ba7f163c4a11628f55a4df523b3ef60405160405180910390a45050565b6000600b60009054906101000a900473ffffffffffffffffffffffffffffffffffffffff16905081600b60006101000a81548173ffffffffffffffffffffffffffffffffffffffff021916908373ffffffffffffffffffffffffffffffffffffffff1602179055508173ffffffffffffffffffffffffffffffffffffffff168173ffffffffffffffffffffffffffffffffffffffff167f8be0079c531659141344cd1fd0a4f28419497f9722a3daafe3b4186f6b6457e060405160405180910390a35050565b8173ffffffffffffffffffffffffffffffffffffffff168373ffffffffffffffffffffffffffffffffffffffff16141561201e576040517f08c379a00000000000000000000000000000000000000000000000000000000081526004016120159061439f565b60405180910390fd5b80600560008573ffffffffffffffffffffffffffffffffffffffff1673ffffffffffffffffffffffffffffffffffffffff16815260200190815260200160002060008473ffffffffffffffffffffffffffffffffffffffff1673ffffffffffffffffffffffffffffffffffffffff16815260200190815260200160002060006101000a81548160ff0219169083151502179055508173ffffffffffffffffffffffffffffffffffffffff168373ffffffffffffffffffffffffffffffffffffffff167f17307eab39ab6107e8899845ad3d59bd9653f200f220920489ca2b5937696c318360405161210f9190612ee6565b60405180910390a3505050565b61212784848461174e565b61213384848484612631565b612172576040517f08c379a000000000000000000000000000000000000000000000000000000000815260040161216990614431565b60405180910390fd5b50505050565b6060600d8054612187906136ec565b80601f01602080910402602001604051908101604052809291908181526020018280546121b3906136ec565b80156122005780601f106121d557610100808354040283529160200191612200565b820191906000526020600020905b8154815290600101906020018083116121e357829003601f168201915b5050505050905090565b60606000821415612252576040518060400160405280600181526020017f30000000000000000000000000000000000000000000000000000000000000008152509050612366565b600082905060005b6000821461228457808061226d90613ee4565b915050600a8261227d9190614480565b915061225a565b60008167ffffffffffffffff8111156122a05761229f61323b565b5b6040519080825280601f01601f1916602001820160405280156122d25781602001600182028036833780820191505090505b5090505b6000851461235f576001826122eb9190613f2d565b9150600a856122fa91906144b1565b60306123069190613d0a565b60f81b81838151811061231c5761231b613bae565b5b60200101907effffffffffffffffffffffffffffffffffffffffffffffffffffffffffffff1916908160001a905350600a856123589190614480565b94506122d6565b8093505050505b919050565b60007f780e9d63000000000000000000000000000000000000000000000000000000007bffffffffffffffffffffffffffffffffffffffffffffffffffffffff1916827bffffffffffffffffffffffffffffffffffffffffffffffffffffffff191614806123de57506123dd826127b9565b5b9050919050565b6123f083838361289b565b505050565b60606000600283600261240891906144e2565b6124129190613d0a565b67ffffffffffffffff81111561242b5761242a61323b565b5b6040519080825280601f01601f19166020018201604052801561245d5781602001600182028036833780820191505090505b5090507f30000000000000000000000000000000000000000000000000000000000000008160008151811061249557612494613bae565b5b60200101907effffffffffffffffffffffffffffffffffffffffffffffffffffffffffffff1916908160001a9053507f7800000000000000000000000000000000000000000000000000000000000000816001815181106124f9576124f8613bae565b5b60200101907effffffffffffffffffffffffffffffffffffffffffffffffffffffffffffff1916908160001a9053506000600184600261253991906144e2565b6125439190613d0a565b90505b60018111156125e3577f3031323334353637383961626364656600000000000000000000000000000000600f86166010811061258557612584613bae565b5b1a60f81b82828151811061259c5761259b613bae565b5b60200101907effffffffffffffffffffffffffffffffffffffffffffffffffffffffffffff1916908160001a905350600485901c9450806125dc9061453c565b9050612546565b5060008414612627576040517f08c379a000000000000000000000000000000000000000000000000000000000815260040161261e906145b2565b60405180910390fd5b8091505092915050565b60006126528473ffffffffffffffffffffffffffffffffffffffff166129af565b156127ac578373ffffffffffffffffffffffffffffffffffffffff1663150b7a0261267b6115af565b8786866040518563ffffffff1660e01b815260040161269d9493929190614627565b6020604051808303816000875af19250505080156126d957506040513d601f19601f820116820180604052508101906126d69190614688565b60015b61275c573d8060008114612709576040519150601f19603f3d011682016040523d82523d6000602084013e61270e565b606091505b50600081511415612754576040517f08c379a000000000000000000000000000000000000000000000000000000000815260040161274b90614431565b60405180910390fd5b805181602001fd5b63150b7a0260e01b7bffffffffffffffffffffffffffffffffffffffffffffffffffffffff1916817bffffffffffffffffffffffffffffffffffffffffffffffffffffffff1916149150506127b1565b600190505b949350505050565b60007f80ac58cd000000000000000000000000000000000000000000000000000000007bffffffffffffffffffffffffffffffffffffffffffffffffffffffff1916827bffffffffffffffffffffffffffffffffffffffffffffffffffffffff1916148061288457507f5b5e139f000000000000000000000000000000000000000000000000000000007bffffffffffffffffffffffffffffffffffffffffffffffffffffffff1916827bffffffffffffffffffffffffffffffffffffffffffffffffffffffff1916145b806128945750612893826129c2565b5b9050919050565b6128a6838383612a2c565b600073ffffffffffffffffffffffffffffffffffffffff168373ffffffffffffffffffffffffffffffffffffffff1614156128e9576128e481612a84565b612928565b8173ffffffffffffffffffffffffffffffffffffffff168373ffffffffffffffffffffffffffffffffffffffff1614612927576129268382612acd565b5b5b600073ffffffffffffffffffffffffffffffffffffffff168273ffffffffffffffffffffffffffffffffffffffff16141561296b5761296681612c3a565b6129aa565b8273ffffffffffffffffffffffffffffffffffffffff168273ffffffffffffffffffffffffffffffffffffffff16146129a9576129a88282612d0b565b5b5b505050565b600080823b905060008111915050919050565b60007f01ffc9a7000000000000000000000000000000000000000000000000000000007bffffffffffffffffffffffffffffffffffffffffffffffffffffffff1916827bffffffffffffffffffffffffffffffffffffffffffffffffffffffff1916149050919050565b612a37838383612d8a565b612a3f610d61565b15612a7f576040517f08c379a0000000000000000000000000000000000000000000000000000000008152600401612a7690614727565b60405180910390fd5b505050565b600980549050600a600083815260200190815260200160002081905550600981908060018154018082558091505060019003906000526020600020016000909190919091505550565b60006001612ada84610e8c565b612ae49190613f2d565b9050600060086000848152602001908152602001600020549050818114612bc9576000600760008673ffffffffffffffffffffffffffffffffffffffff1673ffffffffffffffffffffffffffffffffffffffff168152602001908152602001600020600084815260200190815260200160002054905080600760008773ffffffffffffffffffffffffffffffffffffffff1673ffffffffffffffffffffffffffffffffffffffff168152602001908152602001600020600084815260200190815260200160002081905550816008600083815260200190815260200160002081905550505b6008600084815260200190815260200160002060009055600760008573ffffffffffffffffffffffffffffffffffffffff1673ffffffffffffffffffffffffffffffffffffffff16815260200190815260200160002060008381526020019081526020016000206000905550505050565b60006001600980549050612c4e9190613f2d565b90506000600a6000848152602001908152602001600020549050600060098381548110612c7e57612c7d613bae565b5b906000526020600020015490508060098381548110612ca057612c9f613bae565b5b906000526020600020018190555081600a600083815260200190815260200160002081905550600a6000858152602001908152602001600020600090556009805480612cef57612cee614747565b5b6001900381819060005260206000200160009055905550505050565b6000612d1683610e8c565b905081600760008573ffffffffffffffffffffffffffffffffffffffff1673ffffffffffffffffffffffffffffffffffffffff168152602001908152602001600020600083815260200190815260200160002081905550806008600084815260200190815260200160002081905550505050565b505050565b828054612d9b906136ec565b90600052602060002090601f016020900481019282612dbd5760008555612e04565b82601f10612dd657805160ff1916838001178555612e04565b82800160010185558215612e04579182015b82811115612e03578251825591602001919060010190612de8565b5b509050612e119190612e15565b5090565b5b80821115612e2e576000816000905550600101612e16565b5090565b6000604051905090565b600080fd5b600080fd5b60007fffffffff0000000000000000000000000000000000000000000000000000000082169050919050565b612e7b81612e46565b8114612e8657600080fd5b50565b600081359050612e9881612e72565b92915050565b600060208284031215612eb457612eb3612e3c565b5b6000612ec284828501612e89565b91505092915050565b60008115159050919050565b612ee081612ecb565b82525050565b6000602082019050612efb6000830184612ed7565b92915050565b600081519050919050565b600082825260208201905092915050565b60005b83811015612f3b578082015181840152602081019050612f20565b83811115612f4a576000848401525b50505050565b6000601f19601f8301169050919050565b6000612f6c82612f01565b612f768185612f0c565b9350612f86818560208601612f1d565b612f8f81612f50565b840191505092915050565b60006020820190508181036000830152612fb48184612f61565b905092915050565b6000819050919050565b612fcf81612fbc565b8114612fda57600080fd5b50565b600081359050612fec81612fc6565b92915050565b60006020828403121561300857613007612e3c565b5b600061301684828501612fdd565b91505092915050565b600073ffffffffffffffffffffffffffffffffffffffff82169050919050565b600061304a8261301f565b9050919050565b61305a8161303f565b82525050565b60006020820190506130756000830184613051565b92915050565b6130848161303f565b811461308f57600080fd5b50565b6000813590506130a18161307b565b92915050565b600080604083850312156130be576130bd612e3c565b5b60006130cc85828601613092565b92505060206130dd85828601612fdd565b9150509250929050565b6130f081612fbc565b82525050565b600060208201905061310b60008301846130e7565b92915050565b60008060006060848603121561312a57613129612e3c565b5b600061313886828701613092565b935050602061314986828701613092565b925050604061315a86828701612fdd565b9150509250925092565b6000819050919050565b61317781613164565b811461318257600080fd5b50565b6000813590506131948161316e565b92915050565b6000602082840312156131b0576131af612e3c565b5b60006131be84828501613185565b91505092915050565b6131d081613164565b82525050565b60006020820190506131eb60008301846131c7565b92915050565b6000806040838503121561320857613207612e3c565b5b600061321685828601613185565b925050602061322785828601613092565b9150509250929050565b600080fd5b600080fd5b7f4e487b7100000000000000000000000000000000000000000000000000000000600052604160045260246000fd5b61327382612f50565b810181811067ffffffffffffffff821117156132925761329161323b565b5b80604052505050565b60006132a5612e32565b90506132b1828261326a565b919050565b600067ffffffffffffffff8211156132d1576132d061323b565b5b6132da82612f50565b9050602081019050919050565b82818337600083830152505050565b6000613309613304846132b6565b61329b565b90508281526020810184848401111561332557613324613236565b5b6133308482856132e7565b509392505050565b600082601f83011261334d5761334c613231565b5b813561335d8482602086016132f6565b91505092915050565b60006020828403121561337c5761337b612e3c565b5b600082013567ffffffffffffffff81111561339a57613399612e41565b5b6133a684828501613338565b91505092915050565b6000602082840312156133c5576133c4612e3c565b5b60006133d384828501613092565b91505092915050565b6133e581612ecb565b81146133f057600080fd5b50565b600081359050613402816133dc565b92915050565b6000806040838503121561341f5761341e612e3c565b5b600061342d85828601613092565b925050602061343e858286016133f3565b9150509250929050565b600067ffffffffffffffff8211156134635761346261323b565b5b61346c82612f50565b9050602081019050919050565b600061348c61348784613448565b61329b565b9050828152602081018484840111156134a8576134a7613236565b5b6134b38482856132e7565b509392505050565b600082601f8301126134d0576134cf613231565b5b81356134e0848260208601613479565b91505092915050565b6000806000806080858703121561350357613502612e3c565b5b600061351187828801613092565b945050602061352287828801613092565b935050604061353387828801612fdd565b925050606085013567ffffffffffffffff81111561355457613553612e41565b5b613560878288016134bb565b91505092959194509250565b600067ffffffffffffffff8211156135875761358661323b565b5b602082029050602081019050919050565b600080fd5b60006135b06135ab8461356c565b61329b565b905080838252602082019050602084028301858111156135d3576135d2613598565b5b835b818110156135fc57806135e88882613092565b8452602084019350506020810190506135d5565b5050509392505050565b600082601f83011261361b5761361a613231565b5b813561362b84826020860161359d565b91505092915050565b60006020828403121561364a57613649612e3c565b5b600082013567ffffffffffffffff81111561366857613667612e41565b5b61367484828501613606565b91505092915050565b6000806040838503121561369457613693612e3c565b5b60006136a285828601613092565b92505060206136b385828601613092565b9150509250929050565b7f4e487b7100000000000000000000000000000000000000000000000000000000600052602260045260246000fd5b6000600282049050600182168061370457607f821691505b60208210811415613718576137176136bd565b5b50919050565b7f4552433732313a20617070726f76656420717565727920666f72206e6f6e657860008201527f697374656e7420746f6b656e0000000000000000000000000000000000000000602082015250565b600061377a602c83612f0c565b91506137858261371e565b604082019050919050565b600060208201905081810360008301526137a98161376d565b9050919050565b7f4552433732313a20617070726f76616c20746f2063757272656e74206f776e6560008201527f7200000000000000000000000000000000000000000000000000000000000000602082015250565b600061380c602183612f0c565b9150613817826137b0565b604082019050919050565b6000602082019050818103600083015261383b816137ff565b9050919050565b7f4552433732313a20617070726f76652063616c6c6572206973206e6f74206f7760008201527f6e6572206e6f7220617070726f76656420666f7220616c6c0000000000000000602082015250565b600061389e603883612f0c565b91506138a982613842565b604082019050919050565b600060208201905081810360008301526138cd81613891565b9050919050565b7f4552433732313a207472616e736665722063616c6c6572206973206e6f74206f60008201527f776e6572206e6f7220617070726f766564000000000000000000000000000000602082015250565b6000613930603183612f0c565b915061393b826138d4565b604082019050919050565b6000602082019050818103600083015261395f81613923565b9050919050565b7f455243373231456e756d657261626c653a206f776e657220696e646578206f7560008201527f74206f6620626f756e6473000000000000000000000000000000000000000000602082015250565b60006139c2602b83612f0c565b91506139cd82613966565b604082019050919050565b600060208201905081810360008301526139f1816139b5565b9050919050565b7f416363657373436f6e74726f6c3a2063616e206f6e6c792072656e6f756e636560008201527f20726f6c657320666f722073656c660000000000000000000000000000000000602082015250565b6000613a54602f83612f0c565b9150613a5f826139f8565b604082019050919050565b60006020820190508181036000830152613a8381613a47565b9050919050565b7f4552433732314275726e61626c653a2063616c6c6572206973206e6f74206f7760008201527f6e6572206e6f7220617070726f76656400000000000000000000000000000000602082015250565b6000613ae6603083612f0c565b9150613af182613a8a565b604082019050919050565b60006020820190508181036000830152613b1581613ad9565b9050919050565b7f455243373231456e756d657261626c653a20676c6f62616c20696e646578206f60008201527f7574206f6620626f756e64730000000000000000000000000000000000000000602082015250565b6000613b78602c83612f0c565b9150613b8382613b1c565b604082019050919050565b60006020820190508181036000830152613ba781613b6b565b9050919050565b7f4e487b7100000000000000000000000000000000000000000000000000000000600052603260045260246000fd5b7f4f776e61626c653a2063616c6c6572206973206e6f7420746865206f776e6572600082015250565b6000613c13602083612f0c565b9150613c1e82613bdd565b602082019050919050565b60006020820190508181036000830152613c4281613c06565b9050919050565b7f4552433732313a206f776e657220717565727920666f72206e6f6e657869737460008201527f656e7420746f6b656e0000000000000000000000000000000000000000000000602082015250565b6000613ca5602983612f0c565b9150613cb082613c49565b604082019050919050565b60006020820190508181036000830152613cd481613c98565b9050919050565b7f4e487b7100000000000000000000000000000000000000000000000000000000600052601160045260246000fd5b6000613d1582612fbc565b9150613d2083612fbc565b9250827fffffffffffffffffffffffffffffffffffffffffffffffffffffffffffffffff03821115613d5557613d54613cdb565b5b828201905092915050565b7f4552433732313a2062616c616e636520717565727920666f7220746865207a6560008201527f726f206164647265737300000000000000000000000000000000000000000000602082015250565b6000613dbc602a83612f0c565b9150613dc782613d60565b604082019050919050565b60006020820190508181036000830152613deb81613daf565b9050919050565b7f4552433732314d657461646174613a2055524920717565727920666f72206e6f60008201527f6e6578697374656e7420746f6b656e0000000000000000000000000000000000602082015250565b6000613e4e602f83612f0c565b9150613e5982613df2565b604082019050919050565b60006020820190508181036000830152613e7d81613e41565b9050919050565b600081905092915050565b6000613e9a82612f01565b613ea48185613e84565b9350613eb4818560208601612f1d565b80840191505092915050565b6000613ecc8285613e8f565b9150613ed88284613e8f565b91508190509392505050565b6000613eef82612fbc565b91507fffffffffffffffffffffffffffffffffffffffffffffffffffffffffffffffff821415613f2257613f21613cdb565b5b600182019050919050565b6000613f3882612fbc565b9150613f4383612fbc565b925082821015613f5657613f55613cdb565b5b828203905092915050565b7f4f776e61626c653a206e6577206f776e657220697320746865207a65726f206160008201527f6464726573730000000000000000000000000000000000000000000000000000602082015250565b6000613fbd602683612f0c565b9150613fc882613f61565b604082019050919050565b60006020820190508181036000830152613fec81613fb0565b9050919050565b7f4552433732313a206f70657261746f7220717565727920666f72206e6f6e657860008201527f697374656e7420746f6b656e0000000000000000000000000000000000000000602082015250565b600061404f602c83612f0c565b915061405a82613ff3565b604082019050919050565b6000602082019050818103600083015261407e81614042565b9050919050565b7f4552433732313a207472616e73666572206f6620746f6b656e2074686174206960008201527f73206e6f74206f776e0000000000000000000000000000000000000000000000602082015250565b60006140e1602983612f0c565b91506140ec82614085565b604082019050919050565b60006020820190508181036000830152614110816140d4565b9050919050565b7f4552433732313a207472616e7366657220746f20746865207a65726f2061646460008201527f7265737300000000000000000000000000000000000000000000000000000000602082015250565b6000614173602483612f0c565b915061417e82614117565b604082019050919050565b600060208201905081810360008301526141a281614166565b9050919050565b7f416363657373436f6e74726f6c3a206163636f756e7420000000000000000000600082015250565b60006141df601783613e84565b91506141ea826141a9565b601782019050919050565b7f206973206d697373696e6720726f6c6520000000000000000000000000000000600082015250565b600061422b601183613e84565b9150614236826141f5565b601182019050919050565b600061424c826141d2565b91506142588285613e8f565b91506142638261421e565b915061426f8284613e8f565b91508190509392505050565b7f4552433732313a206d696e7420746f20746865207a65726f2061646472657373600082015250565b60006142b1602083612f0c565b91506142bc8261427b565b602082019050919050565b600060208201905081810360008301526142e0816142a4565b9050919050565b7f4552433732313a20746f6b656e20616c7265616479206d696e74656400000000600082015250565b600061431d601c83612f0c565b9150614328826142e7565b602082019050919050565b6000602082019050818103600083015261434c81614310565b9050919050565b7f4552433732313a20617070726f766520746f2063616c6c657200000000000000600082015250565b6000614389601983612f0c565b915061439482614353565b602082019050919050565b600060208201905081810360008301526143b88161437c565b9050919050565b7f4552433732313a207472616e7366657220746f206e6f6e20455243373231526560008201527f63656976657220696d706c656d656e7465720000000000000000000000000000602082015250565b600061441b603283612f0c565b9150614426826143bf565b604082019050919050565b6000602082019050818103600083015261444a8161440e565b9050919050565b7f4e487b7100000000000000000000000000000000000000000000000000000000600052601260045260246000fd5b600061448b82612fbc565b915061449683612fbc565b9250826144a6576144a5614451565b5b828204905092915050565b60006144bc82612fbc565b91506144c783612fbc565b9250826144d7576144d6614451565b5b828206905092915050565b60006144ed82612fbc565b91506144f883612fbc565b9250817fffffffffffffffffffffffffffffffffffffffffffffffffffffffffffffffff048311821515161561453157614530613cdb565b5b828202905092915050565b600061454782612fbc565b9150600082141561455b5761455a613cdb565b5b600182039050919050565b7f537472696e67733a20686578206c656e67746820696e73756666696369656e74600082015250565b600061459c602083612f0c565b91506145a782614566565b602082019050919050565b600060208201905081810360008301526145cb8161458f565b9050919050565b600081519050919050565b600082825260208201905092915050565b60006145f9826145d2565b61460381856145dd565b9350614613818560208601612f1d565b61461c81612f50565b840191505092915050565b600060808201905061463c6000830187613051565b6146496020830186613051565b61465660408301856130e7565b818103606083015261466881846145ee565b905095945050505050565b60008151905061468281612e72565b92915050565b60006020828403121561469e5761469d612e3c565b5b60006146ac84828501614673565b91505092915050565b7f4552433732315061757361626c653a20746f6b656e207472616e73666572207760008201527f68696c6520706175736564000000000000000000000000000000000000000000602082015250565b6000614711602b83612f0c565b915061471c826146b5565b604082019050919050565b6000602082019050818103600083015261474081614704565b9050919050565b7f4e487b7100000000000000000000000000000000000000000000000000000000600052603160045260246000fdfea26469706673582212208a7481b2951044708f22aa4641962b837d67b2c79addeae43e123571823476da64736f6c634300080b0033",
  "immutableReferences": {},
  "source": "// SPDX-License-Identifier: MIT\npragma solidity >=0.4.22 <0.9.0;\n\nimport \"./NftBase.sol\";\n\ncontract NftAmazons is NftBase {\n  constructor() \n    NftBase(\"Amazons\", \"AMZ\", \"\") { }\n}",
  "sourcePath": "/Users/johnson/Documents/02.Projects/crypto-service-starter/contracts/contracts/nfts/NftAmazons.sol",
  "compiler": {
    "name": "solc",
    "version": "0.8.11+commit.d7f03943.Emscripten.clang"
  },
  "schemaVersion": "3.3.4",
  "updatedAt": "2021-12-29T05:37:53.127Z",
  "networkType": "ethereum",
  "devdoc": {
    "kind": "dev",
    "methods": {
      "approve(address,uint256)": {
        "details": "See {IERC721-approve}."
      },
      "balanceOf(address)": {
        "details": "See {IERC721-balanceOf}."
      },
      "burn(uint256)": {
        "details": "Burns `tokenId`. See {ERC721-_burn}. Requirements: - The caller must own `tokenId` or be an approved operator."
      },
      "getApproved(uint256)": {
        "details": "See {IERC721-getApproved}."
      },
      "getRoleAdmin(bytes32)": {
        "details": "Returns the admin role that controls `role`. See {grantRole} and {revokeRole}. To change a role's admin, use {_setRoleAdmin}."
      },
      "grantRole(bytes32,address)": {
        "details": "Grants `role` to `account`. If `account` had not been already granted `role`, emits a {RoleGranted} event. Requirements: - the caller must have ``role``'s admin role."
      },
      "hasRole(bytes32,address)": {
        "details": "Returns `true` if `account` has been granted `role`."
      },
      "isApprovedForAll(address,address)": {
        "details": "See {IERC721-isApprovedForAll}."
      },
      "name()": {
        "details": "See {IERC721Metadata-name}."
      },
      "owner()": {
        "details": "Returns the address of the current owner."
      },
      "ownerOf(uint256)": {
        "details": "See {IERC721-ownerOf}."
      },
      "paused()": {
        "details": "Returns true if the contract is paused, and false otherwise."
      },
      "renounceOwnership()": {
        "details": "Leaves the contract without owner. It will not be possible to call `onlyOwner` functions anymore. Can only be called by the current owner. NOTE: Renouncing ownership will leave the contract without an owner, thereby removing any functionality that is only available to the owner."
      },
      "renounceRole(bytes32,address)": {
        "details": "Revokes `role` from the calling account. Roles are often managed via {grantRole} and {revokeRole}: this function's purpose is to provide a mechanism for accounts to lose their privileges if they are compromised (such as when a trusted device is misplaced). If the calling account had been revoked `role`, emits a {RoleRevoked} event. Requirements: - the caller must be `account`."
      },
      "revokeRole(bytes32,address)": {
        "details": "Revokes `role` from `account`. If `account` had been granted `role`, emits a {RoleRevoked} event. Requirements: - the caller must have ``role``'s admin role."
      },
      "safeTransferFrom(address,address,uint256)": {
        "details": "See {IERC721-safeTransferFrom}."
      },
      "safeTransferFrom(address,address,uint256,bytes)": {
        "details": "See {IERC721-safeTransferFrom}."
      },
      "setApprovalForAll(address,bool)": {
        "details": "See {IERC721-setApprovalForAll}."
      },
      "symbol()": {
        "details": "See {IERC721Metadata-symbol}."
      },
      "tokenByIndex(uint256)": {
        "details": "See {IERC721Enumerable-tokenByIndex}."
      },
      "tokenOfOwnerByIndex(address,uint256)": {
        "details": "See {IERC721Enumerable-tokenOfOwnerByIndex}."
      },
      "tokenURI(uint256)": {
        "details": "See {IERC721Metadata-tokenURI}."
      },
      "totalSupply()": {
        "details": "See {IERC721Enumerable-totalSupply}."
      },
      "transferFrom(address,address,uint256)": {
        "details": "See {IERC721-transferFrom}."
      },
      "transferOwnership(address)": {
        "details": "Transfers ownership of the contract to a new account (`newOwner`). Can only be called by the current owner."
      }
    },
    "version": 1
  },
  "userdoc": {
    "kind": "user",
    "methods": {},
    "version": 1
  }
}