{
  "contractName": "NftBase",
  "abi": [
    {
      "inputs": [
        {
          "internalType": "string",
          "name": "name",
          "type": "string"
        },
        {
          "internalType": "string",
          "name": "symbol",
          "type": "string"
        },
        {
          "internalType": "string",
          "name": "uri",
          "type": "string"
        }
      ],
      "stateMutability": "nonpayable",
      "type": "constructor"
    },
    {
      "anonymous": false,
      "inputs": [
        {
          "indexed": true,
          "internalType": "address",
          "name": "owner",
          "type": "address"
        },
        {
          "indexed": true,
          "internalType": "address",
          "name": "approved",
          "type": "address"
        },
        {
          "indexed": true,
          "internalType": "uint256",
          "name": "tokenId",
          "type": "uint256"
        }
      ],
      "name": "Approval",
      "type": "event"
    },
    {
      "anonymous": false,
      "inputs": [
        {
          "indexed": true,
          "internalType": "address",
          "name": "owner",
          "type": "address"
        },
        {
          "indexed": true,
          "internalType": "address",
          "name": "operator",
          "type": "address"
        },
        {
          "indexed": false,
          "internalType": "bool",
          "name": "approved",
          "type": "bool"
        }
      ],
      "name": "ApprovalForAll",
      "type": "event"
    },
    {
      "anonymous": false,
      "inputs": [
        {
          "indexed": true,
          "internalType": "address",
          "name": "previousOwner",
          "type": "address"
        },
        {
          "indexed": true,
          "internalType": "address",
          "name": "newOwner",
          "type": "address"
        }
      ],
      "name": "OwnershipTransferred",
      "type": "event"
    },
    {
      "anonymous": false,
      "inputs": [
        {
          "indexed": true,
          "internalType": "address",
          "name": "from",
          "type": "address"
        },
        {
          "indexed": true,
          "internalType": "address",
          "name": "to",
          "type": "address"
        },
        {
          "indexed": true,
          "internalType": "uint256",
          "name": "tokenId",
          "type": "uint256"
        }
      ],
      "name": "Transfer",
      "type": "event"
    },
    {
      "inputs": [],
      "name": "MINTER_ROLE",
      "outputs": [
        {
          "internalType": "bytes32",
          "name": "",
          "type": "bytes32"
        }
      ],
      "stateMutability": "view",
      "type": "function"
    },
    {
      "inputs": [
        {
          "internalType": "address",
          "name": "to",
          "type": "address"
        },
        {
          "internalType": "uint256",
          "name": "tokenId",
          "type": "uint256"
        }
      ],
      "name": "approve",
      "outputs": [],
      "stateMutability": "nonpayable",
      "type": "function"
    },
    {
      "inputs": [
        {
          "internalType": "address",
          "name": "owner",
          "type": "address"
        }
      ],
      "name": "balanceOf",
      "outputs": [
        {
          "internalType": "uint256",
          "name": "",
          "type": "uint256"
        }
      ],
      "stateMutability": "view",
      "type": "function"
    },
    {
      "inputs": [
        {
          "internalType": "uint256",
          "name": "tokenId",
          "type": "uint256"
        }
      ],
      "name": "getApproved",
      "outputs": [
        {
          "internalType": "address",
          "name": "",
          "type": "address"
        }
      ],
      "stateMutability": "view",
      "type": "function"
    },
    {
      "inputs": [
        {
          "internalType": "address",
          "name": "owner",
          "type": "address"
        },
        {
          "internalType": "address",
          "name": "operator",
          "type": "address"
        }
      ],
      "name": "isApprovedForAll",
      "outputs": [
        {
          "internalType": "bool",
          "name": "",
          "type": "bool"
        }
      ],
      "stateMutability": "view",
      "type": "function"
    },
    {
      "inputs": [],
      "name": "name",
      "outputs": [
        {
          "internalType": "string",
          "name": "",
          "type": "string"
        }
      ],
      "stateMutability": "view",
      "type": "function"
    },
    {
      "inputs": [],
      "name": "owner",
      "outputs": [
        {
          "internalType": "address",
          "name": "",
          "type": "address"
        }
      ],
      "stateMutability": "view",
      "type": "function"
    },
    {
      "inputs": [
        {
          "internalType": "uint256",
          "name": "tokenId",
          "type": "uint256"
        }
      ],
      "name": "ownerOf",
      "outputs": [
        {
          "internalType": "address",
          "name": "",
          "type": "address"
        }
      ],
      "stateMutability": "view",
      "type": "function"
    },
    {
      "inputs": [],
      "name": "renounceOwnership",
      "outputs": [],
      "stateMutability": "nonpayable",
      "type": "function"
    },
    {
      "inputs": [
        {
          "internalType": "address",
          "name": "from",
          "type": "address"
        },
        {
          "internalType": "address",
          "name": "to",
          "type": "address"
        },
        {
          "internalType": "uint256",
          "name": "tokenId",
          "type": "uint256"
        }
      ],
      "name": "safeTransferFrom",
      "outputs": [],
      "stateMutability": "nonpayable",
      "type": "function"
    },
    {
      "inputs": [
        {
          "internalType": "address",
          "name": "from",
          "type": "address"
        },
        {
          "internalType": "address",
          "name": "to",
          "type": "address"
        },
        {
          "internalType": "uint256",
          "name": "tokenId",
          "type": "uint256"
        },
        {
          "internalType": "bytes",
          "name": "_data",
          "type": "bytes"
        }
      ],
      "name": "safeTransferFrom",
      "outputs": [],
      "stateMutability": "nonpayable",
      "type": "function"
    },
    {
      "inputs": [
        {
          "internalType": "address",
          "name": "operator",
          "type": "address"
        },
        {
          "internalType": "bool",
          "name": "approved",
          "type": "bool"
        }
      ],
      "name": "setApprovalForAll",
      "outputs": [],
      "stateMutability": "nonpayable",
      "type": "function"
    },
    {
      "inputs": [
        {
          "internalType": "bytes4",
          "name": "interfaceId",
          "type": "bytes4"
        }
      ],
      "name": "supportsInterface",
      "outputs": [
        {
          "internalType": "bool",
          "name": "",
          "type": "bool"
        }
      ],
      "stateMutability": "view",
      "type": "function"
    },
    {
      "inputs": [],
      "name": "symbol",
      "outputs": [
        {
          "internalType": "string",
          "name": "",
          "type": "string"
        }
      ],
      "stateMutability": "view",
      "type": "function"
    },
    {
      "inputs": [
        {
          "internalType": "uint256",
          "name": "tokenId",
          "type": "uint256"
        }
      ],
      "name": "tokenURI",
      "outputs": [
        {
          "internalType": "string",
          "name": "",
          "type": "string"
        }
      ],
      "stateMutability": "view",
      "type": "function"
    },
    {
      "inputs": [
        {
          "internalType": "address",
          "name": "from",
          "type": "address"
        },
        {
          "internalType": "address",
          "name": "to",
          "type": "address"
        },
        {
          "internalType": "uint256",
          "name": "tokenId",
          "type": "uint256"
        }
      ],
      "name": "transferFrom",
      "outputs": [],
      "stateMutability": "nonpayable",
      "type": "function"
    },
    {
      "inputs": [
        {
          "internalType": "address",
          "name": "newOwner",
          "type": "address"
        }
      ],
      "name": "transferOwnership",
      "outputs": [],
      "stateMutability": "nonpayable",
      "type": "function"
    },
    {
      "inputs": [
        {
          "internalType": "uint256",
          "name": "tokenId",
          "type": "uint256"
        }
      ],
      "name": "exists",
      "outputs": [
        {
          "internalType": "bool",
          "name": "",
          "type": "bool"
        }
      ],
      "stateMutability": "view",
      "type": "function"
    },
    {
      "inputs": [
        {
          "internalType": "address",
          "name": "owner",
          "type": "address"
        }
      ],
      "name": "mint",
      "outputs": [
        {
          "internalType": "uint256",
          "name": "",
          "type": "uint256"
        }
      ],
      "stateMutability": "nonpayable",
      "type": "function"
    },
    {
      "inputs": [
        {
          "internalType": "address[]",
          "name": "owners",
          "type": "address[]"
        }
      ],
      "name": "batchMint",
      "outputs": [
        {
          "internalType": "uint256",
          "name": "",
          "type": "uint256"
        }
      ],
      "stateMutability": "nonpayable",
      "type": "function"
    },
    {
      "inputs": [
        {
          "internalType": "uint256",
          "name": "tokenId",
          "type": "uint256"
        }
      ],
      "name": "burn",
      "outputs": [],
      "stateMutability": "nonpayable",
      "type": "function"
    },
    {
      "inputs": [
        {
          "internalType": "string",
          "name": "baseURI",
          "type": "string"
        }
      ],
      "name": "setBaseURI",
      "outputs": [],
      "stateMutability": "nonpayable",
      "type": "function"
    },
    {
      "inputs": [],
      "name": "totalSupply",
      "outputs": [
        {
          "internalType": "uint256",
          "name": "",
          "type": "uint256"
        }
      ],
      "stateMutability": "view",
      "type": "function"
    }
  ],
  "bytecode": "0x60806040523480156200001157600080fd5b5060405162003820380380620038208339818101604052810190620000379190620003d2565b828281600090805190602001906200005192919062000185565b5080600190805190602001906200006a92919062000185565b5050506200008d62000081620000b760201b60201c565b620000bf60201b60201c565b8060079080519060200190620000a592919062000185565b506000600881905550505050620004f0565b600033905090565b6000600660009054906101000a900473ffffffffffffffffffffffffffffffffffffffff16905081600660006101000a81548173ffffffffffffffffffffffffffffffffffffffff021916908373ffffffffffffffffffffffffffffffffffffffff1602179055508173ffffffffffffffffffffffffffffffffffffffff168173ffffffffffffffffffffffffffffffffffffffff167f8be0079c531659141344cd1fd0a4f28419497f9722a3daafe3b4186f6b6457e060405160405180910390a35050565b8280546200019390620004ba565b90600052602060002090601f016020900481019282620001b7576000855562000203565b82601f10620001d257805160ff191683800117855562000203565b8280016001018555821562000203579182015b8281111562000202578251825591602001919060010190620001e5565b5b50905062000212919062000216565b5090565b5b808211156200023157600081600090555060010162000217565b5090565b6000604051905090565b600080fd5b600080fd5b600080fd5b600080fd5b6000601f19601f8301169050919050565b7f4e487b7100000000000000000000000000000000000000000000000000000000600052604160045260246000fd5b6200029e8262000253565b810181811067ffffffffffffffff82111715620002c057620002bf62000264565b5b80604052505050565b6000620002d562000235565b9050620002e3828262000293565b919050565b600067ffffffffffffffff82111562000306576200030562000264565b5b620003118262000253565b9050602081019050919050565b60005b838110156200033e57808201518184015260208101905062000321565b838111156200034e576000848401525b50505050565b60006200036b6200036584620002e8565b620002c9565b9050828152602081018484840111156200038a57620003896200024e565b5b620003978482856200031e565b509392505050565b600082601f830112620003b757620003b662000249565b5b8151620003c984826020860162000354565b91505092915050565b600080600060608486031215620003ee57620003ed6200023f565b5b600084015167ffffffffffffffff8111156200040f576200040e62000244565b5b6200041d868287016200039f565b935050602084015167ffffffffffffffff81111562000441576200044062000244565b5b6200044f868287016200039f565b925050604084015167ffffffffffffffff81111562000473576200047262000244565b5b62000481868287016200039f565b9150509250925092565b7f4e487b7100000000000000000000000000000000000000000000000000000000600052602260045260246000fd5b60006002820490506001821680620004d357607f821691505b60208210811415620004ea57620004e96200048b565b5b50919050565b61332080620005006000396000f3fe608060405234801561001057600080fd5b506004361061014d5760003560e01c80636a627842116100c3578063b88d4fde1161007c578063b88d4fde1461039c578063c87b56dd146103b8578063d5391393146103e8578063d67b06c114610406578063e985e9c514610436578063f2fde38b146104665761014d565b80636a627842146102da57806370a082311461030a578063715018a61461033a5780638da5cb5b1461034457806395d89b4114610362578063a22cb465146103805761014d565b806323b872dd1161011557806323b872dd1461020a57806342842e0e1461022657806342966c68146102425780634f558e791461025e57806355f804b31461028e5780636352211e146102aa5761014d565b806301ffc9a71461015257806306fdde0314610182578063081812fc146101a0578063095ea7b3146101d057806318160ddd146101ec575b600080fd5b61016c60048036038101906101679190611f76565b610482565b6040516101799190611fbe565b60405180910390f35b61018a610564565b6040516101979190612072565b60405180910390f35b6101ba60048036038101906101b591906120ca565b6105f6565b6040516101c79190612138565b60405180910390f35b6101ea60048036038101906101e5919061217f565b61067b565b005b6101f4610793565b60405161020191906121ce565b60405180910390f35b610224600480360381019061021f91906121e9565b61079d565b005b610240600480360381019061023b91906121e9565b6107fd565b005b61025c600480360381019061025791906120ca565b61081d565b005b610278600480360381019061027391906120ca565b6108a5565b6040516102859190611fbe565b60405180910390f35b6102a860048036038101906102a39190612371565b6108b7565b005b6102c460048036038101906102bf91906120ca565b61094d565b6040516102d19190612138565b60405180910390f35b6102f460048036038101906102ef91906123ba565b6109ff565b60405161030191906121ce565b60405180910390f35b610324600480360381019061031f91906123ba565b610aaa565b60405161033191906121ce565b60405180910390f35b610342610b62565b005b61034c610bea565b6040516103599190612138565b60405180910390f35b61036a610c14565b6040516103779190612072565b60405180910390f35b61039a60048036038101906103959190612413565b610ca6565b005b6103b660048036038101906103b191906124f4565b610cbc565b005b6103d260048036038101906103cd91906120ca565b610d1e565b6040516103df9190612072565b60405180910390f35b6103f0610dc5565b6040516103fd9190612590565b60405180910390f35b610420600480360381019061041b9190612673565b610de9565b60405161042d91906121ce565b60405180910390f35b610450600480360381019061044b91906126bc565b610f09565b60405161045d9190611fbe565b60405180910390f35b610480600480360381019061047b91906123ba565b610f9d565b005b60007f80ac58cd000000000000000000000000000000000000000000000000000000007bffffffffffffffffffffffffffffffffffffffffffffffffffffffff1916827bffffffffffffffffffffffffffffffffffffffffffffffffffffffff1916148061054d57507f5b5e139f000000000000000000000000000000000000000000000000000000007bffffffffffffffffffffffffffffffffffffffffffffffffffffffff1916827bffffffffffffffffffffffffffffffffffffffffffffffffffffffff1916145b8061055d575061055c82611095565b5b9050919050565b6060600080546105739061272b565b80601f016020809104026020016040519081016040528092919081815260200182805461059f9061272b565b80156105ec5780601f106105c1576101008083540402835291602001916105ec565b820191906000526020600020905b8154815290600101906020018083116105cf57829003601f168201915b5050505050905090565b6000610601826110ff565b610640576040517f08c379a0000000000000000000000000000000000000000000000000000000008152600401610637906127cf565b60405180910390fd5b6004600083815260200190815260200160002060009054906101000a900473ffffffffffffffffffffffffffffffffffffffff169050919050565b60006106868261094d565b90508073ffffffffffffffffffffffffffffffffffffffff168373ffffffffffffffffffffffffffffffffffffffff1614156106f7576040517f08c379a00000000000000000000000000000000000000000000000000000000081526004016106ee90612861565b60405180910390fd5b8073ffffffffffffffffffffffffffffffffffffffff1661071661116b565b73ffffffffffffffffffffffffffffffffffffffff16148061074557506107448161073f61116b565b610f09565b5b610784576040517f08c379a000000000000000000000000000000000000000000000000000000000815260040161077b906128f3565b60405180910390fd5b61078e8383611173565b505050565b6000600854905090565b6107ae6107a861116b565b8261122c565b6107ed576040517f08c379a00000000000000000000000000000000000000000000000000000000081526004016107e490612985565b60405180910390fd5b6107f883838361130a565b505050565b61081883838360405180602001604052806000815250610cbc565b505050565b61082561116b565b73ffffffffffffffffffffffffffffffffffffffff16610843610bea565b73ffffffffffffffffffffffffffffffffffffffff1614610899576040517f08c379a0000000000000000000000000000000000000000000000000000000008152600401610890906129f1565b60405180910390fd5b6108a281611566565b50565b60006108b0826110ff565b9050919050565b6108bf61116b565b73ffffffffffffffffffffffffffffffffffffffff166108dd610bea565b73ffffffffffffffffffffffffffffffffffffffff1614610933576040517f08c379a000000000000000000000000000000000000000000000000000000000815260040161092a906129f1565b60405180910390fd5b8060079080519060200190610949929190611e67565b5050565b6000806002600084815260200190815260200160002060009054906101000a900473ffffffffffffffffffffffffffffffffffffffff169050600073ffffffffffffffffffffffffffffffffffffffff168173ffffffffffffffffffffffffffffffffffffffff1614156109f6576040517f08c379a00000000000000000000000000000000000000000000000000000000081526004016109ed90612a83565b60405180910390fd5b80915050919050565b6000610a0961116b565b73ffffffffffffffffffffffffffffffffffffffff16610a27610bea565b73ffffffffffffffffffffffffffffffffffffffff1614610a7d576040517f08c379a0000000000000000000000000000000000000000000000000000000008152600401610a74906129f1565b60405180910390fd5b60006001600854610a8e9190612ad2565b9050610a9a8382611677565b8060088190555080915050919050565b60008073ffffffffffffffffffffffffffffffffffffffff168273ffffffffffffffffffffffffffffffffffffffff161415610b1b576040517f08c379a0000000000000000000000000000000000000000000000000000000008152600401610b1290612b9a565b60405180910390fd5b600360008373ffffffffffffffffffffffffffffffffffffffff1673ffffffffffffffffffffffffffffffffffffffff168152602001908152602001600020549050919050565b610b6a61116b565b73ffffffffffffffffffffffffffffffffffffffff16610b88610bea565b73ffffffffffffffffffffffffffffffffffffffff1614610bde576040517f08c379a0000000000000000000000000000000000000000000000000000000008152600401610bd5906129f1565b60405180910390fd5b610be86000611845565b565b6000600660009054906101000a900473ffffffffffffffffffffffffffffffffffffffff16905090565b606060018054610c239061272b565b80601f0160208091040260200160405190810160405280929190818152602001828054610c4f9061272b565b8015610c9c5780601f10610c7157610100808354040283529160200191610c9c565b820191906000526020600020905b815481529060010190602001808311610c7f57829003601f168201915b5050505050905090565b610cb8610cb161116b565b838361190b565b5050565b610ccd610cc761116b565b8361122c565b610d0c576040517f08c379a0000000000000000000000000000000000000000000000000000000008152600401610d0390612985565b60405180910390fd5b610d1884848484611a78565b50505050565b6060610d29826110ff565b610d68576040517f08c379a0000000000000000000000000000000000000000000000000000000008152600401610d5f90612c2c565b60405180910390fd5b6000610d72611ad4565b90506000815111610d925760405180602001604052806000815250610dbd565b80610d9c84611b66565b604051602001610dad929190612c88565b6040516020818303038152906040525b915050919050565b7f9f2df0fed2c77648de5860a4cc508cd0818c85b8b8a1ab4ceeef8d981c8956a681565b6000610df361116b565b73ffffffffffffffffffffffffffffffffffffffff16610e11610bea565b73ffffffffffffffffffffffffffffffffffffffff1614610e67576040517f08c379a0000000000000000000000000000000000000000000000000000000008152600401610e5e906129f1565b60405180910390fd5b60006001600854610e789190612ad2565b905060005b8351811015610ed4576000848281518110610e9b57610e9a612cac565b5b6020026020010151905060008284610eb39190612ad2565b9050610ebf8282611677565b50508080610ecc90612cdb565b915050610e7d565b506001835182610ee49190612ad2565b610eee9190612d24565b600881905550825181610f019190612ad2565b915050919050565b6000600560008473ffffffffffffffffffffffffffffffffffffffff1673ffffffffffffffffffffffffffffffffffffffff16815260200190815260200160002060008373ffffffffffffffffffffffffffffffffffffffff1673ffffffffffffffffffffffffffffffffffffffff16815260200190815260200160002060009054906101000a900460ff16905092915050565b610fa561116b565b73ffffffffffffffffffffffffffffffffffffffff16610fc3610bea565b73ffffffffffffffffffffffffffffffffffffffff1614611019576040517f08c379a0000000000000000000000000000000000000000000000000000000008152600401611010906129f1565b60405180910390fd5b600073ffffffffffffffffffffffffffffffffffffffff168173ffffffffffffffffffffffffffffffffffffffff161415611089576040517f08c379a000000000000000000000000000000000000000000000000000000000815260040161108090612dca565b60405180910390fd5b61109281611845565b50565b60007f01ffc9a7000000000000000000000000000000000000000000000000000000007bffffffffffffffffffffffffffffffffffffffffffffffffffffffff1916827bffffffffffffffffffffffffffffffffffffffffffffffffffffffff1916149050919050565b60008073ffffffffffffffffffffffffffffffffffffffff166002600084815260200190815260200160002060009054906101000a900473ffffffffffffffffffffffffffffffffffffffff1673ffffffffffffffffffffffffffffffffffffffff1614159050919050565b600033905090565b816004600083815260200190815260200160002060006101000a81548173ffffffffffffffffffffffffffffffffffffffff021916908373ffffffffffffffffffffffffffffffffffffffff160217905550808273ffffffffffffffffffffffffffffffffffffffff166111e68361094d565b73ffffffffffffffffffffffffffffffffffffffff167f8c5be1e5ebec7d5bd14f71427d1e84f3dd0314c0f7b2291e5b200ac8c7c3b92560405160405180910390a45050565b6000611237826110ff565b611276576040517f08c379a000000000000000000000000000000000000000000000000000000000815260040161126d90612e5c565b60405180910390fd5b60006112818361094d565b90508073ffffffffffffffffffffffffffffffffffffffff168473ffffffffffffffffffffffffffffffffffffffff1614806112f057508373ffffffffffffffffffffffffffffffffffffffff166112d8846105f6565b73ffffffffffffffffffffffffffffffffffffffff16145b8061130157506113008185610f09565b5b91505092915050565b8273ffffffffffffffffffffffffffffffffffffffff1661132a8261094d565b73ffffffffffffffffffffffffffffffffffffffff1614611380576040517f08c379a000000000000000000000000000000000000000000000000000000000815260040161137790612eee565b60405180910390fd5b600073ffffffffffffffffffffffffffffffffffffffff168273ffffffffffffffffffffffffffffffffffffffff1614156113f0576040517f08c379a00000000000000000000000000000000000000000000000000000000081526004016113e790612f80565b60405180910390fd5b6113fb838383611cc7565b611406600082611173565b6001600360008573ffffffffffffffffffffffffffffffffffffffff1673ffffffffffffffffffffffffffffffffffffffff16815260200190815260200160002060008282546114569190612d24565b925050819055506001600360008473ffffffffffffffffffffffffffffffffffffffff1673ffffffffffffffffffffffffffffffffffffffff16815260200190815260200160002060008282546114ad9190612ad2565b92505081905550816002600083815260200190815260200160002060006101000a81548173ffffffffffffffffffffffffffffffffffffffff021916908373ffffffffffffffffffffffffffffffffffffffff160217905550808273ffffffffffffffffffffffffffffffffffffffff168473ffffffffffffffffffffffffffffffffffffffff167fddf252ad1be2c89b69c2b068fc378daa952ba7f163c4a11628f55a4df523b3ef60405160405180910390a4505050565b60006115718261094d565b905061157f81600084611cc7565b61158a600083611173565b6001600360008373ffffffffffffffffffffffffffffffffffffffff1673ffffffffffffffffffffffffffffffffffffffff16815260200190815260200160002060008282546115da9190612d24565b925050819055506002600083815260200190815260200160002060006101000a81549073ffffffffffffffffffffffffffffffffffffffff021916905581600073ffffffffffffffffffffffffffffffffffffffff168273ffffffffffffffffffffffffffffffffffffffff167fddf252ad1be2c89b69c2b068fc378daa952ba7f163c4a11628f55a4df523b3ef60405160405180910390a45050565b600073ffffffffffffffffffffffffffffffffffffffff168273ffffffffffffffffffffffffffffffffffffffff1614156116e7576040517f08c379a00000000000000000000000000000000000000000000000000000000081526004016116de90612fec565b60405180910390fd5b6116f0816110ff565b15611730576040517f08c379a000000000000000000000000000000000000000000000000000000000815260040161172790613058565b60405180910390fd5b61173c60008383611cc7565b6001600360008473ffffffffffffffffffffffffffffffffffffffff1673ffffffffffffffffffffffffffffffffffffffff168152602001908152602001600020600082825461178c9190612ad2565b92505081905550816002600083815260200190815260200160002060006101000a81548173ffffffffffffffffffffffffffffffffffffffff021916908373ffffffffffffffffffffffffffffffffffffffff160217905550808273ffffffffffffffffffffffffffffffffffffffff16600073ffffffffffffffffffffffffffffffffffffffff167fddf252ad1be2c89b69c2b068fc378daa952ba7f163c4a11628f55a4df523b3ef60405160405180910390a45050565b6000600660009054906101000a900473ffffffffffffffffffffffffffffffffffffffff16905081600660006101000a81548173ffffffffffffffffffffffffffffffffffffffff021916908373ffffffffffffffffffffffffffffffffffffffff1602179055508173ffffffffffffffffffffffffffffffffffffffff168173ffffffffffffffffffffffffffffffffffffffff167f8be0079c531659141344cd1fd0a4f28419497f9722a3daafe3b4186f6b6457e060405160405180910390a35050565b8173ffffffffffffffffffffffffffffffffffffffff168373ffffffffffffffffffffffffffffffffffffffff16141561197a576040517f08c379a0000000000000000000000000000000000000000000000000000000008152600401611971906130c4565b60405180910390fd5b80600560008573ffffffffffffffffffffffffffffffffffffffff1673ffffffffffffffffffffffffffffffffffffffff16815260200190815260200160002060008473ffffffffffffffffffffffffffffffffffffffff1673ffffffffffffffffffffffffffffffffffffffff16815260200190815260200160002060006101000a81548160ff0219169083151502179055508173ffffffffffffffffffffffffffffffffffffffff168373ffffffffffffffffffffffffffffffffffffffff167f17307eab39ab6107e8899845ad3d59bd9653f200f220920489ca2b5937696c3183604051611a6b9190611fbe565b60405180910390a3505050565b611a8384848461130a565b611a8f84848484611ccc565b611ace576040517f08c379a0000000000000000000000000000000000000000000000000000000008152600401611ac590613156565b60405180910390fd5b50505050565b606060078054611ae39061272b565b80601f0160208091040260200160405190810160405280929190818152602001828054611b0f9061272b565b8015611b5c5780601f10611b3157610100808354040283529160200191611b5c565b820191906000526020600020905b815481529060010190602001808311611b3f57829003601f168201915b5050505050905090565b60606000821415611bae576040518060400160405280600181526020017f30000000000000000000000000000000000000000000000000000000000000008152509050611cc2565b600082905060005b60008214611be0578080611bc990612cdb565b915050600a82611bd991906131a5565b9150611bb6565b60008167ffffffffffffffff811115611bfc57611bfb612246565b5b6040519080825280601f01601f191660200182016040528015611c2e5781602001600182028036833780820191505090505b5090505b60008514611cbb57600182611c479190612d24565b9150600a85611c5691906131d6565b6030611c629190612ad2565b60f81b818381518110611c7857611c77612cac565b5b60200101907effffffffffffffffffffffffffffffffffffffffffffffffffffffffffffff1916908160001a905350600a85611cb491906131a5565b9450611c32565b8093505050505b919050565b505050565b6000611ced8473ffffffffffffffffffffffffffffffffffffffff16611e54565b15611e47578373ffffffffffffffffffffffffffffffffffffffff1663150b7a02611d1661116b565b8786866040518563ffffffff1660e01b8152600401611d38949392919061325c565b6020604051808303816000875af1925050508015611d7457506040513d601f19601f82011682018060405250810190611d7191906132bd565b60015b611df7573d8060008114611da4576040519150601f19603f3d011682016040523d82523d6000602084013e611da9565b606091505b50600081511415611def576040517f08c379a0000000000000000000000000000000000000000000000000000000008152600401611de690613156565b60405180910390fd5b805181602001fd5b63150b7a0260e01b7bffffffffffffffffffffffffffffffffffffffffffffffffffffffff1916817bffffffffffffffffffffffffffffffffffffffffffffffffffffffff191614915050611e4c565b600190505b949350505050565b600080823b905060008111915050919050565b828054611e739061272b565b90600052602060002090601f016020900481019282611e955760008555611edc565b82601f10611eae57805160ff1916838001178555611edc565b82800160010185558215611edc579182015b82811115611edb578251825591602001919060010190611ec0565b5b509050611ee99190611eed565b5090565b5b80821115611f06576000816000905550600101611eee565b5090565b6000604051905090565b600080fd5b600080fd5b60007fffffffff0000000000000000000000000000000000000000000000000000000082169050919050565b611f5381611f1e565b8114611f5e57600080fd5b50565b600081359050611f7081611f4a565b92915050565b600060208284031215611f8c57611f8b611f14565b5b6000611f9a84828501611f61565b91505092915050565b60008115159050919050565b611fb881611fa3565b82525050565b6000602082019050611fd36000830184611faf565b92915050565b600081519050919050565b600082825260208201905092915050565b60005b83811015612013578082015181840152602081019050611ff8565b83811115612022576000848401525b50505050565b6000601f19601f8301169050919050565b600061204482611fd9565b61204e8185611fe4565b935061205e818560208601611ff5565b61206781612028565b840191505092915050565b6000602082019050818103600083015261208c8184612039565b905092915050565b6000819050919050565b6120a781612094565b81146120b257600080fd5b50565b6000813590506120c48161209e565b92915050565b6000602082840312156120e0576120df611f14565b5b60006120ee848285016120b5565b91505092915050565b600073ffffffffffffffffffffffffffffffffffffffff82169050919050565b6000612122826120f7565b9050919050565b61213281612117565b82525050565b600060208201905061214d6000830184612129565b92915050565b61215c81612117565b811461216757600080fd5b50565b60008135905061217981612153565b92915050565b6000806040838503121561219657612195611f14565b5b60006121a48582860161216a565b92505060206121b5858286016120b5565b9150509250929050565b6121c881612094565b82525050565b60006020820190506121e360008301846121bf565b92915050565b60008060006060848603121561220257612201611f14565b5b60006122108682870161216a565b93505060206122218682870161216a565b9250506040612232868287016120b5565b9150509250925092565b600080fd5b600080fd5b7f4e487b7100000000000000000000000000000000000000000000000000000000600052604160045260246000fd5b61227e82612028565b810181811067ffffffffffffffff8211171561229d5761229c612246565b5b80604052505050565b60006122b0611f0a565b90506122bc8282612275565b919050565b600067ffffffffffffffff8211156122dc576122db612246565b5b6122e582612028565b9050602081019050919050565b82818337600083830152505050565b600061231461230f846122c1565b6122a6565b9050828152602081018484840111156123305761232f612241565b5b61233b8482856122f2565b509392505050565b600082601f8301126123585761235761223c565b5b8135612368848260208601612301565b91505092915050565b60006020828403121561238757612386611f14565b5b600082013567ffffffffffffffff8111156123a5576123a4611f19565b5b6123b184828501612343565b91505092915050565b6000602082840312156123d0576123cf611f14565b5b60006123de8482850161216a565b91505092915050565b6123f081611fa3565b81146123fb57600080fd5b50565b60008135905061240d816123e7565b92915050565b6000806040838503121561242a57612429611f14565b5b60006124388582860161216a565b9250506020612449858286016123fe565b9150509250929050565b600067ffffffffffffffff82111561246e5761246d612246565b5b61247782612028565b9050602081019050919050565b600061249761249284612453565b6122a6565b9050828152602081018484840111156124b3576124b2612241565b5b6124be8482856122f2565b509392505050565b600082601f8301126124db576124da61223c565b5b81356124eb848260208601612484565b91505092915050565b6000806000806080858703121561250e5761250d611f14565b5b600061251c8782880161216a565b945050602061252d8782880161216a565b935050604061253e878288016120b5565b925050606085013567ffffffffffffffff81111561255f5761255e611f19565b5b61256b878288016124c6565b91505092959194509250565b6000819050919050565b61258a81612577565b82525050565b60006020820190506125a56000830184612581565b92915050565b600067ffffffffffffffff8211156125c6576125c5612246565b5b602082029050602081019050919050565b600080fd5b60006125ef6125ea846125ab565b6122a6565b90508083825260208201905060208402830185811115612612576126116125d7565b5b835b8181101561263b5780612627888261216a565b845260208401935050602081019050612614565b5050509392505050565b600082601f83011261265a5761265961223c565b5b813561266a8482602086016125dc565b91505092915050565b60006020828403121561268957612688611f14565b5b600082013567ffffffffffffffff8111156126a7576126a6611f19565b5b6126b384828501612645565b91505092915050565b600080604083850312156126d3576126d2611f14565b5b60006126e18582860161216a565b92505060206126f28582860161216a565b9150509250929050565b7f4e487b7100000000000000000000000000000000000000000000000000000000600052602260045260246000fd5b6000600282049050600182168061274357607f821691505b60208210811415612757576127566126fc565b5b50919050565b7f4552433732313a20617070726f76656420717565727920666f72206e6f6e657860008201527f697374656e7420746f6b656e0000000000000000000000000000000000000000602082015250565b60006127b9602c83611fe4565b91506127c48261275d565b604082019050919050565b600060208201905081810360008301526127e8816127ac565b9050919050565b7f4552433732313a20617070726f76616c20746f2063757272656e74206f776e6560008201527f7200000000000000000000000000000000000000000000000000000000000000602082015250565b600061284b602183611fe4565b9150612856826127ef565b604082019050919050565b6000602082019050818103600083015261287a8161283e565b9050919050565b7f4552433732313a20617070726f76652063616c6c6572206973206e6f74206f7760008201527f6e6572206e6f7220617070726f76656420666f7220616c6c0000000000000000602082015250565b60006128dd603883611fe4565b91506128e882612881565b604082019050919050565b6000602082019050818103600083015261290c816128d0565b9050919050565b7f4552433732313a207472616e736665722063616c6c6572206973206e6f74206f60008201527f776e6572206e6f7220617070726f766564000000000000000000000000000000602082015250565b600061296f603183611fe4565b915061297a82612913565b604082019050919050565b6000602082019050818103600083015261299e81612962565b9050919050565b7f4f776e61626c653a2063616c6c6572206973206e6f7420746865206f776e6572600082015250565b60006129db602083611fe4565b91506129e6826129a5565b602082019050919050565b60006020820190508181036000830152612a0a816129ce565b9050919050565b7f4552433732313a206f776e657220717565727920666f72206e6f6e657869737460008201527f656e7420746f6b656e0000000000000000000000000000000000000000000000602082015250565b6000612a6d602983611fe4565b9150612a7882612a11565b604082019050919050565b60006020820190508181036000830152612a9c81612a60565b9050919050565b7f4e487b7100000000000000000000000000000000000000000000000000000000600052601160045260246000fd5b6000612add82612094565b9150612ae883612094565b9250827fffffffffffffffffffffffffffffffffffffffffffffffffffffffffffffffff03821115612b1d57612b1c612aa3565b5b828201905092915050565b7f4552433732313a2062616c616e636520717565727920666f7220746865207a6560008201527f726f206164647265737300000000000000000000000000000000000000000000602082015250565b6000612b84602a83611fe4565b9150612b8f82612b28565b604082019050919050565b60006020820190508181036000830152612bb381612b77565b9050919050565b7f4552433732314d657461646174613a2055524920717565727920666f72206e6f60008201527f6e6578697374656e7420746f6b656e0000000000000000000000000000000000602082015250565b6000612c16602f83611fe4565b9150612c2182612bba565b604082019050919050565b60006020820190508181036000830152612c4581612c09565b9050919050565b600081905092915050565b6000612c6282611fd9565b612c6c8185612c4c565b9350612c7c818560208601611ff5565b80840191505092915050565b6000612c948285612c57565b9150612ca08284612c57565b91508190509392505050565b7f4e487b7100000000000000000000000000000000000000000000000000000000600052603260045260246000fd5b6000612ce682612094565b91507fffffffffffffffffffffffffffffffffffffffffffffffffffffffffffffffff821415612d1957612d18612aa3565b5b600182019050919050565b6000612d2f82612094565b9150612d3a83612094565b925082821015612d4d57612d4c612aa3565b5b828203905092915050565b7f4f776e61626c653a206e6577206f776e657220697320746865207a65726f206160008201527f6464726573730000000000000000000000000000000000000000000000000000602082015250565b6000612db4602683611fe4565b9150612dbf82612d58565b604082019050919050565b60006020820190508181036000830152612de381612da7565b9050919050565b7f4552433732313a206f70657261746f7220717565727920666f72206e6f6e657860008201527f697374656e7420746f6b656e0000000000000000000000000000000000000000602082015250565b6000612e46602c83611fe4565b9150612e5182612dea565b604082019050919050565b60006020820190508181036000830152612e7581612e39565b9050919050565b7f4552433732313a207472616e73666572206f6620746f6b656e2074686174206960008201527f73206e6f74206f776e0000000000000000000000000000000000000000000000602082015250565b6000612ed8602983611fe4565b9150612ee382612e7c565b604082019050919050565b60006020820190508181036000830152612f0781612ecb565b9050919050565b7f4552433732313a207472616e7366657220746f20746865207a65726f2061646460008201527f7265737300000000000000000000000000000000000000000000000000000000602082015250565b6000612f6a602483611fe4565b9150612f7582612f0e565b604082019050919050565b60006020820190508181036000830152612f9981612f5d565b9050919050565b7f4552433732313a206d696e7420746f20746865207a65726f2061646472657373600082015250565b6000612fd6602083611fe4565b9150612fe182612fa0565b602082019050919050565b6000602082019050818103600083015261300581612fc9565b9050919050565b7f4552433732313a20746f6b656e20616c7265616479206d696e74656400000000600082015250565b6000613042601c83611fe4565b915061304d8261300c565b602082019050919050565b6000602082019050818103600083015261307181613035565b9050919050565b7f4552433732313a20617070726f766520746f2063616c6c657200000000000000600082015250565b60006130ae601983611fe4565b91506130b982613078565b602082019050919050565b600060208201905081810360008301526130dd816130a1565b9050919050565b7f4552433732313a207472616e7366657220746f206e6f6e20455243373231526560008201527f63656976657220696d706c656d656e7465720000000000000000000000000000602082015250565b6000613140603283611fe4565b915061314b826130e4565b604082019050919050565b6000602082019050818103600083015261316f81613133565b9050919050565b7f4e487b7100000000000000000000000000000000000000000000000000000000600052601260045260246000fd5b60006131b082612094565b91506131bb83612094565b9250826131cb576131ca613176565b5b828204905092915050565b60006131e182612094565b91506131ec83612094565b9250826131fc576131fb613176565b5b828206905092915050565b600081519050919050565b600082825260208201905092915050565b600061322e82613207565b6132388185613212565b9350613248818560208601611ff5565b61325181612028565b840191505092915050565b60006080820190506132716000830187612129565b61327e6020830186612129565b61328b60408301856121bf565b818103606083015261329d8184613223565b905095945050505050565b6000815190506132b781611f4a565b92915050565b6000602082840312156132d3576132d2611f14565b5b60006132e1848285016132a8565b9150509291505056fea2646970667358221220b2d3f5ada05676aaeb8af2034f0d792b6a7416762394c51eda54f1df8cfaa9aa64736f6c634300080a0033",
  "immutableReferences": {},
  "source": "// SPDX-License-Identifier: MIT\npragma solidity >=0.4.22 <0.9.0;\n\nimport \"@openzeppelin/contracts/access/Ownable.sol\";\nimport \"@openzeppelin/contracts/token/ERC721/ERC721.sol\";\n\ncontract NftBase is ERC721, Ownable {\n  bytes32 public constant MINTER_ROLE = keccak256(\"MINTER_ROLE\");\n  string private _tokenBaseURI;\n  uint256 private _latestTokenID;\n  \n  constructor(string memory name, string memory symbol, string memory uri) ERC721(name, symbol) {\n    _tokenBaseURI = uri;\n    _latestTokenID = 0;\n  }\n\n  function exists(uint256 tokenId) public view returns (bool) {\n    return _exists(tokenId);\n  }\n\n  function mint(address owner) public onlyOwner returns (uint256) {\n    uint256 tokenId = _latestTokenID + 1;\n    _mint(owner, tokenId);\n    _latestTokenID = tokenId;\n    return tokenId;\n  }\n\n  function batchMint(address[] memory owners) public onlyOwner returns (uint256) {\n    uint256 beginToken = _latestTokenID + 1;\n    for(uint i = 0; i < owners.length; i++) {\n      address addr = owners[i];\n      uint256 tokenId = beginToken + i;\n      _mint(addr, tokenId);\n    }\n    _latestTokenID = beginToken + owners.length - 1;\n    return beginToken + owners.length;\n  }\n\n  function burn(uint256 tokenId) public onlyOwner {\n    _burn(tokenId);\n  }\n\n  function setBaseURI(string memory baseURI) public onlyOwner {\n    _tokenBaseURI = baseURI;\n  }\n\n  function totalSupply() public view returns (uint256) {\n    return _latestTokenID;\n  }\n\n  function _baseURI() internal view override returns (string memory) {\n    return _tokenBaseURI;\n  }\n}",
  "sourcePath": "/Users/drgarbage/Documents/02.Projects/crypto-service-starter/contracts/contracts/nfts/NftBase.sol",
  "compiler": {
    "name": "solc",
    "version": "0.8.10+commit.fc410830.Emscripten.clang"
  },
  "schemaVersion": "3.3.4",
  "updatedAt": "2021-12-14T04:14:20.849Z",
  "devdoc": {
    "kind": "dev",
    "methods": {
      "approve(address,uint256)": {
        "details": "See {IERC721-approve}."
      },
      "balanceOf(address)": {
        "details": "See {IERC721-balanceOf}."
      },
      "getApproved(uint256)": {
        "details": "See {IERC721-getApproved}."
      },
      "isApprovedForAll(address,address)": {
        "details": "See {IERC721-isApprovedForAll}."
      },
      "name()": {
        "details": "See {IERC721Metadata-name}."
      },
      "owner()": {
        "details": "Returns the address of the current owner."
      },
      "ownerOf(uint256)": {
        "details": "See {IERC721-ownerOf}."
      },
      "renounceOwnership()": {
        "details": "Leaves the contract without owner. It will not be possible to call `onlyOwner` functions anymore. Can only be called by the current owner. NOTE: Renouncing ownership will leave the contract without an owner, thereby removing any functionality that is only available to the owner."
      },
      "safeTransferFrom(address,address,uint256)": {
        "details": "See {IERC721-safeTransferFrom}."
      },
      "safeTransferFrom(address,address,uint256,bytes)": {
        "details": "See {IERC721-safeTransferFrom}."
      },
      "setApprovalForAll(address,bool)": {
        "details": "See {IERC721-setApprovalForAll}."
      },
      "supportsInterface(bytes4)": {
        "details": "See {IERC165-supportsInterface}."
      },
      "symbol()": {
        "details": "See {IERC721Metadata-symbol}."
      },
      "tokenURI(uint256)": {
        "details": "See {IERC721Metadata-tokenURI}."
      },
      "transferFrom(address,address,uint256)": {
        "details": "See {IERC721-transferFrom}."
      },
      "transferOwnership(address)": {
        "details": "Transfers ownership of the contract to a new account (`newOwner`). Can only be called by the current owner."
      }
    },
    "version": 1
  },
  "userdoc": {
    "kind": "user",
    "methods": {},
    "version": 1
  }
}