{
  "contractName": "NftMarket",
  "abi": [
    {
      "inputs": [
        {
          "internalType": "contract MainPool",
          "name": "pool",
          "type": "address"
        },
        {
          "internalType": "contract IERC20",
          "name": "mainCoin",
          "type": "address"
        }
      ],
      "stateMutability": "nonpayable",
      "type": "constructor"
    },
    {
      "anonymous": false,
      "inputs": [
        {
          "indexed": true,
          "internalType": "bytes32",
          "name": "bookId",
          "type": "bytes32"
        },
        {
          "indexed": true,
          "internalType": "address",
          "name": "buyer",
          "type": "address"
        },
        {
          "indexed": false,
          "internalType": "uint256",
          "name": "price",
          "type": "uint256"
        }
      ],
      "name": "Bidded",
      "type": "event"
    },
    {
      "anonymous": false,
      "inputs": [
        {
          "indexed": true,
          "internalType": "bytes32",
          "name": "bookId",
          "type": "bytes32"
        },
        {
          "indexed": true,
          "internalType": "address",
          "name": "seller",
          "type": "address"
        },
        {
          "indexed": false,
          "internalType": "uint256",
          "name": "price",
          "type": "uint256"
        }
      ],
      "name": "Booked",
      "type": "event"
    },
    {
      "anonymous": false,
      "inputs": [
        {
          "indexed": true,
          "internalType": "bytes32",
          "name": "bookId",
          "type": "bytes32"
        },
        {
          "indexed": true,
          "internalType": "address",
          "name": "seller",
          "type": "address"
        },
        {
          "indexed": true,
          "internalType": "address",
          "name": "buyer",
          "type": "address"
        },
        {
          "indexed": false,
          "internalType": "uint256",
          "name": "price",
          "type": "uint256"
        }
      ],
      "name": "Dealed",
      "type": "event"
    },
    {
      "inputs": [
        {
          "internalType": "bytes32",
          "name": "",
          "type": "bytes32"
        }
      ],
      "name": "biddings",
      "outputs": [
        {
          "internalType": "bytes32",
          "name": "bookId",
          "type": "bytes32"
        },
        {
          "internalType": "address",
          "name": "buyer",
          "type": "address"
        },
        {
          "internalType": "uint256",
          "name": "price",
          "type": "uint256"
        }
      ],
      "stateMutability": "view",
      "type": "function",
      "constant": true
    },
    {
      "inputs": [
        {
          "internalType": "bytes32",
          "name": "",
          "type": "bytes32"
        }
      ],
      "name": "books",
      "outputs": [
        {
          "internalType": "address",
          "name": "nftContract",
          "type": "address"
        },
        {
          "internalType": "uint256",
          "name": "tokenId",
          "type": "uint256"
        },
        {
          "internalType": "uint256",
          "name": "price",
          "type": "uint256"
        },
        {
          "internalType": "uint256",
          "name": "stamp",
          "type": "uint256"
        }
      ],
      "stateMutability": "view",
      "type": "function",
      "constant": true
    },
    {
      "inputs": [],
      "name": "pool",
      "outputs": [
        {
          "internalType": "contract MainPool",
          "name": "",
          "type": "address"
        }
      ],
      "stateMutability": "view",
      "type": "function",
      "constant": true
    },
    {
      "inputs": [
        {
          "internalType": "address",
          "name": "nftContract",
          "type": "address"
        },
        {
          "internalType": "uint256",
          "name": "tokenId",
          "type": "uint256"
        }
      ],
      "name": "index",
      "outputs": [
        {
          "internalType": "bytes32",
          "name": "",
          "type": "bytes32"
        }
      ],
      "stateMutability": "pure",
      "type": "function",
      "constant": true
    },
    {
      "inputs": [
        {
          "internalType": "bytes32",
          "name": "bookId",
          "type": "bytes32"
        },
        {
          "internalType": "address",
          "name": "buyer",
          "type": "address"
        }
      ],
      "name": "biddingIndex",
      "outputs": [
        {
          "internalType": "bytes32",
          "name": "",
          "type": "bytes32"
        }
      ],
      "stateMutability": "view",
      "type": "function",
      "constant": true
    },
    {
      "inputs": [
        {
          "internalType": "address",
          "name": "nftContract",
          "type": "address"
        },
        {
          "internalType": "uint256",
          "name": "tokenId",
          "type": "uint256"
        }
      ],
      "name": "priceOf",
      "outputs": [
        {
          "internalType": "uint256",
          "name": "",
          "type": "uint256"
        }
      ],
      "stateMutability": "view",
      "type": "function",
      "constant": true
    },
    {
      "inputs": [
        {
          "internalType": "address",
          "name": "nftContract",
          "type": "address"
        },
        {
          "internalType": "uint256",
          "name": "tokenId",
          "type": "uint256"
        },
        {
          "internalType": "uint256",
          "name": "price",
          "type": "uint256"
        }
      ],
      "name": "book",
      "outputs": [
        {
          "internalType": "bytes32",
          "name": "",
          "type": "bytes32"
        }
      ],
      "stateMutability": "nonpayable",
      "type": "function"
    },
    {
      "inputs": [
        {
          "internalType": "bytes32",
          "name": "bookId",
          "type": "bytes32"
        },
        {
          "internalType": "uint256",
          "name": "price",
          "type": "uint256"
        }
      ],
      "name": "bid",
      "outputs": [
        {
          "internalType": "bytes32",
          "name": "",
          "type": "bytes32"
        }
      ],
      "stateMutability": "nonpayable",
      "type": "function"
    },
    {
      "inputs": [
        {
          "internalType": "bytes32",
          "name": "bidId",
          "type": "bytes32"
        }
      ],
      "name": "sell",
      "outputs": [],
      "stateMutability": "nonpayable",
      "type": "function"
    },
    {
      "inputs": [
        {
          "internalType": "bytes32",
          "name": "bookId",
          "type": "bytes32"
        }
      ],
      "name": "buy",
      "outputs": [],
      "stateMutability": "nonpayable",
      "type": "function"
    }
  ],
  "bytecode": "0x60806040523480156200001157600080fd5b506040516200218b3803806200218b833981810160405281019062000037919062000185565b81806000806101000a81548173ffffffffffffffffffffffffffffffffffffffff021916908373ffffffffffffffffffffffffffffffffffffffff1602179055505080600160006101000a81548173ffffffffffffffffffffffffffffffffffffffff021916908373ffffffffffffffffffffffffffffffffffffffff1602179055505050620001cc565b600080fd5b600073ffffffffffffffffffffffffffffffffffffffff82169050919050565b6000620000f482620000c7565b9050919050565b60006200010882620000e7565b9050919050565b6200011a81620000fb565b81146200012657600080fd5b50565b6000815190506200013a816200010f565b92915050565b60006200014d82620000e7565b9050919050565b6200015f8162000140565b81146200016b57600080fd5b50565b6000815190506200017f8162000154565b92915050565b600080604083850312156200019f576200019e620000c2565b5b6000620001af8582860162000129565b9250506020620001c2858286016200016e565b9150509250929050565b611faf80620001dc6000396000f3fe608060405234801561001057600080fd5b506004361061009e5760003560e01c80639c9a1061116100665780639c9a106114610170578063c78e687c1461018c578063cd772f5c146101bc578063eef93af3146101ec578063fc3d545d1461021e5761009e565b80630c0dee70146100a35780630c2533cb146100d657806316f0115b146100f257806359fc1a6e1461011057806364ba5db214610140575b600080fd5b6100bd60048036038101906100b891906116f0565b61024e565b6040516100cd9493929190611777565b60405180910390f35b6100f060048036038101906100eb91906116f0565b61029e565b005b6100fa610b58565b604051610107919061181b565b60405180910390f35b61012a6004803603810190610125919061188e565b610b7c565b60405161013791906118dd565b60405180910390f35b61015a600480360381019061015591906118f8565b610baf565b60405161016791906118dd565b60405180910390f35b61018a600480360381019061018591906116f0565b610bfa565b005b6101a660048036038101906101a19190611938565b61118c565b6040516101b391906118dd565b60405180910390f35b6101d660048036038101906101d1919061198b565b6113f0565b6040516101e391906118dd565b60405180910390f35b610206600480360381019061020191906116f0565b611641565b604051610215939291906119cb565b60405180910390f35b6102386004803603810190610233919061188e565b61168b565b6040516102459190611a02565b60405180910390f35b60026020528060005260406000206000915090508060000160009054906101000a900473ffffffffffffffffffffffffffffffffffffffff16908060010154908060020154908060030154905084565b80600060036000838152602001908152602001600020604051806060016040529081600082015481526020016001820160009054906101000a900473ffffffffffffffffffffffffffffffffffffffff1673ffffffffffffffffffffffffffffffffffffffff1673ffffffffffffffffffffffffffffffffffffffff16815260200160028201548152505090508161033e82600001518360200151610baf565b1461037e576040517f08c379a000000000000000000000000000000000000000000000000000000000815260040161037590611a7a565b60405180910390fd5b60036000848152602001908152602001600020600001546000600260008381526020019081526020016000206040518060800160405290816000820160009054906101000a900473ffffffffffffffffffffffffffffffffffffffff1673ffffffffffffffffffffffffffffffffffffffff1673ffffffffffffffffffffffffffffffffffffffff16815260200160018201548152602001600282015481526020016003820154815250509050600081600001519050600073ffffffffffffffffffffffffffffffffffffffff168173ffffffffffffffffffffffffffffffffffffffff1614156104a4576040517f08c379a000000000000000000000000000000000000000000000000000000000815260040161049b90611ae6565b60405180910390fd5b3373ffffffffffffffffffffffffffffffffffffffff168173ffffffffffffffffffffffffffffffffffffffff16636352211e84602001516040518263ffffffff1660e01b81526004016104f89190611a02565b602060405180830381865afa158015610515573d6000803e3d6000fd5b505050506040513d601f19601f820116820180604052508101906105399190611b1b565b73ffffffffffffffffffffffffffffffffffffffff161461058f576040517f08c379a000000000000000000000000000000000000000000000000000000000815260040161058690611b94565b60405180910390fd5b3073ffffffffffffffffffffffffffffffffffffffff168173ffffffffffffffffffffffffffffffffffffffff1663081812fc84602001516040518263ffffffff1660e01b81526004016105e39190611a02565b602060405180830381865afa158015610600573d6000803e3d6000fd5b505050506040513d601f19601f820116820180604052508101906106249190611b1b565b73ffffffffffffffffffffffffffffffffffffffff161461067a576040517f08c379a000000000000000000000000000000000000000000000000000000000815260040161067190611c26565b60405180910390fd5b600060036000888152602001908152602001600020604051806060016040529081600082015481526020016001820160009054906101000a900473ffffffffffffffffffffffffffffffffffffffff1673ffffffffffffffffffffffffffffffffffffffff1673ffffffffffffffffffffffffffffffffffffffff1681526020016002820154815250509050600060026000836000015181526020019081526020016000206040518060800160405290816000820160009054906101000a900473ffffffffffffffffffffffffffffffffffffffff1673ffffffffffffffffffffffffffffffffffffffff1673ffffffffffffffffffffffffffffffffffffffff168152602001600182015481526020016002820154815260200160038201548152505090506000816000015190508260400151600160009054906101000a900473ffffffffffffffffffffffffffffffffffffffff1673ffffffffffffffffffffffffffffffffffffffff166370a0823185602001516040518263ffffffff1660e01b815260040161080d9190611c46565b602060405180830381865afa15801561082a573d6000803e3d6000fd5b505050506040513d601f19601f8201168201806040525081019061084e9190611c76565b101561088f576040517f08c379a000000000000000000000000000000000000000000000000000000000815260040161088690611d15565b60405180910390fd5b60008173ffffffffffffffffffffffffffffffffffffffff16636352211e84602001516040518263ffffffff1660e01b81526004016108ce9190611a02565b602060405180830381865afa1580156108eb573d6000803e3d6000fd5b505050506040513d601f19601f8201168201806040525081019061090f9190611b1b565b9050600160009054906101000a900473ffffffffffffffffffffffffffffffffffffffff1673ffffffffffffffffffffffffffffffffffffffff166323b872dd85602001513087604001516040518463ffffffff1660e01b815260040161097893929190611d35565b6020604051808303816000875af1158015610997573d6000803e3d6000fd5b505050506040513d601f19601f820116820180604052508101906109bb9190611da4565b508173ffffffffffffffffffffffffffffffffffffffff166342842e0e82866020015186602001516040518463ffffffff1660e01b8152600401610a0193929190611d35565b600060405180830381600087803b158015610a1b57600080fd5b505af1158015610a2f573d6000803e3d6000fd5b50505050600160009054906101000a900473ffffffffffffffffffffffffffffffffffffffff1673ffffffffffffffffffffffffffffffffffffffff166323b872dd308387604001516040518463ffffffff1660e01b8152600401610a9693929190611d35565b6020604051808303816000875af1158015610ab5573d6000803e3d6000fd5b505050506040513d601f19601f82011682018060405250810190610ad99190611da4565b50836020015173ffffffffffffffffffffffffffffffffffffffff168173ffffffffffffffffffffffffffffffffffffffff1685600001517fefaee0383d6b665f74cd38e144f1eed7e26c49cb6688e125ea49c9b5d349a03e8760400151604051610b449190611a02565b60405180910390a450505050505050505050565b60008054906101000a900473ffffffffffffffffffffffffffffffffffffffff1681565b60008282604051602001610b91929190611e3a565b60405160208183030381529060405280519060200120905092915050565b600082600260008581526020019081526020016000206003015483604051602001610bdc93929190611e87565b60405160208183030381529060405280519060200120905092915050565b806000600260008381526020019081526020016000206040518060800160405290816000820160009054906101000a900473ffffffffffffffffffffffffffffffffffffffff1673ffffffffffffffffffffffffffffffffffffffff1673ffffffffffffffffffffffffffffffffffffffff16815260200160018201548152602001600282015481526020016003820154815250509050600081600001519050600073ffffffffffffffffffffffffffffffffffffffff168173ffffffffffffffffffffffffffffffffffffffff161415610d0a576040517f08c379a0000000000000000000000000000000000000000000000000000000008152600401610d0190611ae6565b60405180910390fd5b3373ffffffffffffffffffffffffffffffffffffffff168173ffffffffffffffffffffffffffffffffffffffff16636352211e84602001516040518263ffffffff1660e01b8152600401610d5e9190611a02565b602060405180830381865afa158015610d7b573d6000803e3d6000fd5b505050506040513d601f19601f82011682018060405250810190610d9f9190611b1b565b73ffffffffffffffffffffffffffffffffffffffff1614610df5576040517f08c379a0000000000000000000000000000000000000000000000000000000008152600401610dec90611b94565b60405180910390fd5b3073ffffffffffffffffffffffffffffffffffffffff168173ffffffffffffffffffffffffffffffffffffffff1663081812fc84602001516040518263ffffffff1660e01b8152600401610e499190611a02565b602060405180830381865afa158015610e66573d6000803e3d6000fd5b505050506040513d601f19601f82011682018060405250810190610e8a9190611b1b565b73ffffffffffffffffffffffffffffffffffffffff1614610ee0576040517f08c379a0000000000000000000000000000000000000000000000000000000008152600401610ed790611c26565b60405180910390fd5b6000600260008681526020019081526020016000206040518060800160405290816000820160009054906101000a900473ffffffffffffffffffffffffffffffffffffffff1673ffffffffffffffffffffffffffffffffffffffff1673ffffffffffffffffffffffffffffffffffffffff1681526020016001820154815260200160028201548152602001600382015481525050905060008160000151905060008173ffffffffffffffffffffffffffffffffffffffff16636352211e84602001516040518263ffffffff1660e01b8152600401610fbe9190611a02565b602060405180830381865afa158015610fdb573d6000803e3d6000fd5b505050506040513d601f19601f82011682018060405250810190610fff9190611b1b565b9050600160009054906101000a900473ffffffffffffffffffffffffffffffffffffffff1673ffffffffffffffffffffffffffffffffffffffff1663a9059cbb8285604001516040518363ffffffff1660e01b8152600401611062929190611ec4565b6020604051808303816000875af1158015611081573d6000803e3d6000fd5b505050506040513d601f19601f820116820180604052508101906110a59190611da4565b508173ffffffffffffffffffffffffffffffffffffffff166342842e0e823386602001516040518463ffffffff1660e01b81526004016110e793929190611d35565b600060405180830381600087803b15801561110157600080fd5b505af1158015611115573d6000803e3d6000fd5b505050503373ffffffffffffffffffffffffffffffffffffffff168173ffffffffffffffffffffffffffffffffffffffff16887fefaee0383d6b665f74cd38e144f1eed7e26c49cb6688e125ea49c9b5d349a03e866040015160405161117b9190611a02565b60405180910390a450505050505050565b60003373ffffffffffffffffffffffffffffffffffffffff168473ffffffffffffffffffffffffffffffffffffffff16636352211e856040518263ffffffff1660e01b81526004016111de9190611a02565b602060405180830381865afa1580156111fb573d6000803e3d6000fd5b505050506040513d601f19601f8201168201806040525081019061121f9190611b1b565b73ffffffffffffffffffffffffffffffffffffffff1614611275576040517f08c379a000000000000000000000000000000000000000000000000000000000815260040161126c90611b94565b60405180910390fd5b60006112818585610b7c565b9050846002600083815260200190815260200160002060000160006101000a81548173ffffffffffffffffffffffffffffffffffffffff021916908373ffffffffffffffffffffffffffffffffffffffff1602179055508360026000838152602001908152602001600020600101819055508260026000838152602001908152602001600020600201819055504260026000838152602001908152602001600020600301819055508473ffffffffffffffffffffffffffffffffffffffff1663095ea7b330866040518363ffffffff1660e01b8152600401611364929190611ec4565b600060405180830381600087803b15801561137e57600080fd5b505af1158015611392573d6000803e3d6000fd5b505050503373ffffffffffffffffffffffffffffffffffffffff16817f0f03de403cc9a81032f66241495d33b12a79d64edd5454501537c97ff7adf165856040516113dd9190611a02565b60405180910390a3809150509392505050565b600080600160009054906101000a900473ffffffffffffffffffffffffffffffffffffffff1673ffffffffffffffffffffffffffffffffffffffff1663dd62ed3e33306040518363ffffffff1660e01b8152600401611450929190611eed565b602060405180830381865afa15801561146d573d6000803e3d6000fd5b505050506040513d601f19601f820116820180604052508101906114919190611c76565b90508281101561154e57600081846114a99190611f45565b9050600160009054906101000a900473ffffffffffffffffffffffffffffffffffffffff1673ffffffffffffffffffffffffffffffffffffffff1663095ea7b330836040518363ffffffff1660e01b8152600401611508929190611ec4565b6020604051808303816000875af1158015611527573d6000803e3d6000fd5b505050506040513d601f19601f8201168201806040525081019061154b9190611da4565b50505b600061155a8533610baf565b9050846003600083815260200190815260200160002060000181905550336003600083815260200190815260200160002060010160006101000a81548173ffffffffffffffffffffffffffffffffffffffff021916908373ffffffffffffffffffffffffffffffffffffffff1602179055508360036000838152602001908152602001600020600201819055503373ffffffffffffffffffffffffffffffffffffffff16857f59ff41de97ccf2233103df7351ae4c42c5ede488a76a817e9d58cd771f1a2a348660405161162e9190611a02565b60405180910390a3809250505092915050565b60036020528060005260406000206000915090508060000154908060010160009054906101000a900473ffffffffffffffffffffffffffffffffffffffff16908060020154905083565b60006002600061169b8585610b7c565b815260200190815260200160002060020154905092915050565b600080fd5b6000819050919050565b6116cd816116ba565b81146116d857600080fd5b50565b6000813590506116ea816116c4565b92915050565b600060208284031215611706576117056116b5565b5b6000611714848285016116db565b91505092915050565b600073ffffffffffffffffffffffffffffffffffffffff82169050919050565b60006117488261171d565b9050919050565b6117588161173d565b82525050565b6000819050919050565b6117718161175e565b82525050565b600060808201905061178c600083018761174f565b6117996020830186611768565b6117a66040830185611768565b6117b36060830184611768565b95945050505050565b6000819050919050565b60006117e16117dc6117d78461171d565b6117bc565b61171d565b9050919050565b60006117f3826117c6565b9050919050565b6000611805826117e8565b9050919050565b611815816117fa565b82525050565b6000602082019050611830600083018461180c565b92915050565b61183f8161173d565b811461184a57600080fd5b50565b60008135905061185c81611836565b92915050565b61186b8161175e565b811461187657600080fd5b50565b60008135905061188881611862565b92915050565b600080604083850312156118a5576118a46116b5565b5b60006118b38582860161184d565b92505060206118c485828601611879565b9150509250929050565b6118d7816116ba565b82525050565b60006020820190506118f260008301846118ce565b92915050565b6000806040838503121561190f5761190e6116b5565b5b600061191d858286016116db565b925050602061192e8582860161184d565b9150509250929050565b600080600060608486031215611951576119506116b5565b5b600061195f8682870161184d565b935050602061197086828701611879565b925050604061198186828701611879565b9150509250925092565b600080604083850312156119a2576119a16116b5565b5b60006119b0858286016116db565b92505060206119c185828601611879565b9150509250929050565b60006060820190506119e060008301866118ce565b6119ed602083018561174f565b6119fa6040830184611768565b949350505050565b6000602082019050611a176000830184611768565b92915050565b600082825260208201905092915050565b7f496e76616c696420426964000000000000000000000000000000000000000000600082015250565b6000611a64600b83611a1d565b9150611a6f82611a2e565b602082019050919050565b60006020820190508181036000830152611a9381611a57565b9050919050565b7f4e465420436f6e747261637420756e617661696c61626c650000000000000000600082015250565b6000611ad0601883611a1d565b9150611adb82611a9a565b602082019050919050565b60006020820190508181036000830152611aff81611ac3565b9050919050565b600081519050611b1581611836565b92915050565b600060208284031215611b3157611b306116b5565b5b6000611b3f84828501611b06565b91505092915050565b7f43616c6c656520646f65736e2774206f776e207468697320746f6b656e000000600082015250565b6000611b7e601d83611a1d565b9150611b8982611b48565b602082019050919050565b60006020820190508181036000830152611bad81611b71565b9050919050565b7f4f776e6572206861736e2774206772616e74207065726d697373696f6e20666f60008201527f722073656c6c0000000000000000000000000000000000000000000000000000602082015250565b6000611c10602683611a1d565b9150611c1b82611bb4565b604082019050919050565b60006020820190508181036000830152611c3f81611c03565b9050919050565b6000602082019050611c5b600083018461174f565b92915050565b600081519050611c7081611862565b92915050565b600060208284031215611c8c57611c8b6116b5565b5b6000611c9a84828501611c61565b91505092915050565b7f427579657220646f65736e2774206861766520656e6f756768206d6f6e65792060008201527f746f207061790000000000000000000000000000000000000000000000000000602082015250565b6000611cff602683611a1d565b9150611d0a82611ca3565b604082019050919050565b60006020820190508181036000830152611d2e81611cf2565b9050919050565b6000606082019050611d4a600083018661174f565b611d57602083018561174f565b611d646040830184611768565b949350505050565b60008115159050919050565b611d8181611d6c565b8114611d8c57600080fd5b50565b600081519050611d9e81611d78565b92915050565b600060208284031215611dba57611db96116b5565b5b6000611dc884828501611d8f565b91505092915050565b60008160601b9050919050565b6000611de982611dd1565b9050919050565b6000611dfb82611dde565b9050919050565b611e13611e0e8261173d565b611df0565b82525050565b6000819050919050565b611e34611e2f8261175e565b611e19565b82525050565b6000611e468285611e02565b601482019150611e568284611e23565b6020820191508190509392505050565b6000819050919050565b611e81611e7c826116ba565b611e66565b82525050565b6000611e938286611e70565b602082019150611ea38285611e23565b602082019150611eb38284611e02565b601482019150819050949350505050565b6000604082019050611ed9600083018561174f565b611ee66020830184611768565b9392505050565b6000604082019050611f02600083018561174f565b611f0f602083018461174f565b9392505050565b7f4e487b7100000000000000000000000000000000000000000000000000000000600052601160045260246000fd5b6000611f508261175e565b9150611f5b8361175e565b925082821015611f6e57611f6d611f16565b5b82820390509291505056fea2646970667358221220f1e3e2a9b0ee6e41c081e1c29e468b386c12805fb26052ca0544c24b3019e50b64736f6c634300080a0033",
  "immutableReferences": {},
  "source": "// SPDX-License-Identifier: MIT\npragma solidity >=0.4.22 <0.9.0;\n\n// ERC721 = 0x80ac58cd, ERC1155 = 0xd9b67a26\n\nimport \"@openzeppelin/contracts/token/ERC20/IERC20.sol\";\nimport \"@openzeppelin/contracts/token/ERC721/IERC721.sol\";\nimport \"./libs/ServiceBase.sol\";\n\ncontract NftMarket is ServiceBase {\n\n  IERC20 money;\n\n  constructor(MainPool pool, IERC20 mainCoin) ServiceBase(pool) {\n    money = mainCoin;\n  }\n  \n  struct Book {\n    address nftContract;\n    uint256 tokenId;\n    uint256 price;\n    uint256 stamp;\n  }\n\n  struct Bid {\n    bytes32 bookId;\n    address buyer;\n    uint256 price;\n  }\n\n  mapping(bytes32 => Book) public books;\n  mapping(bytes32 => Bid) public biddings;\n\n  event Booked(bytes32 indexed bookId, address indexed seller, uint256 price);\n  event Bidded(bytes32 indexed bookId, address indexed buyer, uint256 price);\n  event Dealed(bytes32 indexed bookId, address indexed seller, address indexed buyer, uint256 price);\n\n  modifier isValidBid(bytes32 bidId) {\n    Bid memory bidding = biddings[bidId];\n    require(biddingIndex(bidding.bookId, bidding.buyer) == bidId, \"Invalid Bid\");\n    _;\n  }\n\n  modifier isValidBook(bytes32 bookId) {\n    Book memory booking = books[bookId];\n    IERC721 nftContract = IERC721(booking.nftContract);\n\n    require(address(nftContract) != address(0), \"NFT Contract unavailable\");\n    require(nftContract.ownerOf(booking.tokenId) == msg.sender, \"Callee doesn't own this token\");\n    require(nftContract.getApproved(booking.tokenId) == address(this), \"Owner hasn't grant permission for sell\");\n    _;\n  }\n\n  function index(address nftContract, uint256 tokenId) public pure returns (bytes32) {\n    return keccak256(abi.encodePacked(nftContract, tokenId));\n  }\n\n  function biddingIndex(bytes32 bookId, address buyer) public view returns (bytes32) {\n    return keccak256(abi.encodePacked(bookId, books[bookId].stamp, buyer));\n  }\n\n  function priceOf(address nftContract, uint256 tokenId) public view returns (uint256) {\n    return books[index(nftContract, tokenId)].price;\n  }\n\n  function book(address nftContract, uint256 tokenId, uint256 price) public returns (bytes32) {\n    require(IERC721(nftContract).ownerOf(tokenId) == msg.sender, \"Callee doesn't own this token\");\n\n    bytes32 bookId = index(nftContract, tokenId);\n    books[bookId].nftContract = nftContract;\n    books[bookId].tokenId = tokenId;\n    books[bookId].price = price;\n    books[bookId].stamp = block.timestamp;\n\n    IERC721(nftContract).approve(address(this), tokenId);\n\n    emit Booked(bookId, msg.sender, price);\n\n    return bookId;\n  }\n\n  function bid(bytes32 bookId, uint256 price) public returns (bytes32) {\n    uint256 allowance = money.allowance(msg.sender, address(this));\n    if(allowance < price) {\n      uint256 offset = price - allowance;\n      money.approve(address(this), offset);\n    }\n\n    bytes32 bidId = biddingIndex(bookId, msg.sender);\n    biddings[bidId].bookId = bookId;\n    biddings[bidId].buyer = msg.sender;\n    biddings[bidId].price = price;\n\n    emit Bidded(bookId, msg.sender, price);\n\n    return bidId;\n  }\n\n  function sell(bytes32 bidId) public isValidBid(bidId) isValidBook(biddings[bidId].bookId) {\n    \n    Bid memory bidding = biddings[bidId];\n    Book memory booking = books[bidding.bookId];\n    IERC721 nftContract = IERC721(booking.nftContract);\n\n    require(money.balanceOf(bidding.buyer) >= bidding.price, \"Buyer doesn't have enough money to pay\");\n\n    address owner = nftContract.ownerOf(booking.tokenId);\n\n    money.transferFrom(bidding.buyer, address(this), bidding.price);\n    nftContract.safeTransferFrom(owner, bidding.buyer, booking.tokenId);\n    money.transferFrom(address(this), owner, bidding.price);\n\n    emit Dealed(bidding.bookId, owner, bidding.buyer, bidding.price);\n  }\n\n  function buy(bytes32 bookId) public isValidBook(bookId){\n    Book memory booking = books[bookId];\n    IERC721 nftContract = IERC721(booking.nftContract);\n    address owner = nftContract.ownerOf(booking.tokenId);\n\n    money.transfer(owner, booking.price);\n    nftContract.safeTransferFrom(owner, msg.sender, booking.tokenId);\n\n    emit Dealed(bookId, owner, msg.sender, booking.price);\n  }\n}",
  "sourcePath": "/Users/drgarbage/Documents/02.Projects/crypto-service-starter/contracts/contracts/NftMarket.sol",
  "compiler": {
    "name": "solc",
    "version": "0.8.10+commit.fc410830.Emscripten.clang"
  },
  "schemaVersion": "3.3.4",
  "updatedAt": "2021-12-13T15:33:25.967Z",
  "networkType": "ethereum",
  "devdoc": {
    "kind": "dev",
    "methods": {},
    "version": 1
  },
  "userdoc": {
    "kind": "user",
    "methods": {},
    "version": 1
  }
}