{
  "contractName": "NftMarket",
  "abi": [
    {
      "inputs": [
        {
          "internalType": "contract MainPool",
          "name": "pool",
          "type": "address"
        },
        {
          "internalType": "contract IERC20",
          "name": "mainCoin",
          "type": "address"
        }
      ],
      "stateMutability": "nonpayable",
      "type": "constructor"
    },
    {
      "anonymous": false,
      "inputs": [
        {
          "indexed": true,
          "internalType": "bytes32",
          "name": "bookId",
          "type": "bytes32"
        },
        {
          "indexed": true,
          "internalType": "address",
          "name": "buyer",
          "type": "address"
        },
        {
          "indexed": false,
          "internalType": "uint256",
          "name": "price",
          "type": "uint256"
        }
      ],
      "name": "Bidded",
      "type": "event"
    },
    {
      "anonymous": false,
      "inputs": [
        {
          "indexed": true,
          "internalType": "bytes32",
          "name": "bookId",
          "type": "bytes32"
        },
        {
          "indexed": true,
          "internalType": "address",
          "name": "seller",
          "type": "address"
        },
        {
          "indexed": false,
          "internalType": "uint256",
          "name": "price",
          "type": "uint256"
        }
      ],
      "name": "Booked",
      "type": "event"
    },
    {
      "anonymous": false,
      "inputs": [
        {
          "indexed": true,
          "internalType": "bytes32",
          "name": "bookId",
          "type": "bytes32"
        },
        {
          "indexed": true,
          "internalType": "address",
          "name": "seller",
          "type": "address"
        },
        {
          "indexed": true,
          "internalType": "address",
          "name": "buyer",
          "type": "address"
        },
        {
          "indexed": false,
          "internalType": "uint256",
          "name": "price",
          "type": "uint256"
        }
      ],
      "name": "Dealed",
      "type": "event"
    },
    {
      "inputs": [],
      "name": "bidFee",
      "outputs": [
        {
          "internalType": "uint256",
          "name": "",
          "type": "uint256"
        }
      ],
      "stateMutability": "view",
      "type": "function",
      "constant": true
    },
    {
      "inputs": [
        {
          "internalType": "bytes32",
          "name": "",
          "type": "bytes32"
        }
      ],
      "name": "biddings",
      "outputs": [
        {
          "internalType": "bytes32",
          "name": "bookId",
          "type": "bytes32"
        },
        {
          "internalType": "address",
          "name": "buyer",
          "type": "address"
        },
        {
          "internalType": "uint256",
          "name": "price",
          "type": "uint256"
        },
        {
          "internalType": "uint256",
          "name": "stamp",
          "type": "uint256"
        },
        {
          "internalType": "uint256",
          "name": "due",
          "type": "uint256"
        }
      ],
      "stateMutability": "view",
      "type": "function",
      "constant": true
    },
    {
      "inputs": [
        {
          "internalType": "bytes32",
          "name": "",
          "type": "bytes32"
        }
      ],
      "name": "books",
      "outputs": [
        {
          "internalType": "address",
          "name": "nftContract",
          "type": "address"
        },
        {
          "internalType": "uint256",
          "name": "tokenId",
          "type": "uint256"
        },
        {
          "internalType": "uint256",
          "name": "price",
          "type": "uint256"
        },
        {
          "internalType": "uint256",
          "name": "stamp",
          "type": "uint256"
        },
        {
          "internalType": "uint256",
          "name": "due",
          "type": "uint256"
        }
      ],
      "stateMutability": "view",
      "type": "function",
      "constant": true
    },
    {
      "inputs": [],
      "name": "commissionRateDenominator",
      "outputs": [
        {
          "internalType": "uint256",
          "name": "",
          "type": "uint256"
        }
      ],
      "stateMutability": "view",
      "type": "function",
      "constant": true
    },
    {
      "inputs": [],
      "name": "commissionRateNumerator",
      "outputs": [
        {
          "internalType": "uint256",
          "name": "",
          "type": "uint256"
        }
      ],
      "stateMutability": "view",
      "type": "function",
      "constant": true
    },
    {
      "inputs": [],
      "name": "listFee",
      "outputs": [
        {
          "internalType": "uint256",
          "name": "",
          "type": "uint256"
        }
      ],
      "stateMutability": "view",
      "type": "function",
      "constant": true
    },
    {
      "inputs": [],
      "name": "maxBidDuration",
      "outputs": [
        {
          "internalType": "uint256",
          "name": "",
          "type": "uint256"
        }
      ],
      "stateMutability": "view",
      "type": "function",
      "constant": true
    },
    {
      "inputs": [],
      "name": "maxBookDuration",
      "outputs": [
        {
          "internalType": "uint256",
          "name": "",
          "type": "uint256"
        }
      ],
      "stateMutability": "view",
      "type": "function",
      "constant": true
    },
    {
      "inputs": [],
      "name": "pool",
      "outputs": [
        {
          "internalType": "contract MainPool",
          "name": "",
          "type": "address"
        }
      ],
      "stateMutability": "view",
      "type": "function",
      "constant": true
    },
    {
      "inputs": [
        {
          "internalType": "address",
          "name": "nftContract",
          "type": "address"
        },
        {
          "internalType": "uint256",
          "name": "tokenId",
          "type": "uint256"
        }
      ],
      "name": "index",
      "outputs": [
        {
          "internalType": "bytes32",
          "name": "",
          "type": "bytes32"
        }
      ],
      "stateMutability": "pure",
      "type": "function",
      "constant": true
    },
    {
      "inputs": [
        {
          "internalType": "bytes32",
          "name": "bookId",
          "type": "bytes32"
        },
        {
          "internalType": "address",
          "name": "buyer",
          "type": "address"
        }
      ],
      "name": "biddingIndex",
      "outputs": [
        {
          "internalType": "bytes32",
          "name": "",
          "type": "bytes32"
        }
      ],
      "stateMutability": "view",
      "type": "function",
      "constant": true
    },
    {
      "inputs": [
        {
          "internalType": "address",
          "name": "nftContract",
          "type": "address"
        },
        {
          "internalType": "uint256",
          "name": "tokenId",
          "type": "uint256"
        }
      ],
      "name": "priceOf",
      "outputs": [
        {
          "internalType": "uint256",
          "name": "",
          "type": "uint256"
        }
      ],
      "stateMutability": "view",
      "type": "function",
      "constant": true
    },
    {
      "inputs": [
        {
          "internalType": "address",
          "name": "nftContract",
          "type": "address"
        },
        {
          "internalType": "uint256",
          "name": "tokenId",
          "type": "uint256"
        },
        {
          "internalType": "uint256",
          "name": "price",
          "type": "uint256"
        },
        {
          "internalType": "uint256",
          "name": "duration",
          "type": "uint256"
        }
      ],
      "name": "book",
      "outputs": [
        {
          "internalType": "bytes32",
          "name": "",
          "type": "bytes32"
        }
      ],
      "stateMutability": "nonpayable",
      "type": "function"
    },
    {
      "inputs": [
        {
          "internalType": "bytes32",
          "name": "bookId",
          "type": "bytes32"
        }
      ],
      "name": "cancelBook",
      "outputs": [],
      "stateMutability": "nonpayable",
      "type": "function"
    },
    {
      "inputs": [
        {
          "internalType": "bytes32",
          "name": "bookId",
          "type": "bytes32"
        },
        {
          "internalType": "uint256",
          "name": "price",
          "type": "uint256"
        },
        {
          "internalType": "uint256",
          "name": "duration",
          "type": "uint256"
        }
      ],
      "name": "bid",
      "outputs": [
        {
          "internalType": "bytes32",
          "name": "",
          "type": "bytes32"
        }
      ],
      "stateMutability": "nonpayable",
      "type": "function"
    },
    {
      "inputs": [
        {
          "internalType": "bytes32",
          "name": "bidId",
          "type": "bytes32"
        }
      ],
      "name": "cancelBid",
      "outputs": [],
      "stateMutability": "nonpayable",
      "type": "function"
    },
    {
      "inputs": [
        {
          "internalType": "bytes32",
          "name": "bidId",
          "type": "bytes32"
        }
      ],
      "name": "sell",
      "outputs": [],
      "stateMutability": "nonpayable",
      "type": "function"
    },
    {
      "inputs": [
        {
          "internalType": "bytes32",
          "name": "bookId",
          "type": "bytes32"
        }
      ],
      "name": "buy",
      "outputs": [],
      "stateMutability": "nonpayable",
      "type": "function"
    }
  ],
  "bytecode": "0x60806040523480156200001157600080fd5b5060405162002b6538038062002b658339818101604052810190620000379190620001c3565b81806000806101000a81548173ffffffffffffffffffffffffffffffffffffffff021916908373ffffffffffffffffffffffffffffffffffffffff1602179055505080600160006101000a81548173ffffffffffffffffffffffffffffffffffffffff021916908373ffffffffffffffffffffffffffffffffffffffff160217905550655af3107a4000600281905550655af3107a40006003819055506002600481905550606460058190555062ed4e0060068190555062ed4e0060078190555050506200020a565b600080fd5b600073ffffffffffffffffffffffffffffffffffffffff82169050919050565b6000620001328262000105565b9050919050565b6000620001468262000125565b9050919050565b620001588162000139565b81146200016457600080fd5b50565b60008151905062000178816200014d565b92915050565b60006200018b8262000125565b9050919050565b6200019d816200017e565b8114620001a957600080fd5b50565b600081519050620001bd8162000192565b92915050565b60008060408385031215620001dd57620001dc62000100565b5b6000620001ed8582860162000167565b92505060206200020085828601620001ac565b9150509250929050565b61294b806200021a6000396000f3fe608060405234801561001057600080fd5b50600436106101165760003560e01c80639c9a1061116100a2578063df7cec2811610071578063df7cec28146102f9578063e14a211514610315578063eef93af314610333578063fc3d545d14610367578063ffaa28a81461039757610116565b80639c9a106114610283578063a92c0e581461029f578063b8e72070146102bd578063c06b2356146102db57610116565b80635260946d116100e95780635260946d146101a757806359fc1a6e146101d757806364ba5db21461020757806375873f6f14610237578063924cea6b1461025357610116565b80630c0dee701461011b5780630c2533cb1461014f57806316f0115b1461016b5780633124e68414610189575b600080fd5b61013560048036038101906101309190611b98565b6103b5565b604051610146959493929190611c1f565b60405180910390f35b61016960048036038101906101649190611b98565b61040b565b005b610173610a0d565b6040516101809190611cd1565b60405180910390f35b610191610a31565b60405161019e9190611cec565b60405180910390f35b6101c160048036038101906101bc9190611d33565b610a37565b6040516101ce9190611d95565b60405180910390f35b6101f160048036038101906101ec9190611ddc565b610c9c565b6040516101fe9190611d95565b60405180910390f35b610221600480360381019061021c9190611e1c565b610ccf565b60405161022e9190611d95565b60405180910390f35b610251600480360381019061024c9190611b98565b610d1a565b005b61026d60048036038101906102689190611e5c565b610ea4565b60405161027a9190611d95565b60405180910390f35b61029d60048036038101906102989190611b98565b6111f4565b005b6102a7611589565b6040516102b49190611cec565b60405180910390f35b6102c561158f565b6040516102d29190611cec565b60405180910390f35b6102e3611595565b6040516102f09190611cec565b60405180910390f35b610313600480360381019061030e9190611b98565b61159b565b005b61031d611696565b60405161032a9190611cec565b60405180910390f35b61034d60048036038101906103489190611b98565b61169c565b60405161035e959493929190611ec3565b60405180910390f35b610381600480360381019061037c9190611ddc565b6116f2565b60405161038e9190611cec565b60405180910390f35b61039f61171c565b6040516103ac9190611cec565b60405180910390f35b60086020528060005260406000206000915090508060000160009054906101000a900473ffffffffffffffffffffffffffffffffffffffff16908060010154908060020154908060030154908060040154905085565b806000600960008381526020019081526020016000206040518060a0016040529081600082015481526020016001820160009054906101000a900473ffffffffffffffffffffffffffffffffffffffff1673ffffffffffffffffffffffffffffffffffffffff1673ffffffffffffffffffffffffffffffffffffffff16815260200160028201548152602001600382015481526020016004820154815250509050816104bf82600001518360200151610ccf565b146104ff576040517f08c379a00000000000000000000000000000000000000000000000000000000081526004016104f690611f73565b60405180910390fd5b80608001514210610545576040517f08c379a000000000000000000000000000000000000000000000000000000000815260040161053c90611fdf565b60405180910390fd5b60096000848152602001908152602001600020600001546000600860008381526020019081526020016000206040518060a00160405290816000820160009054906101000a900473ffffffffffffffffffffffffffffffffffffffff1673ffffffffffffffffffffffffffffffffffffffff1673ffffffffffffffffffffffffffffffffffffffff1681526020016001820154815260200160028201548152602001600382015481526020016004820154815250509050600081600001519050600073ffffffffffffffffffffffffffffffffffffffff168173ffffffffffffffffffffffffffffffffffffffff161415610675576040517f08c379a000000000000000000000000000000000000000000000000000000000815260040161066c9061204b565b60405180910390fd5b3073ffffffffffffffffffffffffffffffffffffffff168173ffffffffffffffffffffffffffffffffffffffff1663081812fc84602001516040518263ffffffff1660e01b81526004016106c99190611cec565b602060405180830381865afa1580156106e6573d6000803e3d6000fd5b505050506040513d601f19601f8201168201806040525081019061070a9190612080565b73ffffffffffffffffffffffffffffffffffffffff1614610760576040517f08c379a00000000000000000000000000000000000000000000000000000000081526004016107579061211f565b60405180910390fd5b816080015142106107a6576040517f08c379a000000000000000000000000000000000000000000000000000000000815260040161079d9061218b565b60405180910390fd5b6000600960008881526020019081526020016000206040518060a0016040529081600082015481526020016001820160009054906101000a900473ffffffffffffffffffffffffffffffffffffffff1673ffffffffffffffffffffffffffffffffffffffff1673ffffffffffffffffffffffffffffffffffffffff16815260200160028201548152602001600382015481526020016004820154815250509050600060086000836000015181526020019081526020016000206040518060a00160405290816000820160009054906101000a900473ffffffffffffffffffffffffffffffffffffffff1673ffffffffffffffffffffffffffffffffffffffff1673ffffffffffffffffffffffffffffffffffffffff168152602001600182015481526020016002820154815260200160038201548152602001600482015481525050905060008160000151905060008173ffffffffffffffffffffffffffffffffffffffff16636352211e84602001516040518263ffffffff1660e01b81526004016109329190611cec565b602060405180830381865afa15801561094f573d6000803e3d6000fd5b505050506040513d601f19601f820116820180604052508101906109739190612080565b90503373ffffffffffffffffffffffffffffffffffffffff168173ffffffffffffffffffffffffffffffffffffffff16146109e3576040517f08c379a00000000000000000000000000000000000000000000000000000000081526004016109da906121f7565b60405180910390fd5b610a0184600001518385602001518488602001518960400151611722565b50505050505050505050565b60008054906101000a900473ffffffffffffffffffffffffffffffffffffffff1681565b60075481565b600080600160009054906101000a900473ffffffffffffffffffffffffffffffffffffffff1673ffffffffffffffffffffffffffffffffffffffff1663dd62ed3e33306040518363ffffffff1660e01b8152600401610a97929190612217565b602060405180830381865afa158015610ab4573d6000803e3d6000fd5b505050506040513d601f19601f82011682018060405250810190610ad89190612255565b9050838111610b1c576040517f08c379a0000000000000000000000000000000000000000000000000000000008152600401610b13906122f4565b60405180910390fd5b6007548310610b60576040517f08c379a0000000000000000000000000000000000000000000000000000000008152600401610b5790612360565b60405180910390fd5b6000610b6c8633610ccf565b9050856009600083815260200190815260200160002060000181905550336009600083815260200190815260200160002060010160006101000a81548173ffffffffffffffffffffffffffffffffffffffff021916908373ffffffffffffffffffffffffffffffffffffffff160217905550846009600083815260200190815260200160002060020181905550426009600083815260200190815260200160002060030181905550610c274285611b4790919063ffffffff16565b60096000838152602001908152602001600020600401819055503373ffffffffffffffffffffffffffffffffffffffff16867f59ff41de97ccf2233103df7351ae4c42c5ede488a76a817e9d58cd771f1a2a3487604051610c889190611cec565b60405180910390a380925050509392505050565b60008282604051602001610cb19291906123e9565b60405160208183030381529060405280519060200120905092915050565b600082600860008581526020019081526020016000206003015483604051602001610cfc93929190612436565b60405160208183030381529060405280519060200120905092915050565b3373ffffffffffffffffffffffffffffffffffffffff166008600083815260200190815260200160002060000160009054906101000a900473ffffffffffffffffffffffffffffffffffffffff1673ffffffffffffffffffffffffffffffffffffffff16636352211e60086000858152602001908152602001600020600101546040518263ffffffff1660e01b8152600401610db69190611cec565b602060405180830381865afa158015610dd3573d6000803e3d6000fd5b505050506040513d601f19601f82011682018060405250810190610df79190612080565b73ffffffffffffffffffffffffffffffffffffffff1614610e4d576040517f08c379a0000000000000000000000000000000000000000000000000000000008152600401610e44906124bf565b60405180910390fd5b60006008600083815260200190815260200160002060020181905550600060086000838152602001908152602001600020600301819055506000600860008381526020019081526020016000206004018190555050565b60003373ffffffffffffffffffffffffffffffffffffffff168573ffffffffffffffffffffffffffffffffffffffff16636352211e866040518263ffffffff1660e01b8152600401610ef69190611cec565b602060405180830381865afa158015610f13573d6000803e3d6000fd5b505050506040513d601f19601f82011682018060405250810190610f379190612080565b73ffffffffffffffffffffffffffffffffffffffff1614610f8d576040517f08c379a0000000000000000000000000000000000000000000000000000000008152600401610f84906124bf565b60405180910390fd5b3073ffffffffffffffffffffffffffffffffffffffff168573ffffffffffffffffffffffffffffffffffffffff1663081812fc866040518263ffffffff1660e01b8152600401610fdd9190611cec565b602060405180830381865afa158015610ffa573d6000803e3d6000fd5b505050506040513d601f19601f8201168201806040525081019061101e9190612080565b73ffffffffffffffffffffffffffffffffffffffff1614611074576040517f08c379a000000000000000000000000000000000000000000000000000000000815260040161106b90612551565b60405180910390fd5b60065482106110b8576040517f08c379a00000000000000000000000000000000000000000000000000000000081526004016110af906125bd565b60405180910390fd5b60006110c48686610c9c565b9050856008600083815260200190815260200160002060000160006101000a81548173ffffffffffffffffffffffffffffffffffffffff021916908373ffffffffffffffffffffffffffffffffffffffff16021790555084600860008381526020019081526020016000206001018190555083600860008381526020019081526020016000206002018190555042600860008381526020019081526020016000206003018190555061117f4284611b4790919063ffffffff16565b60086000838152602001908152602001600020600401819055503373ffffffffffffffffffffffffffffffffffffffff16817f0f03de403cc9a81032f66241495d33b12a79d64edd5454501537c97ff7adf165866040516111e09190611cec565b60405180910390a380915050949350505050565b806000600860008381526020019081526020016000206040518060a00160405290816000820160009054906101000a900473ffffffffffffffffffffffffffffffffffffffff1673ffffffffffffffffffffffffffffffffffffffff1673ffffffffffffffffffffffffffffffffffffffff1681526020016001820154815260200160028201548152602001600382015481526020016004820154815250509050600081600001519050600073ffffffffffffffffffffffffffffffffffffffff168173ffffffffffffffffffffffffffffffffffffffff16141561130e576040517f08c379a00000000000000000000000000000000000000000000000000000000081526004016113059061204b565b60405180910390fd5b3073ffffffffffffffffffffffffffffffffffffffff168173ffffffffffffffffffffffffffffffffffffffff1663081812fc84602001516040518263ffffffff1660e01b81526004016113629190611cec565b602060405180830381865afa15801561137f573d6000803e3d6000fd5b505050506040513d601f19601f820116820180604052508101906113a39190612080565b73ffffffffffffffffffffffffffffffffffffffff16146113f9576040517f08c379a00000000000000000000000000000000000000000000000000000000081526004016113f09061211f565b60405180910390fd5b8160800151421061143f576040517f08c379a00000000000000000000000000000000000000000000000000000000081526004016114369061218b565b60405180910390fd5b6000600860008681526020019081526020016000206040518060a00160405290816000820160009054906101000a900473ffffffffffffffffffffffffffffffffffffffff1673ffffffffffffffffffffffffffffffffffffffff1673ffffffffffffffffffffffffffffffffffffffff168152602001600182015481526020016002820154815260200160038201548152602001600482015481525050905060008160000151905060008173ffffffffffffffffffffffffffffffffffffffff16636352211e84602001516040518263ffffffff1660e01b81526004016115279190611cec565b602060405180830381865afa158015611544573d6000803e3d6000fd5b505050506040513d601f19601f820116820180604052508101906115689190612080565b90506115808783856020015184338860400151611722565b50505050505050565b60055481565b60025481565b60045481565b3373ffffffffffffffffffffffffffffffffffffffff166009600083815260200190815260200160002060010160009054906101000a900473ffffffffffffffffffffffffffffffffffffffff1673ffffffffffffffffffffffffffffffffffffffff161461163f576040517f08c379a000000000000000000000000000000000000000000000000000000000815260040161163690612629565b60405180910390fd5b60006009600083815260200190815260200160002060020181905550600060096000838152602001908152602001600020600301819055506000600960008381526020019081526020016000206004018190555050565b60035481565b60096020528060005260406000206000915090508060000154908060010160009054906101000a900473ffffffffffffffffffffffffffffffffffffffff16908060020154908060030154908060040154905085565b6000600860006117028585610c9c565b815260200190815260200160002060020154905092915050565b60065481565b80600160009054906101000a900473ffffffffffffffffffffffffffffffffffffffff1673ffffffffffffffffffffffffffffffffffffffff166370a08231846040518263ffffffff1660e01b815260040161177e9190612649565b602060405180830381865afa15801561179b573d6000803e3d6000fd5b505050506040513d601f19601f820116820180604052508101906117bf9190612255565b1015611800576040517f08c379a00000000000000000000000000000000000000000000000000000000081526004016117f7906126d6565b60405180910390fd5b80600160009054906101000a900473ffffffffffffffffffffffffffffffffffffffff1673ffffffffffffffffffffffffffffffffffffffff1663dd62ed3e84306040518363ffffffff1660e01b815260040161185e929190612217565b602060405180830381865afa15801561187b573d6000803e3d6000fd5b505050506040513d601f19601f8201168201806040525081019061189f9190612255565b10156118e0576040517f08c379a00000000000000000000000000000000000000000000000000000000081526004016118d790612742565b60405180910390fd5b3073ffffffffffffffffffffffffffffffffffffffff168573ffffffffffffffffffffffffffffffffffffffff1663081812fc866040518263ffffffff1660e01b81526004016119309190611cec565b602060405180830381865afa15801561194d573d6000803e3d6000fd5b505050506040513d601f19601f820116820180604052508101906119719190612080565b73ffffffffffffffffffffffffffffffffffffffff16146119c7576040517f08c379a00000000000000000000000000000000000000000000000000000000081526004016119be906127d4565b60405180910390fd5b600160009054906101000a900473ffffffffffffffffffffffffffffffffffffffff1673ffffffffffffffffffffffffffffffffffffffff166323b872dd8385846040518463ffffffff1660e01b8152600401611a26939291906127f4565b6020604051808303816000875af1158015611a45573d6000803e3d6000fd5b505050506040513d601f19601f82011682018060405250810190611a699190612863565b508473ffffffffffffffffffffffffffffffffffffffff166342842e0e8484876040518463ffffffff1660e01b8152600401611aa7939291906127f4565b600060405180830381600087803b158015611ac157600080fd5b505af1158015611ad5573d6000803e3d6000fd5b505050508173ffffffffffffffffffffffffffffffffffffffff168373ffffffffffffffffffffffffffffffffffffffff16877fefaee0383d6b665f74cd38e144f1eed7e26c49cb6688e125ea49c9b5d349a03e84604051611b379190611cec565b60405180910390a4505050505050565b60008183611b5591906128bf565b905092915050565b600080fd5b6000819050919050565b611b7581611b62565b8114611b8057600080fd5b50565b600081359050611b9281611b6c565b92915050565b600060208284031215611bae57611bad611b5d565b5b6000611bbc84828501611b83565b91505092915050565b600073ffffffffffffffffffffffffffffffffffffffff82169050919050565b6000611bf082611bc5565b9050919050565b611c0081611be5565b82525050565b6000819050919050565b611c1981611c06565b82525050565b600060a082019050611c346000830188611bf7565b611c416020830187611c10565b611c4e6040830186611c10565b611c5b6060830185611c10565b611c686080830184611c10565b9695505050505050565b6000819050919050565b6000611c97611c92611c8d84611bc5565b611c72565b611bc5565b9050919050565b6000611ca982611c7c565b9050919050565b6000611cbb82611c9e565b9050919050565b611ccb81611cb0565b82525050565b6000602082019050611ce66000830184611cc2565b92915050565b6000602082019050611d016000830184611c10565b92915050565b611d1081611c06565b8114611d1b57600080fd5b50565b600081359050611d2d81611d07565b92915050565b600080600060608486031215611d4c57611d4b611b5d565b5b6000611d5a86828701611b83565b9350506020611d6b86828701611d1e565b9250506040611d7c86828701611d1e565b9150509250925092565b611d8f81611b62565b82525050565b6000602082019050611daa6000830184611d86565b92915050565b611db981611be5565b8114611dc457600080fd5b50565b600081359050611dd681611db0565b92915050565b60008060408385031215611df357611df2611b5d565b5b6000611e0185828601611dc7565b9250506020611e1285828601611d1e565b9150509250929050565b60008060408385031215611e3357611e32611b5d565b5b6000611e4185828601611b83565b9250506020611e5285828601611dc7565b9150509250929050565b60008060008060808587031215611e7657611e75611b5d565b5b6000611e8487828801611dc7565b9450506020611e9587828801611d1e565b9350506040611ea687828801611d1e565b9250506060611eb787828801611d1e565b91505092959194509250565b600060a082019050611ed86000830188611d86565b611ee56020830187611bf7565b611ef26040830186611c10565b611eff6060830185611c10565b611f0c6080830184611c10565b9695505050505050565b600082825260208201905092915050565b7f496e76616c696420426964000000000000000000000000000000000000000000600082015250565b6000611f5d600b83611f16565b9150611f6882611f27565b602082019050919050565b60006020820190508181036000830152611f8c81611f50565b9050919050565b7f54686973206269642068617320657870697265642e0000000000000000000000600082015250565b6000611fc9601583611f16565b9150611fd482611f93565b602082019050919050565b60006020820190508181036000830152611ff881611fbc565b9050919050565b7f4e465420436f6e747261637420756e617661696c61626c650000000000000000600082015250565b6000612035601883611f16565b915061204082611fff565b602082019050919050565b6000602082019050818103600083015261206481612028565b9050919050565b60008151905061207a81611db0565b92915050565b60006020828403121561209657612095611b5d565b5b60006120a48482850161206b565b91505092915050565b7f4f776e6572206861736e2774206772616e74207065726d697373696f6e20666f60008201527f722073656c6c0000000000000000000000000000000000000000000000000000602082015250565b6000612109602683611f16565b9150612114826120ad565b604082019050919050565b60006020820190508181036000830152612138816120fc565b9050919050565b7f546869732070726963652068617320657870697265642e000000000000000000600082015250565b6000612175601783611f16565b91506121808261213f565b602082019050919050565b600060208201905081810360008301526121a481612168565b9050919050565b7f43616c6c656520646f65736e2774206f776e207468697320746f6b656e2e0000600082015250565b60006121e1601e83611f16565b91506121ec826121ab565b602082019050919050565b60006020820190508181036000830152612210816121d4565b9050919050565b600060408201905061222c6000830185611bf7565b6122396020830184611bf7565b9392505050565b60008151905061224f81611d07565b92915050565b60006020828403121561226b5761226a611b5d565b5b600061227984828501612240565b91505092915050565b7f416c6c6f77616e6365206e6f7420656e6f75676820666f72207468697320626960008201527f6400000000000000000000000000000000000000000000000000000000000000602082015250565b60006122de602183611f16565b91506122e982612282565b604082019050919050565b6000602082019050818103600083015261230d816122d1565b9050919050565b7f457863656564206d6178696d756d20626964206475726174696f6e2e00000000600082015250565b600061234a601c83611f16565b915061235582612314565b602082019050919050565b600060208201905081810360008301526123798161233d565b9050919050565b60008160601b9050919050565b600061239882612380565b9050919050565b60006123aa8261238d565b9050919050565b6123c26123bd82611be5565b61239f565b82525050565b6000819050919050565b6123e36123de82611c06565b6123c8565b82525050565b60006123f582856123b1565b60148201915061240582846123d2565b6020820191508190509392505050565b6000819050919050565b61243061242b82611b62565b612415565b82525050565b6000612442828661241f565b60208201915061245282856123d2565b60208201915061246282846123b1565b601482019150819050949350505050565b7f43616c6c656520646f65736e2774206f776e207468697320746f6b656e000000600082015250565b60006124a9601d83611f16565b91506124b482612473565b602082019050919050565b600060208201905081810360008301526124d88161249c565b9050919050565b7f4e6f7420686176696e6720617070726f76616c206f66207468697320746f6b6560008201527f6e2e000000000000000000000000000000000000000000000000000000000000602082015250565b600061253b602283611f16565b9150612546826124df565b604082019050919050565b6000602082019050818103600083015261256a8161252e565b9050919050565b7f457863656564206d6178696d756d2073656c6c696e67206475726174696f6e2e600082015250565b60006125a7602083611f16565b91506125b282612571565b602082019050919050565b600060208201905081810360008301526125d68161259a565b9050919050565b7f43616c6c656520646f65736e2774206f776e2074686973206269642e00000000600082015250565b6000612613601c83611f16565b915061261e826125dd565b602082019050919050565b6000602082019050818103600083015261264281612606565b9050919050565b600060208201905061265e6000830184611bf7565b92915050565b7f427579657220646f65736e2774206861766520656e6f756768206d6f6e65792060008201527f746f207061792e00000000000000000000000000000000000000000000000000602082015250565b60006126c0602783611f16565b91506126cb82612664565b604082019050919050565b600060208201905081810360008301526126ef816126b3565b9050919050565b7f427579657220616c6c6f77616e63652069736e277420656e6f7567682e000000600082015250565b600061272c601d83611f16565b9150612737826126f6565b602082019050919050565b6000602082019050818103600083015261275b8161271f565b9050919050565b7f446f65736e2774206861766520617070726f76616c206f66207468697320746f60008201527f6b656e2e00000000000000000000000000000000000000000000000000000000602082015250565b60006127be602483611f16565b91506127c982612762565b604082019050919050565b600060208201905081810360008301526127ed816127b1565b9050919050565b60006060820190506128096000830186611bf7565b6128166020830185611bf7565b6128236040830184611c10565b949350505050565b60008115159050919050565b6128408161282b565b811461284b57600080fd5b50565b60008151905061285d81612837565b92915050565b60006020828403121561287957612878611b5d565b5b60006128878482850161284e565b91505092915050565b7f4e487b7100000000000000000000000000000000000000000000000000000000600052601160045260246000fd5b60006128ca82611c06565b91506128d583611c06565b9250827fffffffffffffffffffffffffffffffffffffffffffffffffffffffffffffffff0382111561290a57612909612890565b5b82820190509291505056fea26469706673582212200d50efd6cdea89a6759b11dc23c5da49f8ceb5e4433f8437cf6992f68ed306e664736f6c634300080b0033",
  "immutableReferences": {},
  "source": "// SPDX-License-Identifier: MIT\npragma solidity >=0.4.22 <0.9.0;\n\n// ERC721 = 0x80ac58cd, ERC1155 = 0xd9b67a26\n\nimport \"@openzeppelin/contracts/token/ERC20/IERC20.sol\";\nimport \"@openzeppelin/contracts/token/ERC721/IERC721.sol\";\nimport \"@openzeppelin/contracts/utils/math/SafeMath.sol\";\nimport \"./libs/ServiceBase.sol\";\n\ncontract NftMarket is ServiceBase {\n  using SafeMath for uint256;\n\n  IERC20 money;\n  uint256 public listFee;\n  uint256 public bidFee;\n  uint256 public commissionRateNumerator;\n  uint256 public commissionRateDenominator;\n  uint256 public maxBookDuration;\n  uint256 public maxBidDuration;\n\n  constructor(MainPool pool, IERC20 mainCoin) ServiceBase(pool) {\n    money = mainCoin;\n    listFee = 1 * 1e14; // 0.0001 ether\n    bidFee = 1 * 1e14; // 0.0001 ether\n    commissionRateNumerator = 2; // 2%\n    commissionRateDenominator = 100;\n    maxBookDuration = 86400 * 30 * 6; // six month\n    maxBidDuration = 86400 * 30 * 6; // six month\n  }\n  \n  struct Book {\n    address nftContract;\n    uint256 tokenId;\n    uint256 price;\n    uint256 stamp;\n    uint256 due;\n  }\n\n  struct Bid {\n    bytes32 bookId;\n    address buyer;\n    uint256 price;\n    uint256 stamp;\n    uint256 due;\n  }\n\n  mapping(bytes32 => Book) public books;\n  mapping(bytes32 => Bid) public biddings;\n\n  event Booked(bytes32 indexed bookId, address indexed seller, uint256 price);\n  event Bidded(bytes32 indexed bookId, address indexed buyer, uint256 price);\n  event Dealed(bytes32 indexed bookId, address indexed seller, address indexed buyer, uint256 price);\n\n  modifier isValidBid(bytes32 bidId) {\n    Bid memory bidding = biddings[bidId];\n    require(biddingIndex(bidding.bookId, bidding.buyer) == bidId, \"Invalid Bid\");\n    require(block.timestamp < bidding.due, \"This bid has expired.\");\n    _;\n  }\n\n  modifier isValidBook(bytes32 bookId) {\n    Book memory booking = books[bookId];\n    IERC721 nftContract = IERC721(booking.nftContract);\n\n    require(address(nftContract) != address(0), \"NFT Contract unavailable\");\n    require(nftContract.getApproved(booking.tokenId) == address(this), \"Owner hasn't grant permission for sell\");\n    require(block.timestamp < booking.due, \"This price has expired.\");\n    _;\n  }\n\n  function index(address nftContract, uint256 tokenId) public pure returns (bytes32) {\n    return keccak256(abi.encodePacked(nftContract, tokenId));\n  }\n\n  function biddingIndex(bytes32 bookId, address buyer) public view returns (bytes32) {\n    return keccak256(abi.encodePacked(bookId, books[bookId].stamp, buyer));\n  }\n\n  function priceOf(address nftContract, uint256 tokenId) public view returns (uint256) {\n    return books[index(nftContract, tokenId)].price;\n  }\n\n  function book(address nftContract, uint256 tokenId, uint256 price, uint256 duration) public returns (bytes32) {\n    // todo: add list fee\n    require(IERC721(nftContract).ownerOf(tokenId) == msg.sender, \"Callee doesn't own this token\");\n    require(IERC721(nftContract).getApproved(tokenId) == address(this), \"Not having approval of this token.\");\n    require(duration < maxBookDuration, \"Exceed maximum selling duration.\");\n\n    bytes32 bookId = index(nftContract, tokenId);\n    books[bookId].nftContract = nftContract;\n    books[bookId].tokenId = tokenId;\n    books[bookId].price = price;\n    books[bookId].stamp = block.timestamp;\n    books[bookId].due = duration.add(block.timestamp);\n\n    emit Booked(bookId, msg.sender, price);\n\n    return bookId;\n  }\n\n  function cancelBook(bytes32 bookId) public {\n    require(IERC721(books[bookId].nftContract).ownerOf(books[bookId].tokenId) == msg.sender, \"Callee doesn't own this token\");\n    books[bookId].price = 0;\n    books[bookId].stamp = 0;\n    books[bookId].due = 0;\n  }\n\n  function bid(bytes32 bookId, uint256 price, uint256 duration) public returns (bytes32) {\n    // todo: add bid fee\n    uint256 allowance = money.allowance(msg.sender, address(this));\n    require(allowance > price, \"Allowance not enough for this bid\");\n    require(duration < maxBidDuration, \"Exceed maximum bid duration.\");\n    \n    bytes32 bidId = biddingIndex(bookId, msg.sender);\n    biddings[bidId].bookId = bookId;\n    biddings[bidId].buyer = msg.sender;\n    biddings[bidId].price = price;\n    biddings[bidId].stamp = block.timestamp;\n    biddings[bidId].due = duration.add(block.timestamp);\n\n    emit Bidded(bookId, msg.sender, price);\n\n    return bidId;\n  }\n\n  function cancelBid(bytes32 bidId) public {\n    require(biddings[bidId].buyer == msg.sender, \"Callee doesn't own this bid.\");\n    biddings[bidId].price = 0;\n    biddings[bidId].stamp = 0;\n    biddings[bidId].due = 0;\n  }\n\n  function sell(bytes32 bidId) public isValidBid(bidId) isValidBook(biddings[bidId].bookId) {\n    Bid memory bidding = biddings[bidId];\n    Book memory booking = books[bidding.bookId];\n    IERC721 nftContract = IERC721(booking.nftContract);\n    address seller = nftContract.ownerOf(booking.tokenId);\n    require(seller == msg.sender, \"Callee doesn't own this token.\");\n\n    _deal(bidding.bookId, nftContract, booking.tokenId, seller, bidding.buyer, bidding.price);\n  }\n\n  function buy(bytes32 bookId) public isValidBook(bookId){\n    Book memory booking = books[bookId];\n    IERC721 nftContract = IERC721(booking.nftContract);\n    address seller = nftContract.ownerOf(booking.tokenId);\n    _deal(bookId, nftContract, booking.tokenId, seller, msg.sender, booking.price);\n  }\n\n  function _deal(bytes32 bookId, IERC721 nftContract, uint256 tokenId, address seller, address buyer, uint256 amount) private {\n    require(money.balanceOf(buyer) >= amount, \"Buyer doesn't have enough money to pay.\");\n    require(money.allowance(buyer, address(this)) >= amount, \"Buyer allowance isn't enough.\");\n    require(nftContract.getApproved(tokenId) == address(this), \"Doesn't have approval of this token.\");\n\n    // todo: calculate commission to NftMarket\n    // todo: calculate roality to NftContract Owner\n\n    money.transferFrom(buyer, seller, amount);\n    nftContract.safeTransferFrom(seller, buyer, tokenId);\n\n    emit Dealed(bookId, seller, buyer, amount);\n  }\n}",
  "sourcePath": "/Users/johnson/Documents/02.Projects/crypto-service-starter/contracts/contracts/NftMarket.sol",
  "compiler": {
    "name": "solc",
    "version": "0.8.11+commit.d7f03943.Emscripten.clang"
  },
  "schemaVersion": "3.3.4",
  "updatedAt": "2021-12-29T05:37:52.484Z",
  "networkType": "ethereum",
  "devdoc": {
    "kind": "dev",
    "methods": {},
    "version": 1
  },
  "userdoc": {
    "kind": "user",
    "methods": {},
    "version": 1
  }
}