{
  "contractName": "TokenWrapper",
  "abi": [
    {
      "inputs": [
        {
          "internalType": "contract IERC20",
          "name": "_coinAddress",
          "type": "address"
        }
      ],
      "stateMutability": "nonpayable",
      "type": "constructor"
    },
    {
      "inputs": [],
      "name": "coin",
      "outputs": [
        {
          "internalType": "contract IERC20",
          "name": "",
          "type": "address"
        }
      ],
      "stateMutability": "view",
      "type": "function"
    },
    {
      "inputs": [],
      "name": "totalSupply",
      "outputs": [
        {
          "internalType": "uint256",
          "name": "",
          "type": "uint256"
        }
      ],
      "stateMutability": "view",
      "type": "function"
    },
    {
      "inputs": [
        {
          "internalType": "address",
          "name": "account",
          "type": "address"
        }
      ],
      "name": "balanceOf",
      "outputs": [
        {
          "internalType": "uint256",
          "name": "",
          "type": "uint256"
        }
      ],
      "stateMutability": "view",
      "type": "function"
    },
    {
      "inputs": [
        {
          "internalType": "uint256",
          "name": "amount",
          "type": "uint256"
        }
      ],
      "name": "stake",
      "outputs": [],
      "stateMutability": "nonpayable",
      "type": "function"
    },
    {
      "inputs": [
        {
          "internalType": "uint256",
          "name": "amount",
          "type": "uint256"
        }
      ],
      "name": "unstake",
      "outputs": [],
      "stateMutability": "nonpayable",
      "type": "function"
    }
  ],
  "bytecode": "0x608060405234801561001057600080fd5b506040516108cc3803806108cc833981810160405281019061003291906100ed565b806000806101000a81548173ffffffffffffffffffffffffffffffffffffffff021916908373ffffffffffffffffffffffffffffffffffffffff1602179055505061011a565b600080fd5b600073ffffffffffffffffffffffffffffffffffffffff82169050919050565b60006100a88261007d565b9050919050565b60006100ba8261009d565b9050919050565b6100ca816100af565b81146100d557600080fd5b50565b6000815190506100e7816100c1565b92915050565b60006020828403121561010357610102610078565b5b6000610111848285016100d8565b91505092915050565b6107a3806101296000396000f3fe608060405234801561001057600080fd5b50600436106100575760003560e01c806311df99951461005c57806318160ddd1461007a5780632e17de781461009857806370a08231146100b4578063a694fc3a146100e4575b600080fd5b610064610100565b60405161007191906104c8565b60405180910390f35b610082610124565b60405161008f91906104fc565b60405180910390f35b6100b260048036038101906100ad9190610548565b61012e565b005b6100ce60048036038101906100c991906105b3565b610280565b6040516100db91906104fc565b60405180910390f35b6100fe60048036038101906100f99190610548565b6102c9565b005b60008054906101000a900473ffffffffffffffffffffffffffffffffffffffff1681565b6000600154905090565b6101438160015461041d90919063ffffffff16565b60018190555061019b81600260003373ffffffffffffffffffffffffffffffffffffffff1673ffffffffffffffffffffffffffffffffffffffff1681526020019081526020016000205461041d90919063ffffffff16565b600260003373ffffffffffffffffffffffffffffffffffffffff1673ffffffffffffffffffffffffffffffffffffffff1681526020019081526020016000208190555060008054906101000a900473ffffffffffffffffffffffffffffffffffffffff1673ffffffffffffffffffffffffffffffffffffffff1663a9059cbb33836040518363ffffffff1660e01b81526004016102399291906105ef565b6020604051808303816000875af1158015610258573d6000803e3d6000fd5b505050506040513d601f19601f8201168201806040525081019061027c9190610650565b5050565b6000600260008373ffffffffffffffffffffffffffffffffffffffff1673ffffffffffffffffffffffffffffffffffffffff168152602001908152602001600020549050919050565b6102de8160015461043390919063ffffffff16565b60018190555061033681600260003373ffffffffffffffffffffffffffffffffffffffff1673ffffffffffffffffffffffffffffffffffffffff1681526020019081526020016000205461043390919063ffffffff16565b600260003373ffffffffffffffffffffffffffffffffffffffff1673ffffffffffffffffffffffffffffffffffffffff1681526020019081526020016000208190555060008054906101000a900473ffffffffffffffffffffffffffffffffffffffff1673ffffffffffffffffffffffffffffffffffffffff166323b872dd3330846040518463ffffffff1660e01b81526004016103d69392919061067d565b6020604051808303816000875af11580156103f5573d6000803e3d6000fd5b505050506040513d601f19601f820116820180604052508101906104199190610650565b5050565b6000818361042b91906106e3565b905092915050565b600081836104419190610717565b905092915050565b600073ffffffffffffffffffffffffffffffffffffffff82169050919050565b6000819050919050565b600061048e61048961048484610449565b610469565b610449565b9050919050565b60006104a082610473565b9050919050565b60006104b282610495565b9050919050565b6104c2816104a7565b82525050565b60006020820190506104dd60008301846104b9565b92915050565b6000819050919050565b6104f6816104e3565b82525050565b600060208201905061051160008301846104ed565b92915050565b600080fd5b610525816104e3565b811461053057600080fd5b50565b6000813590506105428161051c565b92915050565b60006020828403121561055e5761055d610517565b5b600061056c84828501610533565b91505092915050565b600061058082610449565b9050919050565b61059081610575565b811461059b57600080fd5b50565b6000813590506105ad81610587565b92915050565b6000602082840312156105c9576105c8610517565b5b60006105d78482850161059e565b91505092915050565b6105e981610575565b82525050565b600060408201905061060460008301856105e0565b61061160208301846104ed565b9392505050565b60008115159050919050565b61062d81610618565b811461063857600080fd5b50565b60008151905061064a81610624565b92915050565b60006020828403121561066657610665610517565b5b60006106748482850161063b565b91505092915050565b600060608201905061069260008301866105e0565b61069f60208301856105e0565b6106ac60408301846104ed565b949350505050565b7f4e487b7100000000000000000000000000000000000000000000000000000000600052601160045260246000fd5b60006106ee826104e3565b91506106f9836104e3565b92508282101561070c5761070b6106b4565b5b828203905092915050565b6000610722826104e3565b915061072d836104e3565b9250827fffffffffffffffffffffffffffffffffffffffffffffffffffffffffffffffff03821115610762576107616106b4565b5b82820190509291505056fea2646970667358221220a0fa9699fe92419a46dd08ea5e9db3c8fa9a286ce15206100e59e2b196e61a3364736f6c634300080b0033",
  "immutableReferences": {},
  "source": "// SPDX-License-Identifier: MIT\npragma solidity >=0.4.22 <0.9.0;\n\nimport \"@openzeppelin/contracts/utils/math/SafeMath.sol\";\nimport \"@openzeppelin/contracts/token/ERC20/IERC20.sol\";\nimport \"@openzeppelin/contracts/access/Ownable.sol\";\nimport \"@openzeppelin/contracts/access/AccessControl.sol\";\n\ncontract TokenWrapper {\n  using SafeMath for uint256;\n  IERC20 public coin;\n\n  constructor(IERC20 _coinAddress) {\n    coin = IERC20(_coinAddress);\n  }\n\n  uint256 private _totalSupply;\n  mapping(address => uint256) private _balances;\n\n  function totalSupply() public view returns (uint256) {\n    return _totalSupply;\n  }\n\n  function balanceOf(address account) public view returns (uint256) {\n    return _balances[account];\n  }\n\n  function stake(uint256 amount) public virtual {\n    _totalSupply = _totalSupply.add(amount);\n    _balances[msg.sender] = _balances[msg.sender].add(amount);\n    coin.transferFrom(msg.sender, address(this), amount);\n  }\n\n  function unstake(uint256 amount) public virtual {\n    _totalSupply = _totalSupply.sub(amount);\n    _balances[msg.sender] = _balances[msg.sender].sub(amount);\n    coin.transfer(msg.sender, amount);\n  }\n}\n\ncontract MainPool is TokenWrapper, Ownable, AccessControl {\n  using SafeMath for uint256;\n  bytes32 public constant SERVICE_ROLE = keccak256(\"SERVICE_ROLE\");\n\n  // 1 PREC = 0.005 Points/day\n\n  mapping(address => uint256) public lastUpdateTime;\n  mapping(address => uint256) public points;\n\n  uint256 public stakeLimit;\n  uint256 public rateNumerator;\n  uint256 public rateDenominator;\n  uint256 public billingPeriod;\n\n  event Staked(address indexed user, uint256 amount);\n  event Unstaked(address indexed user, uint256 amount);\n  event Rewarded(address indexed user, uint256 points, bytes data);\n  event Consumed(address indexed user, uint256 points, bytes data);\n\n  modifier updateReward(address account) {\n    if (account != address(0)) {\n      points[account] = earned(account);\n      lastUpdateTime[account] = block.timestamp;\n    }\n    _;\n  }\n\n  constructor(IERC20 _coinAddress) TokenWrapper(_coinAddress) {\n    // Grant the contract deployer the default admin role\n    _setupRole(DEFAULT_ADMIN_ROLE, msg.sender);\n\n    // Setup initial formula\n    stakeLimit = 10 * 1e8 * 1e18; // unlimited\n    rateNumerator = 5;            // 0.005 = 5 / 1000\n    rateDenominator = 1000;\n    billingPeriod = 86400;\n  }\n\n  function earned(address account) public view returns (uint256) {\n    // @todo:  profitPerShare \n    uint256 blockTime = block.timestamp;\n    uint256 base = blockTime\n      .sub(lastUpdateTime[account])       //  5 day\n      .mul(1e18)                          //  5e18\n      .div(billingPeriod)                 //  5e18/86400\n      .mul(\n        balanceOf(account).div(1e18));   //  1e18 = ex. 1 PREC\n    \n    return\n      points[account].add(\n        base\n          .mul(rateNumerator)\n          .div(rateDenominator)\n      );\n  }\n\n  function stake(uint256 amount) public override updateReward(msg.sender) {\n    require(amount.add(balanceOf(msg.sender)) <= stakeLimit, \"Stake more than limits\");\n\n    super.stake(amount);\n    emit Staked(msg.sender, amount);\n  }\n\n  function unstake(uint256 amount) public override updateReward(msg.sender) {\n    require(amount > 0, \"Cannot withdraw 0\");\n\n    super.unstake(amount);\n    emit Unstaked(msg.sender, amount);\n  }\n\n  function exit() external {\n    unstake(balanceOf(msg.sender));\n  }\n\n  function alterFormula(\n    uint256 nextStakeLimit,\n    uint256 nextNumerator,\n    uint256 nextDenominator,\n    uint256 nextBillingPeriod // 86400\n  ) public onlyOwner {\n    stakeLimit = nextStakeLimit;\n    rateNumerator = nextNumerator;\n    rateDenominator = nextDenominator;\n    billingPeriod = nextBillingPeriod;\n  }\n\n  function reward(address account, uint256 amount, bytes calldata _data) \n    public updateReward(account) onlyRole(SERVICE_ROLE) {\n      points[account] = points[account].add(amount);\n\n      emit Rewarded(account, amount, _data);\n  }\n\n  function consume(address account, uint256 amount, bytes calldata _data) \n    public updateReward(account) onlyRole(SERVICE_ROLE) {\n      require(points[account] > amount, \"Not enough points\");\n      points[account] = points[account].sub(amount);\n\n      emit Consumed(account, amount, _data);\n  }\n\n  function registerService(address contractAddress) public {\n    grantRole(SERVICE_ROLE, contractAddress);\n  }\n}",
  "sourcePath": "/Users/johnson/Documents/02.Projects/crypto-service-starter/contracts/contracts/MainPool.sol",
  "compiler": {
    "name": "solc",
    "version": "0.8.11+commit.d7f03943.Emscripten.clang"
  },
  "schemaVersion": "3.3.4",
  "updatedAt": "2021-12-29T05:37:50.521Z",
  "devdoc": {
    "kind": "dev",
    "methods": {},
    "version": 1
  },
  "userdoc": {
    "kind": "user",
    "methods": {},
    "version": 1
  }
}